{
  "address": "0x613BdF5383Bf2A7494aFD105C51bf89Fb0FE481B",
  "abi": [
    {
      "inputs": [],
      "stateMutability": "nonpayable",
      "type": "constructor"
    },
    {
      "inputs": [
        {
          "internalType": "address",
          "name": "sender",
          "type": "address"
        },
        {
          "internalType": "uint256",
          "name": "tokenId",
          "type": "uint256"
        },
        {
          "internalType": "address",
          "name": "owner",
          "type": "address"
        }
      ],
      "name": "ERC721IncorrectOwner",
      "type": "error"
    },
    {
      "inputs": [
        {
          "internalType": "address",
          "name": "operator",
          "type": "address"
        },
        {
          "internalType": "uint256",
          "name": "tokenId",
          "type": "uint256"
        }
      ],
      "name": "ERC721InsufficientApproval",
      "type": "error"
    },
    {
      "inputs": [
        {
          "internalType": "address",
          "name": "approver",
          "type": "address"
        }
      ],
      "name": "ERC721InvalidApprover",
      "type": "error"
    },
    {
      "inputs": [
        {
          "internalType": "address",
          "name": "operator",
          "type": "address"
        }
      ],
      "name": "ERC721InvalidOperator",
      "type": "error"
    },
    {
      "inputs": [
        {
          "internalType": "address",
          "name": "owner",
          "type": "address"
        }
      ],
      "name": "ERC721InvalidOwner",
      "type": "error"
    },
    {
      "inputs": [
        {
          "internalType": "address",
          "name": "receiver",
          "type": "address"
        }
      ],
      "name": "ERC721InvalidReceiver",
      "type": "error"
    },
    {
      "inputs": [
        {
          "internalType": "address",
          "name": "sender",
          "type": "address"
        }
      ],
      "name": "ERC721InvalidSender",
      "type": "error"
    },
    {
      "inputs": [
        {
          "internalType": "uint256",
          "name": "tokenId",
          "type": "uint256"
        }
      ],
      "name": "ERC721NonexistentToken",
      "type": "error"
    },
    {
      "anonymous": false,
      "inputs": [
        {
          "indexed": true,
          "internalType": "address",
          "name": "owner",
          "type": "address"
        },
        {
          "indexed": true,
          "internalType": "address",
          "name": "approved",
          "type": "address"
        },
        {
          "indexed": true,
          "internalType": "uint256",
          "name": "tokenId",
          "type": "uint256"
        }
      ],
      "name": "Approval",
      "type": "event"
    },
    {
      "anonymous": false,
      "inputs": [
        {
          "indexed": true,
          "internalType": "address",
          "name": "owner",
          "type": "address"
        },
        {
          "indexed": true,
          "internalType": "address",
          "name": "operator",
          "type": "address"
        },
        {
          "indexed": false,
          "internalType": "bool",
          "name": "approved",
          "type": "bool"
        }
      ],
      "name": "ApprovalForAll",
      "type": "event"
    },
    {
      "anonymous": false,
      "inputs": [
        {
          "indexed": true,
          "internalType": "address",
          "name": "from",
          "type": "address"
        },
        {
          "indexed": true,
          "internalType": "address",
          "name": "to",
          "type": "address"
        },
        {
          "indexed": true,
          "internalType": "uint256",
          "name": "tokenId",
          "type": "uint256"
        }
      ],
      "name": "Transfer",
      "type": "event"
    },
    {
      "inputs": [],
      "name": "MAX_PRICE",
      "outputs": [
        {
          "internalType": "uint256",
          "name": "",
          "type": "uint256"
        }
      ],
      "stateMutability": "view",
      "type": "function"
    },
    {
      "inputs": [],
      "name": "MAX_SUPPLY",
      "outputs": [
        {
          "internalType": "uint256",
          "name": "",
          "type": "uint256"
        }
      ],
      "stateMutability": "view",
      "type": "function"
    },
    {
      "inputs": [],
      "name": "MIN_PRICE",
      "outputs": [
        {
          "internalType": "uint256",
          "name": "",
          "type": "uint256"
        }
      ],
      "stateMutability": "view",
      "type": "function"
    },
    {
      "inputs": [],
      "name": "PRICE_INCREMENT",
      "outputs": [
        {
          "internalType": "uint256",
          "name": "",
          "type": "uint256"
        }
      ],
      "stateMutability": "view",
      "type": "function"
    },
    {
      "inputs": [
        {
          "internalType": "address",
          "name": "to",
          "type": "address"
        },
        {
          "internalType": "uint256",
          "name": "tokenId",
          "type": "uint256"
        }
      ],
      "name": "approve",
      "outputs": [],
      "stateMutability": "nonpayable",
      "type": "function"
    },
    {
      "inputs": [
        {
          "internalType": "address",
          "name": "owner",
          "type": "address"
        }
      ],
      "name": "balanceOf",
      "outputs": [
        {
          "internalType": "uint256",
          "name": "",
          "type": "uint256"
        }
      ],
      "stateMutability": "view",
      "type": "function"
    },
    {
      "inputs": [
        {
          "internalType": "uint256",
          "name": "tokenId",
          "type": "uint256"
        }
      ],
      "name": "getApproved",
      "outputs": [
        {
          "internalType": "address",
          "name": "",
          "type": "address"
        }
      ],
      "stateMutability": "view",
      "type": "function"
    },
    {
      "inputs": [],
      "name": "getCurrentPrice",
      "outputs": [
        {
          "internalType": "uint256",
          "name": "",
          "type": "uint256"
        }
      ],
      "stateMutability": "view",
      "type": "function"
    },
    {
      "inputs": [],
      "name": "getTokenInfo",
      "outputs": [
        {
          "components": [
            {
              "internalType": "uint256",
              "name": "maxSupply",
              "type": "uint256"
            },
            {
              "internalType": "uint256",
              "name": "currentSupply",
              "type": "uint256"
            },
            {
              "internalType": "uint256",
              "name": "currentPrice",
              "type": "uint256"
            },
            {
              "internalType": "uint256",
              "name": "minPrice",
              "type": "uint256"
            },
            {
              "internalType": "uint256",
              "name": "maxPrice",
              "type": "uint256"
            }
          ],
          "internalType": "struct IBeliever.BelieverNFTInfo",
          "name": "info",
          "type": "tuple"
        }
      ],
      "stateMutability": "view",
      "type": "function"
    },
    {
      "inputs": [
        {
          "internalType": "address",
          "name": "owner",
          "type": "address"
        },
        {
          "internalType": "address",
          "name": "operator",
          "type": "address"
        }
      ],
      "name": "isApprovedForAll",
      "outputs": [
        {
          "internalType": "bool",
          "name": "",
          "type": "bool"
        }
      ],
      "stateMutability": "view",
      "type": "function"
    },
    {
      "inputs": [
        {
          "internalType": "uint256",
          "name": "value",
          "type": "uint256"
        },
        {
          "internalType": "address",
          "name": "account",
          "type": "address"
        }
      ],
      "name": "mintNFT",
      "outputs": [],
      "stateMutability": "nonpayable",
      "type": "function"
    },
    {
      "inputs": [],
      "name": "name",
      "outputs": [
        {
          "internalType": "string",
          "name": "",
          "type": "string"
        }
      ],
      "stateMutability": "view",
      "type": "function"
    },
    {
      "inputs": [
        {
          "internalType": "uint256",
          "name": "tokenId",
          "type": "uint256"
        }
      ],
      "name": "ownerOf",
      "outputs": [
        {
          "internalType": "address",
          "name": "",
          "type": "address"
        }
      ],
      "stateMutability": "view",
      "type": "function"
    },
    {
      "inputs": [
        {
          "internalType": "address",
          "name": "from",
          "type": "address"
        },
        {
          "internalType": "address",
          "name": "to",
          "type": "address"
        },
        {
          "internalType": "uint256",
          "name": "tokenId",
          "type": "uint256"
        }
      ],
      "name": "safeTransferFrom",
      "outputs": [],
      "stateMutability": "nonpayable",
      "type": "function"
    },
    {
      "inputs": [
        {
          "internalType": "address",
          "name": "from",
          "type": "address"
        },
        {
          "internalType": "address",
          "name": "to",
          "type": "address"
        },
        {
          "internalType": "uint256",
          "name": "tokenId",
          "type": "uint256"
        },
        {
          "internalType": "bytes",
          "name": "data",
          "type": "bytes"
        }
      ],
      "name": "safeTransferFrom",
      "outputs": [],
      "stateMutability": "nonpayable",
      "type": "function"
    },
    {
      "inputs": [
        {
          "internalType": "address",
          "name": "operator",
          "type": "address"
        },
        {
          "internalType": "bool",
          "name": "approved",
          "type": "bool"
        }
      ],
      "name": "setApprovalForAll",
      "outputs": [],
      "stateMutability": "nonpayable",
      "type": "function"
    },
    {
      "inputs": [
        {
          "internalType": "bytes4",
          "name": "interfaceId",
          "type": "bytes4"
        }
      ],
      "name": "supportsInterface",
      "outputs": [
        {
          "internalType": "bool",
          "name": "",
          "type": "bool"
        }
      ],
      "stateMutability": "view",
      "type": "function"
    },
    {
      "inputs": [],
      "name": "symbol",
      "outputs": [
        {
          "internalType": "string",
          "name": "",
          "type": "string"
        }
      ],
      "stateMutability": "view",
      "type": "function"
    },
    {
      "inputs": [
        {
          "internalType": "uint256",
          "name": "tokenId",
          "type": "uint256"
        }
      ],
      "name": "tokenURI",
      "outputs": [
        {
          "internalType": "string",
          "name": "",
          "type": "string"
        }
      ],
      "stateMutability": "view",
      "type": "function"
    },
    {
      "inputs": [
        {
          "internalType": "address",
          "name": "from",
          "type": "address"
        },
        {
          "internalType": "address",
          "name": "to",
          "type": "address"
        },
        {
          "internalType": "uint256",
          "name": "tokenId",
          "type": "uint256"
        }
      ],
      "name": "transferFrom",
      "outputs": [],
      "stateMutability": "nonpayable",
      "type": "function"
    }
  ],
  "transactionHash": "0x61ea15f2ec7ac9c0ebbe394b8ac84d20f803525fa43ce214da1454cb23c74b5e",
  "args": [],
  "numDeployments": 1,
  "solcInputHash": "ed8afa8bb322a3d5897e244c41ca23cf",
  "bytecode": "0x608060405260006006553480156200001657600080fd5b506040518060400160405280601181526020017014195b960810995b1a595d995c88139195607a1b81525060405180604001604052806003815260200162282c2160e91b81525081600090816200006e91906200012b565b5060016200007d82826200012b565b505050620001f7565b634e487b7160e01b600052604160045260246000fd5b600181811c90821680620000b157607f821691505b602082108103620000d257634e487b7160e01b600052602260045260246000fd5b50919050565b601f8211156200012657600081815260208120601f850160051c81016020861015620001015750805b601f850160051c820191505b8181101562000122578281556001016200010d565b5050505b505050565b81516001600160401b0381111562000147576200014762000086565b6200015f816200015884546200009c565b84620000d8565b602080601f8311600181146200019757600084156200017e5750858301515b600019600386901b1c1916600185901b17855562000122565b600085815260208120601f198616915b82811015620001c857888601518255948401946001909101908401620001a7565b5085821015620001e75787850151600019600388901b60f8161c191681555b5050505050600190811b01905550565b611aa480620002076000396000f3fe608060405234801561001057600080fd5b506004361061016c5760003560e01c80636d25d802116100cd578063ad9f20a611610081578063c87b56dd11610066578063c87b56dd1461030f578063e985e9c514610322578063eb91d37e1461036b57600080fd5b8063ad9f20a6146102ed578063b88d4fde146102fc57600080fd5b806395d89b41116100b257806395d89b4114610288578063a22cb46514610290578063abb1dc44146102a357600080fd5b80636d25d8021461026d57806370a082311461027557600080fd5b806323b872dd1161012457806342842e0e1161010957806342842e0e146102345780636352211e14610247578063669f5a511461025a57600080fd5b806323b872dd1461021857806332cb6b0c1461022b57600080fd5b806306fdde031161015557806306fdde03146101b6578063081812fc146101cb578063095ea7b31461020357600080fd5b806301c11d961461017157806301ffc9a714610193575b600080fd5b6101806729a2241af62c000081565b6040519081526020015b60405180910390f35b6101a66101a1366004611553565b610373565b604051901515815260200161018a565b6101be610458565b60405161018a91906115de565b6101de6101d93660046115f1565b6104ea565b60405173ffffffffffffffffffffffffffffffffffffffff909116815260200161018a565b610216610211366004611633565b610520565b005b61021661022636600461165d565b61052f565b61018061040081565b61021661024236600461165d565b610625565b6101de6102553660046115f1565b610645565b610216610268366004611699565b610650565b610180610792565b6101806102833660046116c5565b6107bc565b6101be610837565b61021661029e3660046116e0565b610846565b6102ab610851565b60405161018a9190600060a082019050825182526020830151602083015260408301516040830152606083015160608301526080830151608083015292915050565b61018067016345785d8a000081565b61021661030a36600461174b565b6108ca565b6101be61031d3660046115f1565b6108e1565b6101a6610330366004611845565b73ffffffffffffffffffffffffffffffffffffffff918216600090815260056020908152604080832093909416825291909152205460ff1690565b610180610956565b60007fffffffff0000000000000000000000000000000000000000000000000000000082167f80ac58cd00000000000000000000000000000000000000000000000000000000148061040657507fffffffff0000000000000000000000000000000000000000000000000000000082167f5b5e139f00000000000000000000000000000000000000000000000000000000145b8061045257507f01ffc9a7000000000000000000000000000000000000000000000000000000007fffffffff000000000000000000000000000000000000000000000000000000008316145b92915050565b6060600080546104679061186f565b80601f01602080910402602001604051908101604052809291908181526020018280546104939061186f565b80156104e05780601f106104b5576101008083540402835291602001916104e0565b820191906000526020600020905b8154815290600101906020018083116104c357829003601f168201915b5050505050905090565b60006104f5826109c6565b5060008281526004602052604090205473ffffffffffffffffffffffffffffffffffffffff16610452565b61052b828233610a25565b5050565b73ffffffffffffffffffffffffffffffffffffffff8216610584576040517f64a0ae92000000000000000000000000000000000000000000000000000000008152600060048201526024015b60405180910390fd5b6000610591838333610a32565b90508373ffffffffffffffffffffffffffffffffffffffff168173ffffffffffffffffffffffffffffffffffffffff161461061f576040517f64283d7b00000000000000000000000000000000000000000000000000000000815273ffffffffffffffffffffffffffffffffffffffff8086166004830152602482018490528216604482015260640161057b565b50505050565b610640838383604051806020016040528060008152506108ca565b505050565b6000610452826109c6565b61068f6040518060400160405280601181526020017f3d3d3d3d3d3d3d3d3d62656c696576657200000000000000000000000000000081525030610baf565b610400600654106106fc576040517f08c379a000000000000000000000000000000000000000000000000000000000815260206004820152601660248201527f4d6178696d756d20737570706c79207265616368656400000000000000000000604482015260640161057b565b610704610956565b82101561076d576040517f08c379a000000000000000000000000000000000000000000000000000000000815260206004820152601460248201527f496e73756666696369656e74207061796d656e74000000000000000000000000604482015260640161057b565b61077981600654610c40565b60068054906000610789836118f1565b91905055505050565b6104006107af67016345785d8a00006729a2241af62c0000611929565b6107b9919061193c565b81565b600073ffffffffffffffffffffffffffffffffffffffff821661080e576040517f89c62b640000000000000000000000000000000000000000000000000000000081526000600482015260240161057b565b5073ffffffffffffffffffffffffffffffffffffffff1660009081526003602052604090205490565b6060600180546104679061186f565b61052b338383610c5a565b6108836040518060a0016040528060008152602001600081526020016000815260200160008152602001600081525090565b6040518060a00160405280610400815260200160065481526020016108a6610956565b815260200167016345785d8a000081526020016729a2241af62c0000815250905090565b6108d584848461052f565b61061f84848484610d57565b60606108ec826109c6565b50600061090460408051602081019091526000815290565b90506000815111610924576040518060200160405280600081525061094f565b8061092e84610f4e565b60405160200161093f929190611977565b6040516020818303038152906040525b9392505050565b60008061040061097667016345785d8a00006729a2241af62c0000611929565b610980919061193c565b60065461098d91906119a6565b61099f9067016345785d8a00006119bd565b90506729a2241af62c000081116109b657806109c0565b6729a2241af62c00005b91505090565b60008181526002602052604081205473ffffffffffffffffffffffffffffffffffffffff1680610452576040517f7e2732890000000000000000000000000000000000000000000000000000000081526004810184905260240161057b565b610640838383600161100c565b60008281526002602052604081205473ffffffffffffffffffffffffffffffffffffffff90811690831615610a6c57610a6c8184866111d7565b73ffffffffffffffffffffffffffffffffffffffff811615610ae257610a9660008560008061100c565b73ffffffffffffffffffffffffffffffffffffffff8116600090815260036020526040902080547fffffffffffffffffffffffffffffffffffffffffffffffffffffffffffffffff0190555b73ffffffffffffffffffffffffffffffffffffffff851615610b2b5773ffffffffffffffffffffffffffffffffffffffff85166000908152600360205260409020805460010190555b60008481526002602052604080822080547fffffffffffffffffffffffff00000000000000000000000000000000000000001673ffffffffffffffffffffffffffffffffffffffff89811691821790925591518793918516917fddf252ad1be2c89b69c2b068fc378daa952ba7f163c4a11628f55a4df523b3ef91a4949350505050565b61052b8282604051602401610bc59291906119d0565b604080517fffffffffffffffffffffffffffffffffffffffffffffffffffffffffffffffe08184030181529190526020810180517bffffffffffffffffffffffffffffffffffffffffffffffffffffffff167f319af33300000000000000000000000000000000000000000000000000000000179052611287565b61052b828260405180602001604052806000815250611293565b73ffffffffffffffffffffffffffffffffffffffff8216610cbf576040517f5b08ba1800000000000000000000000000000000000000000000000000000000815273ffffffffffffffffffffffffffffffffffffffff8316600482015260240161057b565b73ffffffffffffffffffffffffffffffffffffffff83811660008181526005602090815260408083209487168084529482529182902080547fffffffffffffffffffffffffffffffffffffffffffffffffffffffffffffff001686151590811790915591519182527f17307eab39ab6107e8899845ad3d59bd9653f200f220920489ca2b5937696c31910160405180910390a3505050565b73ffffffffffffffffffffffffffffffffffffffff83163b1561061f576040517f150b7a0200000000000000000000000000000000000000000000000000000000815273ffffffffffffffffffffffffffffffffffffffff84169063150b7a0290610dcc903390889087908790600401611a08565b6020604051808303816000875af1925050508015610e25575060408051601f3d9081017fffffffffffffffffffffffffffffffffffffffffffffffffffffffffffffffe0168201909252610e2291810190611a51565b60015b610eb4573d808015610e53576040519150601f19603f3d011682016040523d82523d6000602084013e610e58565b606091505b508051600003610eac576040517f64a0ae9200000000000000000000000000000000000000000000000000000000815273ffffffffffffffffffffffffffffffffffffffff8516600482015260240161057b565b805181602001fd5b7fffffffff0000000000000000000000000000000000000000000000000000000081167f150b7a020000000000000000000000000000000000000000000000000000000014610f47576040517f64a0ae9200000000000000000000000000000000000000000000000000000000815273ffffffffffffffffffffffffffffffffffffffff8516600482015260240161057b565b5050505050565b60606000610f5b836112aa565b600101905060008167ffffffffffffffff811115610f7b57610f7b61171c565b6040519080825280601f01601f191660200182016040528015610fa5576020820181803683370190505b5090508181016020015b7fffffffffffffffffffffffffffffffffffffffffffffffffffffffffffffffff017f3031323334353637383961626364656600000000000000000000000000000000600a86061a8153600a8504945084610faf57509392505050565b808061102d575073ffffffffffffffffffffffffffffffffffffffff821615155b1561118257600061103d846109c6565b905073ffffffffffffffffffffffffffffffffffffffff83161580159061109057508273ffffffffffffffffffffffffffffffffffffffff168173ffffffffffffffffffffffffffffffffffffffff1614155b80156110cf575073ffffffffffffffffffffffffffffffffffffffff80821660009081526005602090815260408083209387168352929052205460ff16155b1561111e576040517fa9fbf51f00000000000000000000000000000000000000000000000000000000815273ffffffffffffffffffffffffffffffffffffffff8416600482015260240161057b565b811561118057838573ffffffffffffffffffffffffffffffffffffffff168273ffffffffffffffffffffffffffffffffffffffff167f8c5be1e5ebec7d5bd14f71427d1e84f3dd0314c0f7b2291e5b200ac8c7c3b92560405160405180910390a45b505b5050600090815260046020526040902080547fffffffffffffffffffffffff00000000000000000000000000000000000000001673ffffffffffffffffffffffffffffffffffffffff92909216919091179055565b6111e283838361138c565b6106405773ffffffffffffffffffffffffffffffffffffffff8316611236576040517f7e2732890000000000000000000000000000000000000000000000000000000081526004810182905260240161057b565b6040517f177e802f00000000000000000000000000000000000000000000000000000000815273ffffffffffffffffffffffffffffffffffffffff831660048201526024810182905260440161057b565b61129081611453565b50565b61129d8383611474565b6106406000848484610d57565b6000807a184f03e93ff9f4daa797ed6e38ed64bf6a1f01000000000000000083106112f3577a184f03e93ff9f4daa797ed6e38ed64bf6a1f010000000000000000830492506040015b6d04ee2d6d415b85acef8100000000831061131f576d04ee2d6d415b85acef8100000000830492506020015b662386f26fc10000831061133d57662386f26fc10000830492506010015b6305f5e1008310611355576305f5e100830492506008015b612710831061136957612710830492506004015b6064831061137b576064830492506002015b600a83106104525760010192915050565b600073ffffffffffffffffffffffffffffffffffffffff83161580159061144b57508273ffffffffffffffffffffffffffffffffffffffff168473ffffffffffffffffffffffffffffffffffffffff16148061141a575073ffffffffffffffffffffffffffffffffffffffff80851660009081526005602090815260408083209387168352929052205460ff165b8061144b575060008281526004602052604090205473ffffffffffffffffffffffffffffffffffffffff8481169116145b949350505050565b60006a636f6e736f6c652e6c6f679050600080835160208501845afa505050565b73ffffffffffffffffffffffffffffffffffffffff82166114c4576040517f64a0ae920000000000000000000000000000000000000000000000000000000081526000600482015260240161057b565b60006114d283836000610a32565b905073ffffffffffffffffffffffffffffffffffffffff811615610640576040517f73c6ac6e0000000000000000000000000000000000000000000000000000000081526000600482015260240161057b565b7fffffffff000000000000000000000000000000000000000000000000000000008116811461129057600080fd5b60006020828403121561156557600080fd5b813561094f81611525565b60005b8381101561158b578181015183820152602001611573565b50506000910152565b600081518084526115ac816020860160208601611570565b601f017fffffffffffffffffffffffffffffffffffffffffffffffffffffffffffffffe0169290920160200192915050565b60208152600061094f6020830184611594565b60006020828403121561160357600080fd5b5035919050565b803573ffffffffffffffffffffffffffffffffffffffff8116811461162e57600080fd5b919050565b6000806040838503121561164657600080fd5b61164f8361160a565b946020939093013593505050565b60008060006060848603121561167257600080fd5b61167b8461160a565b92506116896020850161160a565b9150604084013590509250925092565b600080604083850312156116ac57600080fd5b823591506116bc6020840161160a565b90509250929050565b6000602082840312156116d757600080fd5b61094f8261160a565b600080604083850312156116f357600080fd5b6116fc8361160a565b91506020830135801515811461171157600080fd5b809150509250929050565b7f4e487b7100000000000000000000000000000000000000000000000000000000600052604160045260246000fd5b6000806000806080858703121561176157600080fd5b61176a8561160a565b93506117786020860161160a565b925060408501359150606085013567ffffffffffffffff8082111561179c57600080fd5b818701915087601f8301126117b057600080fd5b8135818111156117c2576117c261171c565b604051601f82017fffffffffffffffffffffffffffffffffffffffffffffffffffffffffffffffe0908116603f011681019083821181831017156118085761180861171c565b816040528281528a602084870101111561182157600080fd5b82602086016020830137600060208483010152809550505050505092959194509250565b6000806040838503121561185857600080fd5b6118618361160a565b91506116bc6020840161160a565b600181811c9082168061188357607f821691505b6020821081036118bc577f4e487b7100000000000000000000000000000000000000000000000000000000600052602260045260246000fd5b50919050565b7f4e487b7100000000000000000000000000000000000000000000000000000000600052601160045260246000fd5b60007fffffffffffffffffffffffffffffffffffffffffffffffffffffffffffffffff8203611922576119226118c2565b5060010190565b81810381811115610452576104526118c2565b600082611972577f4e487b7100000000000000000000000000000000000000000000000000000000600052601260045260246000fd5b500490565b60008351611989818460208801611570565b83519083019061199d818360208801611570565b01949350505050565b8082028115828204841417610452576104526118c2565b80820180821115610452576104526118c2565b6040815260006119e36040830185611594565b905073ffffffffffffffffffffffffffffffffffffffff831660208301529392505050565b600073ffffffffffffffffffffffffffffffffffffffff808716835280861660208401525083604083015260806060830152611a476080830184611594565b9695505050505050565b600060208284031215611a6357600080fd5b815161094f8161152556fea2646970667358221220d617d253ffe000abca76ca2fef51bb999f9386933cff49f1a01a43557729c5b364736f6c63430008140033",
  "libraries": {},
  "devdoc": {
    "errors": {
      "ERC721IncorrectOwner(address,uint256,address)": [
        {
          "details": "Indicates an error related to the ownership over a particular token. Used in transfers.",
          "params": {
            "owner": "Address of the current owner of a token.",
            "sender": "Address whose tokens are being transferred.",
            "tokenId": "Identifier number of a token."
          }
        }
      ],
      "ERC721InsufficientApproval(address,uint256)": [
        {
          "details": "Indicates a failure with the `operator`s approval. Used in transfers.",
          "params": {
            "operator": "Address that may be allowed to operate on tokens without being their owner.",
            "tokenId": "Identifier number of a token."
          }
        }
      ],
      "ERC721InvalidApprover(address)": [
        {
          "details": "Indicates a failure with the `approver` of a token to be approved. Used in approvals.",
          "params": {
            "approver": "Address initiating an approval operation."
          }
        }
      ],
      "ERC721InvalidOperator(address)": [
        {
          "details": "Indicates a failure with the `operator` to be approved. Used in approvals.",
          "params": {
            "operator": "Address that may be allowed to operate on tokens without being their owner."
          }
        }
      ],
      "ERC721InvalidOwner(address)": [
        {
          "details": "Indicates that an address can't be an owner. For example, `address(0)` is a forbidden owner in EIP-20. Used in balance queries.",
          "params": {
            "owner": "Address of the current owner of a token."
          }
        }
      ],
      "ERC721InvalidReceiver(address)": [
        {
          "details": "Indicates a failure with the token `receiver`. Used in transfers.",
          "params": {
            "receiver": "Address to which tokens are being transferred."
          }
        }
      ],
      "ERC721InvalidSender(address)": [
        {
          "details": "Indicates a failure with the token `sender`. Used in transfers.",
          "params": {
            "sender": "Address whose tokens are being transferred."
          }
        }
      ],
      "ERC721NonexistentToken(uint256)": [
        {
          "details": "Indicates a `tokenId` whose `owner` is the zero address.",
          "params": {
            "tokenId": "Identifier number of a token."
          }
        }
      ]
    },
    "events": {
      "Approval(address,address,uint256)": {
        "details": "Emitted when `owner` enables `approved` to manage the `tokenId` token."
      },
      "ApprovalForAll(address,address,bool)": {
        "details": "Emitted when `owner` enables or disables (`approved`) `operator` to manage all of its assets."
      },
      "Transfer(address,address,uint256)": {
        "details": "Emitted when `tokenId` token is transferred from `from` to `to`."
      }
    },
    "kind": "dev",
    "methods": {
      "approve(address,uint256)": {
        "details": "See {IERC721-approve}."
      },
      "balanceOf(address)": {
        "details": "See {IERC721-balanceOf}."
      },
      "getApproved(uint256)": {
        "details": "See {IERC721-getApproved}."
      },
      "isApprovedForAll(address,address)": {
        "details": "See {IERC721-isApprovedForAll}."
      },
      "name()": {
        "details": "See {IERC721Metadata-name}."
      },
      "ownerOf(uint256)": {
        "details": "See {IERC721-ownerOf}."
      },
      "safeTransferFrom(address,address,uint256)": {
        "details": "See {IERC721-safeTransferFrom}."
      },
      "safeTransferFrom(address,address,uint256,bytes)": {
        "details": "See {IERC721-safeTransferFrom}."
      },
      "setApprovalForAll(address,bool)": {
        "details": "See {IERC721-setApprovalForAll}."
      },
      "supportsInterface(bytes4)": {
        "details": "See {IERC165-supportsInterface}."
      },
      "symbol()": {
        "details": "See {IERC721Metadata-symbol}."
      },
      "tokenURI(uint256)": {
        "details": "See {IERC721Metadata-tokenURI}."
      },
      "transferFrom(address,address,uint256)": {
        "details": "See {IERC721-transferFrom}."
      }
    },
    "version": 1
  },
  "userdoc": {
    "kind": "user",
    "methods": {},
    "version": 1
  },
  "storageLayout": {
    "storage": [
      {
        "astId": 1820,
        "contract": "contracts/tokens/Believer.sol:Believer",
        "label": "_name",
        "offset": 0,
        "slot": "0",
        "type": "t_string_storage"
      },
      {
        "astId": 1822,
        "contract": "contracts/tokens/Believer.sol:Believer",
        "label": "_symbol",
        "offset": 0,
        "slot": "1",
        "type": "t_string_storage"
      },
      {
        "astId": 1826,
        "contract": "contracts/tokens/Believer.sol:Believer",
        "label": "_owners",
        "offset": 0,
        "slot": "2",
        "type": "t_mapping(t_uint256,t_address)"
      },
      {
        "astId": 1830,
        "contract": "contracts/tokens/Believer.sol:Believer",
        "label": "_balances",
        "offset": 0,
        "slot": "3",
        "type": "t_mapping(t_address,t_uint256)"
      },
      {
        "astId": 1834,
        "contract": "contracts/tokens/Believer.sol:Believer",
        "label": "_tokenApprovals",
        "offset": 0,
        "slot": "4",
        "type": "t_mapping(t_uint256,t_address)"
      },
      {
        "astId": 1840,
        "contract": "contracts/tokens/Believer.sol:Believer",
        "label": "_operatorApprovals",
        "offset": 0,
        "slot": "5",
        "type": "t_mapping(t_address,t_mapping(t_address,t_bool))"
      },
      {
        "astId": 8030,
        "contract": "contracts/tokens/Believer.sol:Believer",
        "label": "currentSupply",
        "offset": 0,
        "slot": "6",
        "type": "t_uint256"
      }
    ],
    "types": {
      "t_address": {
        "encoding": "inplace",
        "label": "address",
        "numberOfBytes": "20"
      },
      "t_bool": {
        "encoding": "inplace",
        "label": "bool",
        "numberOfBytes": "1"
      },
      "t_mapping(t_address,t_bool)": {
        "encoding": "mapping",
        "key": "t_address",
        "label": "mapping(address => bool)",
        "numberOfBytes": "32",
        "value": "t_bool"
      },
      "t_mapping(t_address,t_mapping(t_address,t_bool))": {
        "encoding": "mapping",
        "key": "t_address",
        "label": "mapping(address => mapping(address => bool))",
        "numberOfBytes": "32",
        "value": "t_mapping(t_address,t_bool)"
      },
      "t_mapping(t_address,t_uint256)": {
        "encoding": "mapping",
        "key": "t_address",
        "label": "mapping(address => uint256)",
        "numberOfBytes": "32",
        "value": "t_uint256"
      },
      "t_mapping(t_uint256,t_address)": {
        "encoding": "mapping",
        "key": "t_uint256",
        "label": "mapping(uint256 => address)",
        "numberOfBytes": "32",
        "value": "t_address"
      },
      "t_string_storage": {
        "encoding": "bytes",
        "label": "string",
        "numberOfBytes": "32"
      },
      "t_uint256": {
        "encoding": "inplace",
        "label": "uint256",
        "numberOfBytes": "32"
      }
    }
  }
}