{
  "address": "0xBf295b12A13a733EEc80e6D3ABc27f1bBF289Cfb",
  "abi": [
    {
      "inputs": [
        {
          "internalType": "contract DaoVault",
          "name": "_daoVault",
          "type": "address"
        }
      ],
      "stateMutability": "nonpayable",
      "type": "constructor"
    },
    {
      "inputs": [
        {
          "internalType": "address",
          "name": "account",
          "type": "address"
        },
        {
          "internalType": "string",
          "name": "code",
          "type": "string"
        }
      ],
      "name": "CannotUseOwnCode",
      "type": "error"
    },
    {
      "inputs": [
        {
          "internalType": "address",
          "name": "sender",
          "type": "address"
        },
        {
          "internalType": "uint256",
          "name": "tokenId",
          "type": "uint256"
        },
        {
          "internalType": "address",
          "name": "owner",
          "type": "address"
        }
      ],
      "name": "ERC721IncorrectOwner",
      "type": "error"
    },
    {
      "inputs": [
        {
          "internalType": "address",
          "name": "operator",
          "type": "address"
        },
        {
          "internalType": "uint256",
          "name": "tokenId",
          "type": "uint256"
        }
      ],
      "name": "ERC721InsufficientApproval",
      "type": "error"
    },
    {
      "inputs": [
        {
          "internalType": "address",
          "name": "approver",
          "type": "address"
        }
      ],
      "name": "ERC721InvalidApprover",
      "type": "error"
    },
    {
      "inputs": [
        {
          "internalType": "address",
          "name": "operator",
          "type": "address"
        }
      ],
      "name": "ERC721InvalidOperator",
      "type": "error"
    },
    {
      "inputs": [
        {
          "internalType": "address",
          "name": "owner",
          "type": "address"
        }
      ],
      "name": "ERC721InvalidOwner",
      "type": "error"
    },
    {
      "inputs": [
        {
          "internalType": "address",
          "name": "receiver",
          "type": "address"
        }
      ],
      "name": "ERC721InvalidReceiver",
      "type": "error"
    },
    {
      "inputs": [
        {
          "internalType": "address",
          "name": "sender",
          "type": "address"
        }
      ],
      "name": "ERC721InvalidSender",
      "type": "error"
    },
    {
      "inputs": [
        {
          "internalType": "uint256",
          "name": "tokenId",
          "type": "uint256"
        }
      ],
      "name": "ERC721NonexistentToken",
      "type": "error"
    },
    {
      "inputs": [
        {
          "internalType": "address",
          "name": "account",
          "type": "address"
        },
        {
          "internalType": "string",
          "name": "code",
          "type": "string"
        }
      ],
      "name": "ReferralCodeExisted",
      "type": "error"
    },
    {
      "anonymous": false,
      "inputs": [
        {
          "indexed": true,
          "internalType": "address",
          "name": "owner",
          "type": "address"
        },
        {
          "indexed": true,
          "internalType": "address",
          "name": "approved",
          "type": "address"
        },
        {
          "indexed": true,
          "internalType": "uint256",
          "name": "tokenId",
          "type": "uint256"
        }
      ],
      "name": "Approval",
      "type": "event"
    },
    {
      "anonymous": false,
      "inputs": [
        {
          "indexed": true,
          "internalType": "address",
          "name": "owner",
          "type": "address"
        },
        {
          "indexed": true,
          "internalType": "address",
          "name": "operator",
          "type": "address"
        },
        {
          "indexed": false,
          "internalType": "bool",
          "name": "approved",
          "type": "bool"
        }
      ],
      "name": "ApprovalForAll",
      "type": "event"
    },
    {
      "anonymous": false,
      "inputs": [
        {
          "indexed": false,
          "internalType": "uint256",
          "name": "_fromTokenId",
          "type": "uint256"
        },
        {
          "indexed": false,
          "internalType": "uint256",
          "name": "_toTokenId",
          "type": "uint256"
        }
      ],
      "name": "BatchMetadataUpdate",
      "type": "event"
    },
    {
      "anonymous": false,
      "inputs": [
        {
          "indexed": false,
          "internalType": "uint256",
          "name": "_tokenId",
          "type": "uint256"
        }
      ],
      "name": "MetadataUpdate",
      "type": "event"
    },
    {
      "anonymous": false,
      "inputs": [
        {
          "indexed": true,
          "internalType": "address",
          "name": "owner",
          "type": "address"
        },
        {
          "indexed": true,
          "internalType": "uint256",
          "name": "tokenId",
          "type": "uint256"
        }
      ],
      "name": "NFTMinted",
      "type": "event"
    },
    {
      "anonymous": false,
      "inputs": [
        {
          "indexed": true,
          "internalType": "address",
          "name": "from",
          "type": "address"
        },
        {
          "indexed": true,
          "internalType": "address",
          "name": "to",
          "type": "address"
        },
        {
          "indexed": true,
          "internalType": "uint256",
          "name": "tokenId",
          "type": "uint256"
        }
      ],
      "name": "Transfer",
      "type": "event"
    },
    {
      "inputs": [
        {
          "internalType": "address",
          "name": "to",
          "type": "address"
        },
        {
          "internalType": "uint256",
          "name": "tokenId",
          "type": "uint256"
        }
      ],
      "name": "approve",
      "outputs": [],
      "stateMutability": "nonpayable",
      "type": "function"
    },
    {
      "inputs": [
        {
          "internalType": "address",
          "name": "owner",
          "type": "address"
        }
      ],
      "name": "balanceOf",
      "outputs": [
        {
          "internalType": "uint256",
          "name": "",
          "type": "uint256"
        }
      ],
      "stateMutability": "view",
      "type": "function"
    },
    {
      "inputs": [
        {
          "internalType": "uint256",
          "name": "tokenId",
          "type": "uint256"
        }
      ],
      "name": "getApproved",
      "outputs": [
        {
          "internalType": "address",
          "name": "",
          "type": "address"
        }
      ],
      "stateMutability": "view",
      "type": "function"
    },
    {
      "inputs": [],
      "name": "getCurrentPrice",
      "outputs": [
        {
          "internalType": "uint256",
          "name": "",
          "type": "uint256"
        }
      ],
      "stateMutability": "view",
      "type": "function"
    },
    {
      "inputs": [
        {
          "internalType": "address",
          "name": "account",
          "type": "address"
        }
      ],
      "name": "getReferralCode",
      "outputs": [
        {
          "internalType": "string",
          "name": "",
          "type": "string"
        }
      ],
      "stateMutability": "view",
      "type": "function"
    },
    {
      "inputs": [
        {
          "internalType": "address",
          "name": "account",
          "type": "address"
        }
      ],
      "name": "getReferrals",
      "outputs": [
        {
          "internalType": "address[]",
          "name": "",
          "type": "address[]"
        }
      ],
      "stateMutability": "view",
      "type": "function"
    },
    {
      "inputs": [
        {
          "internalType": "string",
          "name": "code",
          "type": "string"
        }
      ],
      "name": "getReferrer",
      "outputs": [
        {
          "internalType": "address",
          "name": "",
          "type": "address"
        }
      ],
      "stateMutability": "view",
      "type": "function"
    },
    {
      "inputs": [],
      "name": "getTokenInfo",
      "outputs": [
        {
          "components": [
            {
              "internalType": "uint256",
              "name": "maxSupply",
              "type": "uint256"
            },
            {
              "internalType": "uint256",
              "name": "currentSupply",
              "type": "uint256"
            },
            {
              "internalType": "uint256",
              "name": "currentPrice",
              "type": "uint256"
            },
            {
              "internalType": "uint256",
              "name": "minPrice",
              "type": "uint256"
            },
            {
              "internalType": "uint256",
              "name": "maxPrice",
              "type": "uint256"
            }
          ],
          "internalType": "struct BelieverNFT.BelieverNFTInfo",
          "name": "info",
          "type": "tuple"
        }
      ],
      "stateMutability": "view",
      "type": "function"
    },
    {
      "inputs": [
        {
          "internalType": "address",
          "name": "owner",
          "type": "address"
        },
        {
          "internalType": "address",
          "name": "operator",
          "type": "address"
        }
      ],
      "name": "isApprovedForAll",
      "outputs": [
        {
          "internalType": "bool",
          "name": "",
          "type": "bool"
        }
      ],
      "stateMutability": "view",
      "type": "function"
    },
    {
      "inputs": [
        {
          "internalType": "string",
          "name": "code",
          "type": "string"
        }
      ],
      "name": "mintNFT",
      "outputs": [],
      "stateMutability": "payable",
      "type": "function"
    },
    {
      "inputs": [],
      "name": "name",
      "outputs": [
        {
          "internalType": "string",
          "name": "",
          "type": "string"
        }
      ],
      "stateMutability": "view",
      "type": "function"
    },
    {
      "inputs": [
        {
          "internalType": "uint256",
          "name": "tokenId",
          "type": "uint256"
        }
      ],
      "name": "ownerOf",
      "outputs": [
        {
          "internalType": "address",
          "name": "",
          "type": "address"
        }
      ],
      "stateMutability": "view",
      "type": "function"
    },
    {
      "inputs": [
        {
          "internalType": "address",
          "name": "from",
          "type": "address"
        },
        {
          "internalType": "address",
          "name": "to",
          "type": "address"
        },
        {
          "internalType": "uint256",
          "name": "tokenId",
          "type": "uint256"
        }
      ],
      "name": "safeTransferFrom",
      "outputs": [],
      "stateMutability": "nonpayable",
      "type": "function"
    },
    {
      "inputs": [
        {
          "internalType": "address",
          "name": "from",
          "type": "address"
        },
        {
          "internalType": "address",
          "name": "to",
          "type": "address"
        },
        {
          "internalType": "uint256",
          "name": "tokenId",
          "type": "uint256"
        },
        {
          "internalType": "bytes",
          "name": "data",
          "type": "bytes"
        }
      ],
      "name": "safeTransferFrom",
      "outputs": [],
      "stateMutability": "nonpayable",
      "type": "function"
    },
    {
      "inputs": [
        {
          "internalType": "address",
          "name": "operator",
          "type": "address"
        },
        {
          "internalType": "bool",
          "name": "approved",
          "type": "bool"
        }
      ],
      "name": "setApprovalForAll",
      "outputs": [],
      "stateMutability": "nonpayable",
      "type": "function"
    },
    {
      "inputs": [
        {
          "internalType": "string",
          "name": "code",
          "type": "string"
        }
      ],
      "name": "setReferralCode",
      "outputs": [],
      "stateMutability": "nonpayable",
      "type": "function"
    },
    {
      "inputs": [
        {
          "internalType": "bytes4",
          "name": "interfaceId",
          "type": "bytes4"
        }
      ],
      "name": "supportsInterface",
      "outputs": [
        {
          "internalType": "bool",
          "name": "",
          "type": "bool"
        }
      ],
      "stateMutability": "view",
      "type": "function"
    },
    {
      "inputs": [],
      "name": "symbol",
      "outputs": [
        {
          "internalType": "string",
          "name": "",
          "type": "string"
        }
      ],
      "stateMutability": "view",
      "type": "function"
    },
    {
      "inputs": [
        {
          "internalType": "uint256",
          "name": "tokenId",
          "type": "uint256"
        }
      ],
      "name": "tokenURI",
      "outputs": [
        {
          "internalType": "string",
          "name": "",
          "type": "string"
        }
      ],
      "stateMutability": "view",
      "type": "function"
    },
    {
      "inputs": [
        {
          "internalType": "address",
          "name": "from",
          "type": "address"
        },
        {
          "internalType": "address",
          "name": "to",
          "type": "address"
        },
        {
          "internalType": "uint256",
          "name": "tokenId",
          "type": "uint256"
        }
      ],
      "name": "transferFrom",
      "outputs": [],
      "stateMutability": "nonpayable",
      "type": "function"
    }
  ],
  "transactionHash": "0xbab374076558ad17121b52f64b5ca18c536aefa3a651da133cfa3607bd8fcf43",
  "args": [
    "0x20f838eaDb268533B472d691257cDAC0D5d15568"
  ],
  "numDeployments": 1,
  "solcInputHash": "8fa25b2160750d63f371d19804dfbc7b",
  "bytecode": "0x60a060405260006007553480156200001657600080fd5b50604051620028c6380380620028c68339810160408190526200003991620000b4565b6040518060400160405280601181526020017014195b960810995b1a595d995c88139195607a1b81525060405180604001604052806003815260200162282c2160e91b81525081600090816200009091906200018b565b5060016200009f82826200018b565b5050506001600160a01b031660805262000257565b600060208284031215620000c757600080fd5b81516001600160a01b0381168114620000df57600080fd5b9392505050565b634e487b7160e01b600052604160045260246000fd5b600181811c908216806200011157607f821691505b6020821081036200013257634e487b7160e01b600052602260045260246000fd5b50919050565b601f8211156200018657600081815260208120601f850160051c81016020861015620001615750805b601f850160051c820191505b8181101562000182578281556001016200016d565b5050505b505050565b81516001600160401b03811115620001a757620001a7620000e6565b620001bf81620001b88454620000fc565b8462000138565b602080601f831160018114620001f75760008415620001de5750858301515b600019600386901b1c1916600185901b17855562000182565b600085815260208120601f198616915b82811015620002285788860151825594840194600190910190840162000207565b5085821015620002475787850151600019600388901b60f8161c191681555b5050505050600190811b01905550565b60805161264c6200027a60003960008181610dce0152610efa015261264c6000f3fe60806040526004361061015f5760003560e01c806392c40344116100c0578063b88d4fde11610074578063e985e9c511610059578063e985e9c514610409578063eb91d37e1461045f578063fb37e8831461047457600080fd5b8063b88d4fde146103c9578063c87b56dd146103e957600080fd5b80639b45b55a116100a55780639b45b55a14610332578063a22cb46514610352578063abb1dc441461037257600080fd5b806392c40344146102fd57806395d89b411461031d57600080fd5b806341a0894d116101175780636352211e116100fc5780636352211e1461028f57806370a08231146102af57806386ec3e3d146102dd57600080fd5b806341a0894d1461024257806342842e0e1461026f57600080fd5b8063081812fc11610148578063081812fc146101bb578063095ea7b31461020057806323b872dd1461022257600080fd5b806301ffc9a71461016457806306fdde0314610199575b600080fd5b34801561017057600080fd5b5061018461017f366004611d55565b610487565b60405190151581526020015b60405180910390f35b3480156101a557600080fd5b506101ae610498565b6040516101909190611de0565b3480156101c757600080fd5b506101db6101d6366004611df3565b61052a565b60405173ffffffffffffffffffffffffffffffffffffffff9091168152602001610190565b34801561020c57600080fd5b5061022061021b366004611e35565b610560565b005b34801561022e57600080fd5b5061022061023d366004611e5f565b61056f565b34801561024e57600080fd5b5061026261025d366004611e9b565b610665565b6040516101909190611eb6565b34801561027b57600080fd5b5061022061028a366004611e5f565b6107a3565b34801561029b57600080fd5b506101db6102aa366004611df3565b6107c3565b3480156102bb57600080fd5b506102cf6102ca366004611e9b565b6107ce565b604051908152602001610190565b3480156102e957600080fd5b506102206102f8366004611f10565b610849565b34801561030957600080fd5b506101ae610318366004611e9b565b6109c2565b34801561032957600080fd5b506101ae610a7b565b34801561033e57600080fd5b506101db61034d366004611f10565b610a8a565b34801561035e57600080fd5b5061022061036d366004611f82565b610acc565b34801561037e57600080fd5b50610387610ad7565b6040516101909190600060a082019050825182526020830151602083015260408301516040830152606083015160608301526080830151608083015292915050565b3480156103d557600080fd5b506102206103e4366004611fed565b610b50565b3480156103f557600080fd5b506101ae610404366004611df3565b610b67565b34801561041557600080fd5b506101846104243660046120e7565b73ffffffffffffffffffffffffffffffffffffffff918216600090815260056020908152604080832093909416825291909152205460ff1690565b34801561046b57600080fd5b506102cf610b72565b610220610482366004611f10565b610be2565b600061049282610f4e565b92915050565b6060600080546104a79061211a565b80601f01602080910402602001604051908101604052809291908181526020018280546104d39061211a565b80156105205780601f106104f557610100808354040283529160200191610520565b820191906000526020600020905b81548152906001019060200180831161050357829003601f168201915b5050505050905090565b600061053582610fa4565b5060008281526004602052604090205473ffffffffffffffffffffffffffffffffffffffff16610492565b61056b828233611003565b5050565b73ffffffffffffffffffffffffffffffffffffffff82166105c4576040517f64a0ae92000000000000000000000000000000000000000000000000000000008152600060048201526024015b60405180910390fd5b60006105d1838333611010565b90508373ffffffffffffffffffffffffffffffffffffffff168173ffffffffffffffffffffffffffffffffffffffff161461065f576040517f64283d7b00000000000000000000000000000000000000000000000000000000815273ffffffffffffffffffffffffffffffffffffffff808616600483015260248201849052821660448201526064016105bb565b50505050565b73ffffffffffffffffffffffffffffffffffffffff811660009081526008602052604081208054606092919061069a9061211a565b80601f01602080910402602001604051908101604052809291908181526020018280546106c69061211a565b80156107135780601f106106e857610100808354040283529160200191610713565b820191906000526020600020905b8154815290600101906020018083116106f657829003601f168201915b5050505050905060098160405161072a919061216d565b908152604080519182900360209081018320600101805480830285018301909352828452919083018282801561079657602002820191906000526020600020905b815473ffffffffffffffffffffffffffffffffffffffff16815260019091019060200180831161076b575b5050505050915050919050565b6107be83838360405180602001604052806000815250610b50565b505050565b600061049282610fa4565b600073ffffffffffffffffffffffffffffffffffffffff8216610820576040517f89c62b64000000000000000000000000000000000000000000000000000000008152600060048201526024016105bb565b5073ffffffffffffffffffffffffffffffffffffffff1660009081526003602052604090205490565b80600381116108da576040517f08c379a000000000000000000000000000000000000000000000000000000000815260206004820152602160248201527f436f6465206c656e6774682073686f756c642067726561746572207468656e2060448201527f330000000000000000000000000000000000000000000000000000000000000060648201526084016105bb565b60006108e68484610a8a565b905073ffffffffffffffffffffffffffffffffffffffff81161561093c573384846040517ffca855240000000000000000000000000000000000000000000000000000000081526004016105bb93929190612189565b336009858560405161094f9291906121f3565b908152604080516020928190038301902080547fffffffffffffffffffffffff00000000000000000000000000000000000000001673ffffffffffffffffffffffffffffffffffffffff94909416939093179092553360009081526008909152206109bb848683612249565b5050505050565b73ffffffffffffffffffffffffffffffffffffffff811660009081526008602052604090208054606091906109f69061211a565b80601f0160208091040260200160405190810160405280929190818152602001828054610a229061211a565b8015610a6f5780601f10610a4457610100808354040283529160200191610a6f565b820191906000526020600020905b815481529060010190602001808311610a5257829003601f168201915b50505050509050919050565b6060600180546104a79061211a565b600060098383604051610a9e9291906121f3565b9081526040519081900360200190205473ffffffffffffffffffffffffffffffffffffffff16905092915050565b61056b33838361118d565b610b096040518060a0016040528060008152602001600081526020016000815260200160008152602001600081525090565b6040518060a0016040528061040081526020016007548152602001610b2c610b72565b815260200167016345785d8a000081526020016729a2241af62c0000815250905090565b610b5b84848461056f565b61065f8484848461128a565b60606104928261147a565b600080610400610b9267016345785d8a00006729a2241af62c0000612392565b610b9c91906123a5565b600754610ba991906123e0565b610bbb9067016345785d8a00006123f7565b90506729a2241af62c00008111610bd25780610bdc565b6729a2241af62c00005b91505090565b61040060075410610c4f576040517f08c379a000000000000000000000000000000000000000000000000000000000815260206004820152601660248201527f4d6178696d756d20737570706c7920726561636865640000000000000000000060448201526064016105bb565b610c57610b72565b341015610cc0576040517f08c379a000000000000000000000000000000000000000000000000000000000815260206004820152601460248201527f496e73756666696369656e74207061796d656e7400000000000000000000000060448201526064016105bb565b60006007546001610cd191906123f7565b90506000610cde8261158b565b9050610cea33836115dc565b610cf482826115f6565b60078054906000610d048361240a565b91905055506000610d158585610a8a565b90503373ffffffffffffffffffffffffffffffffffffffff821603610d6c573385856040517f7a07610b0000000000000000000000000000000000000000000000000000000081526004016105bb93929190612189565b604051839033907f4cc0a9c4a99ddc700de1af2c9f916a7cbfdb71f14801ccff94061ad1ef8a804090600090a373ffffffffffffffffffffffffffffffffffffffff8116610e1e5760405173ffffffffffffffffffffffffffffffffffffffff7f000000000000000000000000000000000000000000000000000000000000000016903480156108fc02916000818181858888f19350505050158015610e16573d6000803e3d6000fd5b505050505050565b60006064610e2d600a346123e0565b610e3791906123a5565b905060006064610e48600a346123e0565b610e5291906123a5565b9050600081610e618434612392565b610e6b9190612392565b60405190915073ffffffffffffffffffffffffffffffffffffffff85169084156108fc029085906000818181858888f19350505050158015610eb1573d6000803e3d6000fd5b50604051339083156108fc029084906000818181858888f19350505050158015610edf573d6000803e3d6000fd5b5060405173ffffffffffffffffffffffffffffffffffffffff7f0000000000000000000000000000000000000000000000000000000000000000169082156108fc029083906000818181858888f19350505050158015610f43573d6000803e3d6000fd5b505050505050505050565b60007fffffffff0000000000000000000000000000000000000000000000000000000082167f49064906000000000000000000000000000000000000000000000000000000001480610492575061049282611646565b60008181526002602052604081205473ffffffffffffffffffffffffffffffffffffffff1680610492576040517f7e273289000000000000000000000000000000000000000000000000000000008152600481018490526024016105bb565b6107be8383836001611729565b60008281526002602052604081205473ffffffffffffffffffffffffffffffffffffffff9081169083161561104a5761104a8184866118f4565b73ffffffffffffffffffffffffffffffffffffffff8116156110c057611074600085600080611729565b73ffffffffffffffffffffffffffffffffffffffff8116600090815260036020526040902080547fffffffffffffffffffffffffffffffffffffffffffffffffffffffffffffffff0190555b73ffffffffffffffffffffffffffffffffffffffff8516156111095773ffffffffffffffffffffffffffffffffffffffff85166000908152600360205260409020805460010190555b60008481526002602052604080822080547fffffffffffffffffffffffff00000000000000000000000000000000000000001673ffffffffffffffffffffffffffffffffffffffff89811691821790925591518793918516917fddf252ad1be2c89b69c2b068fc378daa952ba7f163c4a11628f55a4df523b3ef91a4949350505050565b73ffffffffffffffffffffffffffffffffffffffff82166111f2576040517f5b08ba1800000000000000000000000000000000000000000000000000000000815273ffffffffffffffffffffffffffffffffffffffff831660048201526024016105bb565b73ffffffffffffffffffffffffffffffffffffffff83811660008181526005602090815260408083209487168084529482529182902080547fffffffffffffffffffffffffffffffffffffffffffffffffffffffffffffff001686151590811790915591519182527f17307eab39ab6107e8899845ad3d59bd9653f200f220920489ca2b5937696c31910160405180910390a3505050565b73ffffffffffffffffffffffffffffffffffffffff83163b1561065f576040517f150b7a0200000000000000000000000000000000000000000000000000000000815273ffffffffffffffffffffffffffffffffffffffff84169063150b7a02906112ff903390889087908790600401612442565b6020604051808303816000875af1925050508015611358575060408051601f3d9081017fffffffffffffffffffffffffffffffffffffffffffffffffffffffffffffffe01682019092526113559181019061248b565b60015b6113e7573d808015611386576040519150601f19603f3d011682016040523d82523d6000602084013e61138b565b606091505b5080516000036113df576040517f64a0ae9200000000000000000000000000000000000000000000000000000000815273ffffffffffffffffffffffffffffffffffffffff851660048201526024016105bb565b805181602001fd5b7fffffffff0000000000000000000000000000000000000000000000000000000081167f150b7a0200000000000000000000000000000000000000000000000000000000146109bb576040517f64a0ae9200000000000000000000000000000000000000000000000000000000815273ffffffffffffffffffffffffffffffffffffffff851660048201526024016105bb565b606061148582610fa4565b506000828152600660205260408120805461149f9061211a565b80601f01602080910402602001604051908101604052809291908181526020018280546114cb9061211a565b80156115185780601f106114ed57610100808354040283529160200191611518565b820191906000526020600020905b8154815290600101906020018083116114fb57829003601f168201915b50505050509050600061153660408051602081019091526000815290565b90508051600003611548575092915050565b81511561157a5780826040516020016115629291906124a8565b60405160208183030381529060405292505050919050565b611583846119a4565b949350505050565b606060006040518060600160405280602581526020016125f2602591399050806115b4846119f8565b6040516020016115c59291906124a8565b604051602081830303815290604052915050919050565b61056b828260405180602001604052806000815250611ab6565b600082815260066020526040902061160e82826124d7565b506040518281527ff8e1a15aba9398e019f0b49df1a4fde98ee17ae345cb5f6b5e2c27f5033e8ce79060200160405180910390a15050565b60007fffffffff0000000000000000000000000000000000000000000000000000000082167f80ac58cd0000000000000000000000000000000000000000000000000000000014806116d957507fffffffff0000000000000000000000000000000000000000000000000000000082167f5b5e139f00000000000000000000000000000000000000000000000000000000145b8061049257507f01ffc9a7000000000000000000000000000000000000000000000000000000007fffffffff00000000000000000000000000000000000000000000000000000000831614610492565b808061174a575073ffffffffffffffffffffffffffffffffffffffff821615155b1561189f57600061175a84610fa4565b905073ffffffffffffffffffffffffffffffffffffffff8316158015906117ad57508273ffffffffffffffffffffffffffffffffffffffff168173ffffffffffffffffffffffffffffffffffffffff1614155b80156117ec575073ffffffffffffffffffffffffffffffffffffffff80821660009081526005602090815260408083209387168352929052205460ff16155b1561183b576040517fa9fbf51f00000000000000000000000000000000000000000000000000000000815273ffffffffffffffffffffffffffffffffffffffff841660048201526024016105bb565b811561189d57838573ffffffffffffffffffffffffffffffffffffffff168273ffffffffffffffffffffffffffffffffffffffff167f8c5be1e5ebec7d5bd14f71427d1e84f3dd0314c0f7b2291e5b200ac8c7c3b92560405160405180910390a45b505b5050600090815260046020526040902080547fffffffffffffffffffffffff00000000000000000000000000000000000000001673ffffffffffffffffffffffffffffffffffffffff92909216919091179055565b6118ff838383611acd565b6107be5773ffffffffffffffffffffffffffffffffffffffff8316611953576040517f7e273289000000000000000000000000000000000000000000000000000000008152600481018290526024016105bb565b6040517f177e802f00000000000000000000000000000000000000000000000000000000815273ffffffffffffffffffffffffffffffffffffffff83166004820152602481018290526044016105bb565b60606119af82610fa4565b5060006119c760408051602081019091526000815290565b905060008151116119e757604051806020016040528060008152506119f1565b806115b4846119f8565b9392505050565b60606000611a0583611b91565b600101905060008167ffffffffffffffff811115611a2557611a25611fbe565b6040519080825280601f01601f191660200182016040528015611a4f576020820181803683370190505b5090508181016020015b7fffffffffffffffffffffffffffffffffffffffffffffffffffffffffffffffff017f3031323334353637383961626364656600000000000000000000000000000000600a86061a8153600a8504945084611a5957509392505050565b611ac08383611c73565b6107be600084848461128a565b600073ffffffffffffffffffffffffffffffffffffffff83161580159061158357508273ffffffffffffffffffffffffffffffffffffffff168473ffffffffffffffffffffffffffffffffffffffff161480611b5b575073ffffffffffffffffffffffffffffffffffffffff80851660009081526005602090815260408083209387168352929052205460ff165b8061158357505060009081526004602052604090205473ffffffffffffffffffffffffffffffffffffffff908116911614919050565b6000807a184f03e93ff9f4daa797ed6e38ed64bf6a1f0100000000000000008310611bda577a184f03e93ff9f4daa797ed6e38ed64bf6a1f010000000000000000830492506040015b6d04ee2d6d415b85acef81000000008310611c06576d04ee2d6d415b85acef8100000000830492506020015b662386f26fc100008310611c2457662386f26fc10000830492506010015b6305f5e1008310611c3c576305f5e100830492506008015b6127108310611c5057612710830492506004015b60648310611c62576064830492506002015b600a83106104925760010192915050565b73ffffffffffffffffffffffffffffffffffffffff8216611cc3576040517f64a0ae92000000000000000000000000000000000000000000000000000000008152600060048201526024016105bb565b6000611cd183836000611010565b905073ffffffffffffffffffffffffffffffffffffffff8116156107be576040517f73c6ac6e000000000000000000000000000000000000000000000000000000008152600060048201526024016105bb565b7fffffffff0000000000000000000000000000000000000000000000000000000081168114611d5257600080fd5b50565b600060208284031215611d6757600080fd5b81356119f181611d24565b60005b83811015611d8d578181015183820152602001611d75565b50506000910152565b60008151808452611dae816020860160208601611d72565b601f017fffffffffffffffffffffffffffffffffffffffffffffffffffffffffffffffe0169290920160200192915050565b6020815260006119f16020830184611d96565b600060208284031215611e0557600080fd5b5035919050565b803573ffffffffffffffffffffffffffffffffffffffff81168114611e3057600080fd5b919050565b60008060408385031215611e4857600080fd5b611e5183611e0c565b946020939093013593505050565b600080600060608486031215611e7457600080fd5b611e7d84611e0c565b9250611e8b60208501611e0c565b9150604084013590509250925092565b600060208284031215611ead57600080fd5b6119f182611e0c565b6020808252825182820181905260009190848201906040850190845b81811015611f0457835173ffffffffffffffffffffffffffffffffffffffff1683529284019291840191600101611ed2565b50909695505050505050565b60008060208385031215611f2357600080fd5b823567ffffffffffffffff80821115611f3b57600080fd5b818501915085601f830112611f4f57600080fd5b813581811115611f5e57600080fd5b866020828501011115611f7057600080fd5b60209290920196919550909350505050565b60008060408385031215611f9557600080fd5b611f9e83611e0c565b915060208301358015158114611fb357600080fd5b809150509250929050565b7f4e487b7100000000000000000000000000000000000000000000000000000000600052604160045260246000fd5b6000806000806080858703121561200357600080fd5b61200c85611e0c565b935061201a60208601611e0c565b925060408501359150606085013567ffffffffffffffff8082111561203e57600080fd5b818701915087601f83011261205257600080fd5b81358181111561206457612064611fbe565b604051601f82017fffffffffffffffffffffffffffffffffffffffffffffffffffffffffffffffe0908116603f011681019083821181831017156120aa576120aa611fbe565b816040528281528a60208487010111156120c357600080fd5b82602086016020830137600060208483010152809550505050505092959194509250565b600080604083850312156120fa57600080fd5b61210383611e0c565b915061211160208401611e0c565b90509250929050565b600181811c9082168061212e57607f821691505b602082108103612167577f4e487b7100000000000000000000000000000000000000000000000000000000600052602260045260246000fd5b50919050565b6000825161217f818460208701611d72565b9190910192915050565b73ffffffffffffffffffffffffffffffffffffffff8416815260406020820152816040820152818360608301376000818301606090810191909152601f9092017fffffffffffffffffffffffffffffffffffffffffffffffffffffffffffffffe016010192915050565b8183823760009101908152919050565b601f8211156107be57600081815260208120601f850160051c8101602086101561222a5750805b601f850160051c820191505b81811015610e1657828155600101612236565b67ffffffffffffffff83111561226157612261611fbe565b6122758361226f835461211a565b83612203565b6000601f8411600181146122c757600085156122915750838201355b7fffffffffffffffffffffffffffffffffffffffffffffffffffffffffffffffff600387901b1c1916600186901b1783556109bb565b6000838152602090207fffffffffffffffffffffffffffffffffffffffffffffffffffffffffffffffe0861690835b8281101561231657868501358255602094850194600190920191016122f6565b5086821015612351577fffffffffffffffffffffffffffffffffffffffffffffffffffffffffffffffff60f88860031b161c19848701351681555b505060018560011b0183555050505050565b7f4e487b7100000000000000000000000000000000000000000000000000000000600052601160045260246000fd5b8181038181111561049257610492612363565b6000826123db577f4e487b7100000000000000000000000000000000000000000000000000000000600052601260045260246000fd5b500490565b808202811582820484141761049257610492612363565b8082018082111561049257610492612363565b60007fffffffffffffffffffffffffffffffffffffffffffffffffffffffffffffffff820361243b5761243b612363565b5060010190565b600073ffffffffffffffffffffffffffffffffffffffff8087168352808616602084015250836040830152608060608301526124816080830184611d96565b9695505050505050565b60006020828403121561249d57600080fd5b81516119f181611d24565b600083516124ba818460208801611d72565b8351908301906124ce818360208801611d72565b01949350505050565b815167ffffffffffffffff8111156124f1576124f1611fbe565b612505816124ff845461211a565b84612203565b602080601f83116001811461255857600084156125225750858301515b7fffffffffffffffffffffffffffffffffffffffffffffffffffffffffffffffff600386901b1c1916600185901b178555610e16565b6000858152602081207fffffffffffffffffffffffffffffffffffffffffffffffffffffffffffffffe08616915b828110156125a557888601518255948401946001909101908401612586565b50858210156125e157878501517fffffffffffffffffffffffffffffffffffffffffffffffffffffffffffffffff600388901b60f8161c191681555b5050505050600190811b0190555056fe68747470733a2f2f7777772e70656e782e696f2f6170692f62656c69657665722d6e66742fa2646970667358221220fa6688ff2e177bc73a0f8957f741576c49dc346f47ec38ac1869fe1b821b44c664736f6c63430008140033",
  "libraries": {},
  "devdoc": {
    "errors": {
      "ERC721IncorrectOwner(address,uint256,address)": [
        {
          "details": "Indicates an error related to the ownership over a particular token. Used in transfers.",
          "params": {
            "owner": "Address of the current owner of a token.",
            "sender": "Address whose tokens are being transferred.",
            "tokenId": "Identifier number of a token."
          }
        }
      ],
      "ERC721InsufficientApproval(address,uint256)": [
        {
          "details": "Indicates a failure with the `operator`s approval. Used in transfers.",
          "params": {
            "operator": "Address that may be allowed to operate on tokens without being their owner.",
            "tokenId": "Identifier number of a token."
          }
        }
      ],
      "ERC721InvalidApprover(address)": [
        {
          "details": "Indicates a failure with the `approver` of a token to be approved. Used in approvals.",
          "params": {
            "approver": "Address initiating an approval operation."
          }
        }
      ],
      "ERC721InvalidOperator(address)": [
        {
          "details": "Indicates a failure with the `operator` to be approved. Used in approvals.",
          "params": {
            "operator": "Address that may be allowed to operate on tokens without being their owner."
          }
        }
      ],
      "ERC721InvalidOwner(address)": [
        {
          "details": "Indicates that an address can't be an owner. For example, `address(0)` is a forbidden owner in EIP-20. Used in balance queries.",
          "params": {
            "owner": "Address of the current owner of a token."
          }
        }
      ],
      "ERC721InvalidReceiver(address)": [
        {
          "details": "Indicates a failure with the token `receiver`. Used in transfers.",
          "params": {
            "receiver": "Address to which tokens are being transferred."
          }
        }
      ],
      "ERC721InvalidSender(address)": [
        {
          "details": "Indicates a failure with the token `sender`. Used in transfers.",
          "params": {
            "sender": "Address whose tokens are being transferred."
          }
        }
      ],
      "ERC721NonexistentToken(uint256)": [
        {
          "details": "Indicates a `tokenId` whose `owner` is the zero address.",
          "params": {
            "tokenId": "Identifier number of a token."
          }
        }
      ]
    },
    "events": {
      "Approval(address,address,uint256)": {
        "details": "Emitted when `owner` enables `approved` to manage the `tokenId` token."
      },
      "ApprovalForAll(address,address,bool)": {
        "details": "Emitted when `owner` enables or disables (`approved`) `operator` to manage all of its assets."
      },
      "BatchMetadataUpdate(uint256,uint256)": {
        "details": "This event emits when the metadata of a range of tokens is changed. So that the third-party platforms such as NFT market could timely update the images and related attributes of the NFTs."
      },
      "MetadataUpdate(uint256)": {
        "details": "This event emits when the metadata of a token is changed. So that the third-party platforms such as NFT market could timely update the images and related attributes of the NFT."
      },
      "Transfer(address,address,uint256)": {
        "details": "Emitted when `tokenId` token is transferred from `from` to `to`."
      }
    },
    "kind": "dev",
    "methods": {
      "approve(address,uint256)": {
        "details": "See {IERC721-approve}."
      },
      "balanceOf(address)": {
        "details": "See {IERC721-balanceOf}."
      },
      "getApproved(uint256)": {
        "details": "See {IERC721-getApproved}."
      },
      "isApprovedForAll(address,address)": {
        "details": "See {IERC721-isApprovedForAll}."
      },
      "name()": {
        "details": "See {IERC721Metadata-name}."
      },
      "ownerOf(uint256)": {
        "details": "See {IERC721-ownerOf}."
      },
      "safeTransferFrom(address,address,uint256)": {
        "details": "See {IERC721-safeTransferFrom}."
      },
      "safeTransferFrom(address,address,uint256,bytes)": {
        "details": "See {IERC721-safeTransferFrom}."
      },
      "setApprovalForAll(address,bool)": {
        "details": "See {IERC721-setApprovalForAll}."
      },
      "symbol()": {
        "details": "See {IERC721Metadata-symbol}."
      },
      "transferFrom(address,address,uint256)": {
        "details": "See {IERC721-transferFrom}."
      }
    },
    "version": 1
  },
  "userdoc": {
    "kind": "user",
    "methods": {},
    "version": 1
  },
  "storageLayout": {
    "storage": [
      {
        "astId": 1132,
        "contract": "contracts/tokens/BelieverNFT.sol:BelieverNFT",
        "label": "_name",
        "offset": 0,
        "slot": "0",
        "type": "t_string_storage"
      },
      {
        "astId": 1134,
        "contract": "contracts/tokens/BelieverNFT.sol:BelieverNFT",
        "label": "_symbol",
        "offset": 0,
        "slot": "1",
        "type": "t_string_storage"
      },
      {
        "astId": 1138,
        "contract": "contracts/tokens/BelieverNFT.sol:BelieverNFT",
        "label": "_owners",
        "offset": 0,
        "slot": "2",
        "type": "t_mapping(t_uint256,t_address)"
      },
      {
        "astId": 1142,
        "contract": "contracts/tokens/BelieverNFT.sol:BelieverNFT",
        "label": "_balances",
        "offset": 0,
        "slot": "3",
        "type": "t_mapping(t_address,t_uint256)"
      },
      {
        "astId": 1146,
        "contract": "contracts/tokens/BelieverNFT.sol:BelieverNFT",
        "label": "_tokenApprovals",
        "offset": 0,
        "slot": "4",
        "type": "t_mapping(t_uint256,t_address)"
      },
      {
        "astId": 1152,
        "contract": "contracts/tokens/BelieverNFT.sol:BelieverNFT",
        "label": "_operatorApprovals",
        "offset": 0,
        "slot": "5",
        "type": "t_mapping(t_address,t_mapping(t_address,t_bool))"
      },
      {
        "astId": 2271,
        "contract": "contracts/tokens/BelieverNFT.sol:BelieverNFT",
        "label": "_tokenURIs",
        "offset": 0,
        "slot": "6",
        "type": "t_mapping(t_uint256,t_string_storage)"
      },
      {
        "astId": 4951,
        "contract": "contracts/tokens/BelieverNFT.sol:BelieverNFT",
        "label": "currentSupply",
        "offset": 0,
        "slot": "7",
        "type": "t_uint256"
      },
      {
        "astId": 4961,
        "contract": "contracts/tokens/BelieverNFT.sol:BelieverNFT",
        "label": "codes",
        "offset": 0,
        "slot": "8",
        "type": "t_mapping(t_address,t_string_storage)"
      },
      {
        "astId": 4966,
        "contract": "contracts/tokens/BelieverNFT.sol:BelieverNFT",
        "label": "users",
        "offset": 0,
        "slot": "9",
        "type": "t_mapping(t_string_memory_ptr,t_struct(User)4972_storage)"
      }
    ],
    "types": {
      "t_address": {
        "encoding": "inplace",
        "label": "address",
        "numberOfBytes": "20"
      },
      "t_array(t_address)dyn_storage": {
        "base": "t_address",
        "encoding": "dynamic_array",
        "label": "address[]",
        "numberOfBytes": "32"
      },
      "t_bool": {
        "encoding": "inplace",
        "label": "bool",
        "numberOfBytes": "1"
      },
      "t_mapping(t_address,t_bool)": {
        "encoding": "mapping",
        "key": "t_address",
        "label": "mapping(address => bool)",
        "numberOfBytes": "32",
        "value": "t_bool"
      },
      "t_mapping(t_address,t_mapping(t_address,t_bool))": {
        "encoding": "mapping",
        "key": "t_address",
        "label": "mapping(address => mapping(address => bool))",
        "numberOfBytes": "32",
        "value": "t_mapping(t_address,t_bool)"
      },
      "t_mapping(t_address,t_string_storage)": {
        "encoding": "mapping",
        "key": "t_address",
        "label": "mapping(address => string)",
        "numberOfBytes": "32",
        "value": "t_string_storage"
      },
      "t_mapping(t_address,t_uint256)": {
        "encoding": "mapping",
        "key": "t_address",
        "label": "mapping(address => uint256)",
        "numberOfBytes": "32",
        "value": "t_uint256"
      },
      "t_mapping(t_string_memory_ptr,t_struct(User)4972_storage)": {
        "encoding": "mapping",
        "key": "t_string_memory_ptr",
        "label": "mapping(string => struct BelieverNFT.User)",
        "numberOfBytes": "32",
        "value": "t_struct(User)4972_storage"
      },
      "t_mapping(t_uint256,t_address)": {
        "encoding": "mapping",
        "key": "t_uint256",
        "label": "mapping(uint256 => address)",
        "numberOfBytes": "32",
        "value": "t_address"
      },
      "t_mapping(t_uint256,t_string_storage)": {
        "encoding": "mapping",
        "key": "t_uint256",
        "label": "mapping(uint256 => string)",
        "numberOfBytes": "32",
        "value": "t_string_storage"
      },
      "t_string_memory_ptr": {
        "encoding": "bytes",
        "label": "string",
        "numberOfBytes": "32"
      },
      "t_string_storage": {
        "encoding": "bytes",
        "label": "string",
        "numberOfBytes": "32"
      },
      "t_struct(User)4972_storage": {
        "encoding": "inplace",
        "label": "struct BelieverNFT.User",
        "members": [
          {
            "astId": 4968,
            "contract": "contracts/tokens/BelieverNFT.sol:BelieverNFT",
            "label": "referrer",
            "offset": 0,
            "slot": "0",
            "type": "t_address"
          },
          {
            "astId": 4971,
            "contract": "contracts/tokens/BelieverNFT.sol:BelieverNFT",
            "label": "referrals",
            "offset": 0,
            "slot": "1",
            "type": "t_array(t_address)dyn_storage"
          }
        ],
        "numberOfBytes": "64"
      },
      "t_uint256": {
        "encoding": "inplace",
        "label": "uint256",
        "numberOfBytes": "32"
      }
    }
  }
}