{
  "address": "0xCB2f6731312c7eB1BEba66C12cD9a687ceA2c395",
  "abi": [
    {
      "inputs": [
        {
          "internalType": "contract INK",
          "name": "_ink",
          "type": "address"
        }
      ],
      "stateMutability": "nonpayable",
      "type": "constructor"
    },
    {
      "anonymous": false,
      "inputs": [
        {
          "indexed": false,
          "internalType": "string",
          "name": "bountyId",
          "type": "string"
        },
        {
          "indexed": false,
          "internalType": "address",
          "name": "to",
          "type": "address"
        }
      ],
      "name": "ClaimRewardCreated",
      "type": "event"
    },
    {
      "anonymous": false,
      "inputs": [
        {
          "indexed": false,
          "internalType": "string",
          "name": "bountyId",
          "type": "string"
        }
      ],
      "name": "ClaimRewardFilled",
      "type": "event"
    },
    {
      "stateMutability": "payable",
      "type": "fallback"
    },
    {
      "inputs": [
        {
          "internalType": "string",
          "name": "bountyId",
          "type": "string"
        }
      ],
      "name": "createClaimReward",
      "outputs": [],
      "stateMutability": "payable",
      "type": "function"
    },
    {
      "inputs": [
        {
          "internalType": "string",
          "name": "bountyId",
          "type": "string"
        },
        {
          "internalType": "address payable",
          "name": "to",
          "type": "address"
        },
        {
          "components": [
            {
              "internalType": "address",
              "name": "token",
              "type": "address"
            },
            {
              "internalType": "uint256",
              "name": "amount",
              "type": "uint256"
            }
          ],
          "internalType": "struct BountyFacet.RewardParam[]",
          "name": "rewards",
          "type": "tuple[]"
        }
      ],
      "name": "executeClaimReward",
      "outputs": [],
      "stateMutability": "nonpayable",
      "type": "function"
    },
    {
      "stateMutability": "payable",
      "type": "receive"
    }
  ],
  "transactionHash": "0x60348f14d3809debbcbad48858276ea101974d6ad44de5c4d7f1741ad640088e",
  "args": [
    "0x20f838eaDb268533B472d691257cDAC0D5d15568"
  ],
  "numDeployments": 1,
  "solcInputHash": "ed8afa8bb322a3d5897e244c41ca23cf",
  "bytecode": "0x60a060405234801561001057600080fd5b50604051610a98380380610a9883398101604081905261002f91610040565b6001600160a01b0316608052610070565b60006020828403121561005257600080fd5b81516001600160a01b038116811461006957600080fd5b9392505050565b608051610a0d61008b60003960006101220152610a0d6000f3fe60806040526004361061002a5760003560e01c80637bbc525014610033578063e32100ce1461005357005b3661003157005b005b34801561003f57600080fd5b5061003161004e36600461068e565b610066565b610031610061366004610737565b6103b6565b6100a66040518060400160405280601981526020017f636c61696d3d3d3d3d3d3d3d3d3d3d3d626f756e747949643a000000000000008152508585610432565b60005b818110156103785760008383838181106100c5576100c5610774565b9050604002018036038101906100db91906107a3565b905061025d6040518060400160405280601281526020017f3d3d3d3d3d3d3d3d3d3d3d7265776172643a0000000000000000000000000000815250826000015183602001517f000000000000000000000000000000000000000000000000000000000000000073ffffffffffffffffffffffffffffffffffffffff166370a082313073ffffffffffffffffffffffffffffffffffffffff1663c9e296cb6040518163ffffffff1660e01b8152600401602060405180830381865afa1580156101a7573d6000803e3d6000fd5b505050506040513d601f19601f820116820180604052508101906101cb91906107fb565b6040517fffffffff0000000000000000000000000000000000000000000000000000000060e084901b16815273ffffffffffffffffffffffffffffffffffffffff9091166004820152602401602060405180830381865afa158015610234573d6000803e3d6000fd5b505050506040513d601f19601f82011682018060405250810190610258919061081f565b6104ca565b3073ffffffffffffffffffffffffffffffffffffffff166391e707596040518163ffffffff1660e01b8152600401602060405180830381865afa1580156102a8573d6000803e3d6000fd5b505050506040513d601f19601f820116820180604052508101906102cc91906107fb565b815160208301516040517ff5537ede00000000000000000000000000000000000000000000000000000000815273ffffffffffffffffffffffffffffffffffffffff92831660048201528883166024820152604481019190915291169063f5537ede90606401600060405180830381600087803b15801561034c57600080fd5b505af1158015610360573d6000803e3d6000fd5b5050505050808061037090610838565b9150506100a9565b507f71defe8b0c8db0a284bd9dd25af266200edc972cb77b0bad14fc5a52146f6fdf846040516103a891906108fb565b60405180910390a150505050565b6103f66040518060400160405280601481526020017f3d3d3d3d3d3d3d3d3d3d3d626f756e747949643a0000000000000000000000008152508233610432565b7f2ad4d47aae81c307faff44ce6d6c0d288a863234cdb1f9784151da11cd39a748813360405161042792919061090e565b60405180910390a150565b6104c583838360405160240161044a93929190610946565b604080517fffffffffffffffffffffffffffffffffffffffffffffffffffffffffffffffe08184030181529190526020810180517bffffffffffffffffffffffffffffffffffffffffffffffffffffffff167f95ed019500000000000000000000000000000000000000000000000000000000179052610565565b505050565b61055f848484846040516024016104e49493929190610992565b604080517fffffffffffffffffffffffffffffffffffffffffffffffffffffffffffffffe08184030181529190526020810180517bffffffffffffffffffffffffffffffffffffffffffffffffffffffff167ff8f51b1e00000000000000000000000000000000000000000000000000000000179052610565565b50505050565b61056e81610571565b50565b60006a636f6e736f6c652e6c6f679050600080835160208501845afa505050565b7f4e487b7100000000000000000000000000000000000000000000000000000000600052604160045260246000fd5b600082601f8301126105d257600080fd5b813567ffffffffffffffff808211156105ed576105ed610592565b604051601f83017fffffffffffffffffffffffffffffffffffffffffffffffffffffffffffffffe0908116603f0116810190828211818310171561063357610633610592565b8160405283815286602085880101111561064c57600080fd5b836020870160208301376000602085830101528094505050505092915050565b73ffffffffffffffffffffffffffffffffffffffff8116811461056e57600080fd5b600080600080606085870312156106a457600080fd5b843567ffffffffffffffff808211156106bc57600080fd5b6106c8888389016105c1565b9550602087013591506106da8261066c565b909350604086013590808211156106f057600080fd5b818701915087601f83011261070457600080fd5b81358181111561071357600080fd5b8860208260061b850101111561072857600080fd5b95989497505060200194505050565b60006020828403121561074957600080fd5b813567ffffffffffffffff81111561076057600080fd5b61076c848285016105c1565b949350505050565b7f4e487b7100000000000000000000000000000000000000000000000000000000600052603260045260246000fd5b6000604082840312156107b557600080fd5b6040516040810181811067ffffffffffffffff821117156107d8576107d8610592565b60405282356107e68161066c565b81526020928301359281019290925250919050565b60006020828403121561080d57600080fd5b81516108188161066c565b9392505050565b60006020828403121561083157600080fd5b5051919050565b60007fffffffffffffffffffffffffffffffffffffffffffffffffffffffffffffffff8203610890577f4e487b7100000000000000000000000000000000000000000000000000000000600052601160045260246000fd5b5060010190565b6000815180845260005b818110156108bd576020818501810151868301820152016108a1565b5060006020828601015260207fffffffffffffffffffffffffffffffffffffffffffffffffffffffffffffffe0601f83011685010191505092915050565b6020815260006108186020830184610897565b6040815260006109216040830185610897565b905073ffffffffffffffffffffffffffffffffffffffff831660208301529392505050565b6060815260006109596060830186610897565b828103602084015261096b8186610897565b91505073ffffffffffffffffffffffffffffffffffffffff83166040830152949350505050565b6080815260006109a56080830187610897565b73ffffffffffffffffffffffffffffffffffffffff95909516602083015250604081019290925260609091015291905056fea2646970667358221220163d852850cdc56160da3c18b54ef93f87e9c6c34931b50e28ea705f14701fb864736f6c63430008140033",
  "libraries": {},
  "devdoc": {
    "kind": "dev",
    "methods": {},
    "version": 1
  },
  "userdoc": {
    "kind": "user",
    "methods": {},
    "version": 1
  },
  "storageLayout": {
    "storage": [],
    "types": null
  }
}