{
  "address": "0x242bC77AEc79CbF4efdAc9353012B8b22cC66046",
  "abi": [
    {
      "inputs": [],
      "name": "BOUNTY_ID_KEY",
      "outputs": [
        {
          "internalType": "bytes32",
          "name": "",
          "type": "bytes32"
        }
      ],
      "stateMutability": "view",
      "type": "function"
    },
    {
      "inputs": [
        {
          "internalType": "uint256",
          "name": "requestId",
          "type": "uint256"
        }
      ],
      "name": "get",
      "outputs": [
        {
          "components": [
            {
              "internalType": "address",
              "name": "recipient",
              "type": "address"
            },
            {
              "internalType": "string",
              "name": "bountyId",
              "type": "string"
            }
          ],
          "internalType": "struct Bounty.Request",
          "name": "",
          "type": "tuple"
        }
      ],
      "stateMutability": "view",
      "type": "function"
    },
    {
      "inputs": [],
      "name": "getIds",
      "outputs": [
        {
          "internalType": "uint256[]",
          "name": "",
          "type": "uint256[]"
        }
      ],
      "stateMutability": "view",
      "type": "function"
    }
  ],
  "transactionHash": "0x9189179e9df017542750dd8947658d5b98283ba6ba356036f4e4b6aa35cc9935",
  "args": [],
  "numDeployments": 1,
  "solcInputHash": "78a09bb7889135aed4afa15359d0a635",
  "bytecode": "0x610b5561003a600b82828239805160001a60731461002d57634e487b7160e01b600052600060045260246000fd5b30600052607381538281f3fe730000000000000000000000000000000000000000301460806040526004361061007c5760003560e01c80639507d39a1161005a5780639507d39a146100d7578063a15ab08d146100f7578063fad6e1b21461011757600080fd5b80632b105663146100815780634cc822151461009f57806386d5c4be146100c1575b600080fd5b61008961013e565b6040516100969190610697565b60405180910390f35b8180156100ab57600080fd5b506100bf6100ba3660046106db565b61015b565b005b6100c96101bc565b604051908152602001610096565b6100ea6100e53660046106db565b61023c565b60405161009691906106f4565b81801561010357600080fd5b506100c96101123660046107b7565b610336565b6100c97f507364c391d0b268ac40f86b4939152c6207b339c33c25bacc779accdf347c8681565b6060600061014a6101bc565b905061015581610477565b91505090565b60006101656101bc565b9050610171818361048b565b506000828152600282016020526040812080547fffffffffffffffffffffffff0000000000000000000000000000000000000000168155906101b66001830182610641565b50505050565b6000806040516020016102009060208082526016908201527f70656e782e696f2e73746f726167652e626f756e747900000000000000000000604082015260600190565b604080517fffffffffffffffffffffffffffffffffffffffffffffffffffffffffffffffe0818403018152919052805160209091012092915050565b604080518082019091526000815260606020820152600061025b6101bc565b60008481526002820160209081526040918290208251808401909352805473ffffffffffffffffffffffffffffffffffffffff1683526001810180549495509293909291840191906102ac906108b2565b80601f01602080910402602001604051908101604052809291908181526020018280546102d8906108b2565b80156103255780601f106102fa57610100808354040283529160200191610325565b820191906000526020600020905b81548152906001019060200180831161030857829003601f168201915b505050505081525050915050919050565b6000806103416101bc565b6040517f204c72520000000000000000000000000000000000000000000000000000000081527f507364c391d0b268ac40f86b4939152c6207b339c33c25bacc779accdf347c8660048201529091506000907379d3Be15Fb5fe09dD092c288FbA0c083f3Cc80209063204c725290602401602060405180830381865af41580156103cf573d6000803e3d6000fd5b505050506040513d601f19601f820116820180604052508101906103f39190610905565b60008181526002840160205260409020909150600101610413858261096d565b506000818152600283016020526040902080547fffffffffffffffffffffffff00000000000000000000000000000000000000001673ffffffffffffffffffffffffffffffffffffffff871617905561046c8282610497565b509150505b92915050565b60606000610484836104a3565b9392505050565b600061048483836104ff565b600061048483836105f2565b6060816000018054806020026020016040519081016040528092919081815260200182805480156104f357602002820191906000526020600020905b8154815260200190600101908083116104df575b50505050509050919050565b600081815260018301602052604081205480156105e8576000610523600183610a87565b855490915060009061053790600190610a87565b905080821461059c57600086600001828154811061055757610557610ac1565b906000526020600020015490508087600001848154811061057a5761057a610ac1565b6000918252602080832090910192909255918252600188019052604090208390555b85548690806105ad576105ad610af0565b600190038181906000526020600020016000905590558560010160008681526020019081526020016000206000905560019350505050610471565b6000915050610471565b600081815260018301602052604081205461063957508154600181810184556000848152602080822090930184905584548482528286019093526040902091909155610471565b506000610471565b50805461064d906108b2565b6000825580601f1061065d575050565b601f01602090049060005260206000209081019061067b919061067e565b50565b5b80821115610693576000815560010161067f565b5090565b6020808252825182820181905260009190848201906040850190845b818110156106cf578351835292840192918401916001016106b3565b50909695505050505050565b6000602082840312156106ed57600080fd5b5035919050565b6000602080835273ffffffffffffffffffffffffffffffffffffffff8451168184015280840151604080850152805180606086015260005b818110156107485782810184015186820160800152830161072c565b5060006080828701015260807fffffffffffffffffffffffffffffffffffffffffffffffffffffffffffffffe0601f830116860101935050505092915050565b7f4e487b7100000000000000000000000000000000000000000000000000000000600052604160045260246000fd5b600080604083850312156107ca57600080fd5b823573ffffffffffffffffffffffffffffffffffffffff811681146107ee57600080fd5b9150602083013567ffffffffffffffff8082111561080b57600080fd5b818501915085601f83011261081f57600080fd5b81358181111561083157610831610788565b604051601f82017fffffffffffffffffffffffffffffffffffffffffffffffffffffffffffffffe0908116603f0116810190838211818310171561087757610877610788565b8160405282815288602084870101111561089057600080fd5b8260208601602083013760006020848301015280955050505050509250929050565b600181811c908216806108c657607f821691505b6020821081036108ff577f4e487b7100000000000000000000000000000000000000000000000000000000600052602260045260246000fd5b50919050565b60006020828403121561091757600080fd5b5051919050565b601f82111561096857600081815260208120601f850160051c810160208610156109455750805b601f850160051c820191505b8181101561096457828155600101610951565b5050505b505050565b815167ffffffffffffffff81111561098757610987610788565b61099b8161099584546108b2565b8461091e565b602080601f8311600181146109ee57600084156109b85750858301515b7fffffffffffffffffffffffffffffffffffffffffffffffffffffffffffffffff600386901b1c1916600185901b178555610964565b6000858152602081207fffffffffffffffffffffffffffffffffffffffffffffffffffffffffffffffe08616915b82811015610a3b57888601518255948401946001909101908401610a1c565b5085821015610a7757878501517fffffffffffffffffffffffffffffffffffffffffffffffffffffffffffffffff600388901b60f8161c191681555b5050505050600190811b01905550565b81810381811115610471577f4e487b7100000000000000000000000000000000000000000000000000000000600052601160045260246000fd5b7f4e487b7100000000000000000000000000000000000000000000000000000000600052603260045260246000fd5b7f4e487b7100000000000000000000000000000000000000000000000000000000600052603160045260246000fdfea2646970667358221220225f2c5faa38211ee1d7b9d224c8b2a1bcd69377e03e4df3b7c0f7be38ea5c5664736f6c63430008140033",
  "deployedBytecode": "0x730000000000000000000000000000000000000000301460806040526004361061007c5760003560e01c80639507d39a1161005a5780639507d39a146100d7578063a15ab08d146100f7578063fad6e1b21461011757600080fd5b80632b105663146100815780634cc822151461009f57806386d5c4be146100c1575b600080fd5b61008961013e565b6040516100969190610697565b60405180910390f35b8180156100ab57600080fd5b506100bf6100ba3660046106db565b61015b565b005b6100c96101bc565b604051908152602001610096565b6100ea6100e53660046106db565b61023c565b60405161009691906106f4565b81801561010357600080fd5b506100c96101123660046107b7565b610336565b6100c97f507364c391d0b268ac40f86b4939152c6207b339c33c25bacc779accdf347c8681565b6060600061014a6101bc565b905061015581610477565b91505090565b60006101656101bc565b9050610171818361048b565b506000828152600282016020526040812080547fffffffffffffffffffffffff0000000000000000000000000000000000000000168155906101b66001830182610641565b50505050565b6000806040516020016102009060208082526016908201527f70656e782e696f2e73746f726167652e626f756e747900000000000000000000604082015260600190565b604080517fffffffffffffffffffffffffffffffffffffffffffffffffffffffffffffffe0818403018152919052805160209091012092915050565b604080518082019091526000815260606020820152600061025b6101bc565b60008481526002820160209081526040918290208251808401909352805473ffffffffffffffffffffffffffffffffffffffff1683526001810180549495509293909291840191906102ac906108b2565b80601f01602080910402602001604051908101604052809291908181526020018280546102d8906108b2565b80156103255780601f106102fa57610100808354040283529160200191610325565b820191906000526020600020905b81548152906001019060200180831161030857829003601f168201915b505050505081525050915050919050565b6000806103416101bc565b6040517f204c72520000000000000000000000000000000000000000000000000000000081527f507364c391d0b268ac40f86b4939152c6207b339c33c25bacc779accdf347c86600482015290915060009073__$1f6634ba11cc1ae886305aee292e3d3d68$__9063204c725290602401602060405180830381865af41580156103cf573d6000803e3d6000fd5b505050506040513d601f19601f820116820180604052508101906103f39190610905565b60008181526002840160205260409020909150600101610413858261096d565b506000818152600283016020526040902080547fffffffffffffffffffffffff00000000000000000000000000000000000000001673ffffffffffffffffffffffffffffffffffffffff871617905561046c8282610497565b509150505b92915050565b60606000610484836104a3565b9392505050565b600061048483836104ff565b600061048483836105f2565b6060816000018054806020026020016040519081016040528092919081815260200182805480156104f357602002820191906000526020600020905b8154815260200190600101908083116104df575b50505050509050919050565b600081815260018301602052604081205480156105e8576000610523600183610a87565b855490915060009061053790600190610a87565b905080821461059c57600086600001828154811061055757610557610ac1565b906000526020600020015490508087600001848154811061057a5761057a610ac1565b6000918252602080832090910192909255918252600188019052604090208390555b85548690806105ad576105ad610af0565b600190038181906000526020600020016000905590558560010160008681526020019081526020016000206000905560019350505050610471565b6000915050610471565b600081815260018301602052604081205461063957508154600181810184556000848152602080822090930184905584548482528286019093526040902091909155610471565b506000610471565b50805461064d906108b2565b6000825580601f1061065d575050565b601f01602090049060005260206000209081019061067b919061067e565b50565b5b80821115610693576000815560010161067f565b5090565b6020808252825182820181905260009190848201906040850190845b818110156106cf578351835292840192918401916001016106b3565b50909695505050505050565b6000602082840312156106ed57600080fd5b5035919050565b6000602080835273ffffffffffffffffffffffffffffffffffffffff8451168184015280840151604080850152805180606086015260005b818110156107485782810184015186820160800152830161072c565b5060006080828701015260807fffffffffffffffffffffffffffffffffffffffffffffffffffffffffffffffe0601f830116860101935050505092915050565b7f4e487b7100000000000000000000000000000000000000000000000000000000600052604160045260246000fd5b600080604083850312156107ca57600080fd5b823573ffffffffffffffffffffffffffffffffffffffff811681146107ee57600080fd5b9150602083013567ffffffffffffffff8082111561080b57600080fd5b818501915085601f83011261081f57600080fd5b81358181111561083157610831610788565b604051601f82017fffffffffffffffffffffffffffffffffffffffffffffffffffffffffffffffe0908116603f0116810190838211818310171561087757610877610788565b8160405282815288602084870101111561089057600080fd5b8260208601602083013760006020848301015280955050505050509250929050565b600181811c908216806108c657607f821691505b6020821081036108ff577f4e487b7100000000000000000000000000000000000000000000000000000000600052602260045260246000fd5b50919050565b60006020828403121561091757600080fd5b5051919050565b601f82111561096857600081815260208120601f850160051c810160208610156109455750805b601f850160051c820191505b8181101561096457828155600101610951565b5050505b505050565b815167ffffffffffffffff81111561098757610987610788565b61099b8161099584546108b2565b8461091e565b602080601f8311600181146109ee57600084156109b85750858301515b7fffffffffffffffffffffffffffffffffffffffffffffffffffffffffffffffff600386901b1c1916600185901b178555610964565b6000858152602081207fffffffffffffffffffffffffffffffffffffffffffffffffffffffffffffffe08616915b82811015610a3b57888601518255948401946001909101908401610a1c565b5085821015610a7757878501517fffffffffffffffffffffffffffffffffffffffffffffffffffffffffffffffff600388901b60f8161c191681555b5050505050600190811b01905550565b81810381811115610471577f4e487b7100000000000000000000000000000000000000000000000000000000600052601160045260246000fd5b7f4e487b7100000000000000000000000000000000000000000000000000000000600052603260045260246000fd5b7f4e487b7100000000000000000000000000000000000000000000000000000000600052603160045260246000fdfea2646970667358221220225f2c5faa38211ee1d7b9d224c8b2a1bcd69377e03e4df3b7c0f7be38ea5c5664736f6c63430008140033",
  "libraries": {
    "UuidCreator": "0x79d3Be15Fb5fe09dD092c288FbA0c083f3Cc8020"
  },
  "devdoc": {
    "kind": "dev",
    "methods": {},
    "version": 1
  },
  "userdoc": {
    "kind": "user",
    "methods": {},
    "version": 1
  },
  "storageLayout": {
    "storage": [],
    "types": null
  }
}