{
  "address": "0x9354CCD72a4462CBF5Ec8243e3382636FC7AA470",
  "abi": [
    {
      "inputs": [
        {
          "internalType": "address",
          "name": "initialOwner",
          "type": "address"
        }
      ],
      "stateMutability": "nonpayable",
      "type": "constructor"
    },
    {
      "inputs": [
        {
          "internalType": "address",
          "name": "self",
          "type": "address"
        }
      ],
      "name": "AddressSelfNotSupported",
      "type": "error"
    },
    {
      "inputs": [
        {
          "internalType": "address",
          "name": "owner",
          "type": "address"
        }
      ],
      "name": "OwnableInvalidOwner",
      "type": "error"
    },
    {
      "inputs": [
        {
          "internalType": "address",
          "name": "account",
          "type": "address"
        }
      ],
      "name": "OwnableUnauthorizedAccount",
      "type": "error"
    },
    {
      "anonymous": false,
      "inputs": [
        {
          "indexed": true,
          "internalType": "address",
          "name": "previousOwner",
          "type": "address"
        },
        {
          "indexed": true,
          "internalType": "address",
          "name": "newOwner",
          "type": "address"
        }
      ],
      "name": "OwnershipTransferred",
      "type": "event"
    },
    {
      "stateMutability": "payable",
      "type": "fallback"
    },
    {
      "inputs": [],
      "name": "getBalance",
      "outputs": [
        {
          "internalType": "uint256",
          "name": "",
          "type": "uint256"
        }
      ],
      "stateMutability": "view",
      "type": "function"
    },
    {
      "inputs": [
        {
          "internalType": "address",
          "name": "token",
          "type": "address"
        }
      ],
      "name": "getTransferInAmount",
      "outputs": [
        {
          "internalType": "uint256",
          "name": "",
          "type": "uint256"
        }
      ],
      "stateMutability": "nonpayable",
      "type": "function"
    },
    {
      "inputs": [],
      "name": "owner",
      "outputs": [
        {
          "internalType": "address",
          "name": "",
          "type": "address"
        }
      ],
      "stateMutability": "view",
      "type": "function"
    },
    {
      "inputs": [],
      "name": "renounceOwnership",
      "outputs": [],
      "stateMutability": "nonpayable",
      "type": "function"
    },
    {
      "inputs": [
        {
          "internalType": "address",
          "name": "",
          "type": "address"
        }
      ],
      "name": "tokenBalances",
      "outputs": [
        {
          "internalType": "uint256",
          "name": "",
          "type": "uint256"
        }
      ],
      "stateMutability": "view",
      "type": "function"
    },
    {
      "inputs": [
        {
          "internalType": "address payable",
          "name": "recipient",
          "type": "address"
        },
        {
          "internalType": "uint256",
          "name": "amount",
          "type": "uint256"
        }
      ],
      "name": "transferETH",
      "outputs": [],
      "stateMutability": "nonpayable",
      "type": "function"
    },
    {
      "inputs": [
        {
          "internalType": "address",
          "name": "token",
          "type": "address"
        },
        {
          "internalType": "address",
          "name": "receiver",
          "type": "address"
        },
        {
          "internalType": "uint256",
          "name": "amount",
          "type": "uint256"
        }
      ],
      "name": "transferOut",
      "outputs": [],
      "stateMutability": "nonpayable",
      "type": "function"
    },
    {
      "inputs": [
        {
          "internalType": "address",
          "name": "newOwner",
          "type": "address"
        }
      ],
      "name": "transferOwnership",
      "outputs": [],
      "stateMutability": "nonpayable",
      "type": "function"
    },
    {
      "inputs": [
        {
          "internalType": "address",
          "name": "token",
          "type": "address"
        },
        {
          "internalType": "address",
          "name": "receiver",
          "type": "address"
        },
        {
          "internalType": "uint256",
          "name": "amount",
          "type": "uint256"
        }
      ],
      "name": "transferToken",
      "outputs": [],
      "stateMutability": "nonpayable",
      "type": "function"
    },
    {
      "stateMutability": "payable",
      "type": "receive"
    }
  ],
  "transactionHash": "0x5a17e3f9a806500ce20ec0f3da1b7143d0f6b4516ec7f3c8f99f7c7a86c82017",
  "args": [
    "0x5B7342B3b138bea7F6a2d157718acCc90BeF8f9D"
  ],
  "numDeployments": 1,
  "solcInputHash": "ed8afa8bb322a3d5897e244c41ca23cf",
  "bytecode": "0x608060405234801561001057600080fd5b50604051610b5b380380610b5b83398101604081905261002f916100be565b806001600160a01b03811661005e57604051631e4fbdf760e01b81526000600482015260240160405180910390fd5b6100678161006e565b50506100ee565b600080546001600160a01b038381166001600160a01b0319831681178455604051919092169283917f8be0079c531659141344cd1fd0a4f28419497f9722a3daafe3b4186f6b6457e09190a35050565b6000602082840312156100d057600080fd5b81516001600160a01b03811681146100e757600080fd5b9392505050565b610a5e806100fd6000396000f3fe6080604052600436106100915760003560e01c8063715018a6116100635780638da5cb5b1161004b5780638da5cb5b1461015e578063f2fde38b14610193578063f5537ede146101b357005b8063715018a6146101295780637b1a49091461013e57005b8063078d3b791461009a57806312065fe0146100ba5780632c286beb146100dc578063523fba7f146100fc57005b3661009857005b005b3480156100a657600080fd5b506100986100b5366004610861565b6101d3565b3480156100c657600080fd5b50475b6040519081526020015b60405180910390f35b3480156100e857600080fd5b506100c96100f73660046108a2565b6103a3565b34801561010857600080fd5b506100c96101173660046108a2565b60016020526000908152604090205481565b34801561013557600080fd5b50610098610482565b34801561014a57600080fd5b506100986101593660046108c6565b610496565b34801561016a57600080fd5b5060005460405173ffffffffffffffffffffffffffffffffffffffff90911681526020016100d3565b34801561019f57600080fd5b506100986101ae3660046108a2565b6104de565b3480156101bf57600080fd5b506100986101ce366004610861565b610542565b6101db6106b7565b3073ffffffffffffffffffffffffffffffffffffffff831603610247576040517f8d6a597100000000000000000000000000000000000000000000000000000000815273ffffffffffffffffffffffffffffffffffffffff831660048201526024015b60405180910390fd5b6040517fbeabacc800000000000000000000000000000000000000000000000000000000815273ffffffffffffffffffffffffffffffffffffffff808516600483015283166024820152604481018290527349d8Da33B296C4088895233Ef5eF08aaad1C16799063beabacc89060640160006040518083038186803b1580156102cf57600080fd5b505af41580156102e3573d6000803e3d6000fd5b50506040517f70a0823100000000000000000000000000000000000000000000000000000000815230600482015273ffffffffffffffffffffffffffffffffffffffff861692506370a082319150602401602060405180830381865afa158015610351573d6000803e3d6000fd5b505050506040513d601f19601f8201168201806040525081019061037591906108f2565b73ffffffffffffffffffffffffffffffffffffffff9093166000908152600160205260409020929092555050565b73ffffffffffffffffffffffffffffffffffffffff81166000818152600160205260408082205490517f70a08231000000000000000000000000000000000000000000000000000000008152306004820152919290918391906370a0823190602401602060405180830381865afa158015610422573d6000803e3d6000fd5b505050506040513d601f19601f8201168201806040525081019061044691906108f2565b73ffffffffffffffffffffffffffffffffffffffff85166000908152600160205260409020819055905061047a828261090b565b949350505050565b61048a6106b7565b610494600061070a565b565b60405173ffffffffffffffffffffffffffffffffffffffff83169082156108fc029083906000818181858888f193505050501580156104d9573d6000803e3d6000fd5b505050565b6104e66106b7565b73ffffffffffffffffffffffffffffffffffffffff8116610536576040517f1e4fbdf70000000000000000000000000000000000000000000000000000000081526000600482015260240161023e565b61053f8161070a565b50565b6105b86040518060400160405280601081526020017f746f6b656e3d3d3d3d3d3d3d3d3d3d3a00000000000000000000000000000000815250846040518060400160405280600981526020017f72656365697665723a00000000000000000000000000000000000000000000008152508561077f565b6040517fa9059cbb00000000000000000000000000000000000000000000000000000000815273ffffffffffffffffffffffffffffffffffffffff83811660048301526024820183905284169063a9059cbb906044016020604051808303816000875af115801561062d573d6000803e3d6000fd5b505050506040513d601f19601f82011682018060405250810190610651919061094b565b6104d9576040517f08c379a000000000000000000000000000000000000000000000000000000000815260206004820152600f60248201527f7472616e73666572206661696c65640000000000000000000000000000000000604482015260640161023e565b60005473ffffffffffffffffffffffffffffffffffffffff163314610494576040517f118cdaa700000000000000000000000000000000000000000000000000000000815233600482015260240161023e565b6000805473ffffffffffffffffffffffffffffffffffffffff8381167fffffffffffffffffffffffff0000000000000000000000000000000000000000831681178455604051919092169283917f8be0079c531659141344cd1fd0a4f28419497f9722a3daafe3b4186f6b6457e09190a35050565b6108148484848460405160240161079994939291906109d1565b604080517fffffffffffffffffffffffffffffffffffffffffffffffffffffffffffffffe08184030181529190526020810180517bffffffffffffffffffffffffffffffffffffffffffffffffffffffff167faabc9a310000000000000000000000000000000000000000000000000000000017905261081a565b50505050565b61053f8160006a636f6e736f6c652e6c6f679050600080835160208501845afa505050565b73ffffffffffffffffffffffffffffffffffffffff8116811461053f57600080fd5b60008060006060848603121561087657600080fd5b83356108818161083f565b925060208401356108918161083f565b929592945050506040919091013590565b6000602082840312156108b457600080fd5b81356108bf8161083f565b9392505050565b600080604083850312156108d957600080fd5b82356108e48161083f565b946020939093013593505050565b60006020828403121561090457600080fd5b5051919050565b81810381811115610945577f4e487b7100000000000000000000000000000000000000000000000000000000600052601160045260246000fd5b92915050565b60006020828403121561095d57600080fd5b815180151581146108bf57600080fd5b6000815180845260005b8181101561099357602081850181015186830182015201610977565b5060006020828601015260207fffffffffffffffffffffffffffffffffffffffffffffffffffffffffffffffe0601f83011685010191505092915050565b6080815260006109e4608083018761096d565b73ffffffffffffffffffffffffffffffffffffffff80871660208501528382036040850152610a13828761096d565b9250808516606085015250509594505050505056fea2646970667358221220ce8618637a1e34579fea9e00f44f6659a5f9a92a59827fe741bcfac35da8e66b64736f6c63430008140033",
  "deployedBytecode": "0x6080604052600436106100915760003560e01c8063715018a6116100635780638da5cb5b1161004b5780638da5cb5b1461015e578063f2fde38b14610193578063f5537ede146101b357005b8063715018a6146101295780637b1a49091461013e57005b8063078d3b791461009a57806312065fe0146100ba5780632c286beb146100dc578063523fba7f146100fc57005b3661009857005b005b3480156100a657600080fd5b506100986100b5366004610861565b6101d3565b3480156100c657600080fd5b50475b6040519081526020015b60405180910390f35b3480156100e857600080fd5b506100c96100f73660046108a2565b6103a3565b34801561010857600080fd5b506100c96101173660046108a2565b60016020526000908152604090205481565b34801561013557600080fd5b50610098610482565b34801561014a57600080fd5b506100986101593660046108c6565b610496565b34801561016a57600080fd5b5060005460405173ffffffffffffffffffffffffffffffffffffffff90911681526020016100d3565b34801561019f57600080fd5b506100986101ae3660046108a2565b6104de565b3480156101bf57600080fd5b506100986101ce366004610861565b610542565b6101db6106b7565b3073ffffffffffffffffffffffffffffffffffffffff831603610247576040517f8d6a597100000000000000000000000000000000000000000000000000000000815273ffffffffffffffffffffffffffffffffffffffff831660048201526024015b60405180910390fd5b6040517fbeabacc800000000000000000000000000000000000000000000000000000000815273ffffffffffffffffffffffffffffffffffffffff8085166004830152831660248201526044810182905273__$f9176b3899280ba309817d8ae5ba2e8b32$__9063beabacc89060640160006040518083038186803b1580156102cf57600080fd5b505af41580156102e3573d6000803e3d6000fd5b50506040517f70a0823100000000000000000000000000000000000000000000000000000000815230600482015273ffffffffffffffffffffffffffffffffffffffff861692506370a082319150602401602060405180830381865afa158015610351573d6000803e3d6000fd5b505050506040513d601f19601f8201168201806040525081019061037591906108f2565b73ffffffffffffffffffffffffffffffffffffffff9093166000908152600160205260409020929092555050565b73ffffffffffffffffffffffffffffffffffffffff81166000818152600160205260408082205490517f70a08231000000000000000000000000000000000000000000000000000000008152306004820152919290918391906370a0823190602401602060405180830381865afa158015610422573d6000803e3d6000fd5b505050506040513d601f19601f8201168201806040525081019061044691906108f2565b73ffffffffffffffffffffffffffffffffffffffff85166000908152600160205260409020819055905061047a828261090b565b949350505050565b61048a6106b7565b610494600061070a565b565b60405173ffffffffffffffffffffffffffffffffffffffff83169082156108fc029083906000818181858888f193505050501580156104d9573d6000803e3d6000fd5b505050565b6104e66106b7565b73ffffffffffffffffffffffffffffffffffffffff8116610536576040517f1e4fbdf70000000000000000000000000000000000000000000000000000000081526000600482015260240161023e565b61053f8161070a565b50565b6105b86040518060400160405280601081526020017f746f6b656e3d3d3d3d3d3d3d3d3d3d3a00000000000000000000000000000000815250846040518060400160405280600981526020017f72656365697665723a00000000000000000000000000000000000000000000008152508561077f565b6040517fa9059cbb00000000000000000000000000000000000000000000000000000000815273ffffffffffffffffffffffffffffffffffffffff83811660048301526024820183905284169063a9059cbb906044016020604051808303816000875af115801561062d573d6000803e3d6000fd5b505050506040513d601f19601f82011682018060405250810190610651919061094b565b6104d9576040517f08c379a000000000000000000000000000000000000000000000000000000000815260206004820152600f60248201527f7472616e73666572206661696c65640000000000000000000000000000000000604482015260640161023e565b60005473ffffffffffffffffffffffffffffffffffffffff163314610494576040517f118cdaa700000000000000000000000000000000000000000000000000000000815233600482015260240161023e565b6000805473ffffffffffffffffffffffffffffffffffffffff8381167fffffffffffffffffffffffff0000000000000000000000000000000000000000831681178455604051919092169283917f8be0079c531659141344cd1fd0a4f28419497f9722a3daafe3b4186f6b6457e09190a35050565b6108148484848460405160240161079994939291906109d1565b604080517fffffffffffffffffffffffffffffffffffffffffffffffffffffffffffffffe08184030181529190526020810180517bffffffffffffffffffffffffffffffffffffffffffffffffffffffff167faabc9a310000000000000000000000000000000000000000000000000000000017905261081a565b50505050565b61053f8160006a636f6e736f6c652e6c6f679050600080835160208501845afa505050565b73ffffffffffffffffffffffffffffffffffffffff8116811461053f57600080fd5b60008060006060848603121561087657600080fd5b83356108818161083f565b925060208401356108918161083f565b929592945050506040919091013590565b6000602082840312156108b457600080fd5b81356108bf8161083f565b9392505050565b600080604083850312156108d957600080fd5b82356108e48161083f565b946020939093013593505050565b60006020828403121561090457600080fd5b5051919050565b81810381811115610945577f4e487b7100000000000000000000000000000000000000000000000000000000600052601160045260246000fd5b92915050565b60006020828403121561095d57600080fd5b815180151581146108bf57600080fd5b6000815180845260005b8181101561099357602081850181015186830182015201610977565b5060006020828601015260207fffffffffffffffffffffffffffffffffffffffffffffffffffffffffffffffe0601f83011685010191505092915050565b6080815260006109e4608083018761096d565b73ffffffffffffffffffffffffffffffffffffffff80871660208501528382036040850152610a13828761096d565b9250808516606085015250509594505050505056fea2646970667358221220ce8618637a1e34579fea9e00f44f6659a5f9a92a59827fe741bcfac35da8e66b64736f6c63430008140033",
  "libraries": {
    "TransferUtils": "0x49d8Da33B296C4088895233Ef5eF08aaad1C1679"
  },
  "devdoc": {
    "errors": {
      "OwnableInvalidOwner(address)": [
        {
          "details": "The owner is not a valid owner account. (eg. `address(0)`)"
        }
      ],
      "OwnableUnauthorizedAccount(address)": [
        {
          "details": "The caller account is not authorized to perform an operation."
        }
      ]
    },
    "kind": "dev",
    "methods": {
      "owner()": {
        "details": "Returns the address of the current owner."
      },
      "renounceOwnership()": {
        "details": "Leaves the contract without owner. It will not be possible to call `onlyOwner` functions. Can only be called by the current owner. NOTE: Renouncing ownership will leave the contract without an owner, thereby disabling any functionality that is only available to the owner."
      },
      "transferOwnership(address)": {
        "details": "Transfers ownership of the contract to a new account (`newOwner`). Can only be called by the current owner."
      }
    },
    "version": 1
  },
  "userdoc": {
    "kind": "user",
    "methods": {},
    "version": 1
  },
  "storageLayout": {
    "storage": [
      {
        "astId": 387,
        "contract": "contracts/vault/DaoVault.sol:DaoVault",
        "label": "_owner",
        "offset": 0,
        "slot": "0",
        "type": "t_address"
      },
      {
        "astId": 8460,
        "contract": "contracts/vault/DaoVault.sol:DaoVault",
        "label": "tokenBalances",
        "offset": 0,
        "slot": "1",
        "type": "t_mapping(t_address,t_uint256)"
      }
    ],
    "types": {
      "t_address": {
        "encoding": "inplace",
        "label": "address",
        "numberOfBytes": "20"
      },
      "t_mapping(t_address,t_uint256)": {
        "encoding": "mapping",
        "key": "t_address",
        "label": "mapping(address => uint256)",
        "numberOfBytes": "32",
        "value": "t_uint256"
      },
      "t_uint256": {
        "encoding": "inplace",
        "label": "uint256",
        "numberOfBytes": "32"
      }
    }
  }
}