{
  "address": "0x49d8Da33B296C4088895233Ef5eF08aaad1C1679",
  "abi": [
    {
      "inputs": [
        {
          "internalType": "address",
          "name": "initialOwner",
          "type": "address"
        }
      ],
      "stateMutability": "nonpayable",
      "type": "constructor"
    },
    {
      "inputs": [],
      "name": "ECDSAInvalidSignature",
      "type": "error"
    },
    {
      "inputs": [
        {
          "internalType": "uint256",
          "name": "length",
          "type": "uint256"
        }
      ],
      "name": "ECDSAInvalidSignatureLength",
      "type": "error"
    },
    {
      "inputs": [
        {
          "internalType": "bytes32",
          "name": "s",
          "type": "bytes32"
        }
      ],
      "name": "ECDSAInvalidSignatureS",
      "type": "error"
    },
    {
      "inputs": [
        {
          "internalType": "address",
          "name": "spender",
          "type": "address"
        },
        {
          "internalType": "uint256",
          "name": "allowance",
          "type": "uint256"
        },
        {
          "internalType": "uint256",
          "name": "needed",
          "type": "uint256"
        }
      ],
      "name": "ERC20InsufficientAllowance",
      "type": "error"
    },
    {
      "inputs": [
        {
          "internalType": "address",
          "name": "sender",
          "type": "address"
        },
        {
          "internalType": "uint256",
          "name": "balance",
          "type": "uint256"
        },
        {
          "internalType": "uint256",
          "name": "needed",
          "type": "uint256"
        }
      ],
      "name": "ERC20InsufficientBalance",
      "type": "error"
    },
    {
      "inputs": [
        {
          "internalType": "address",
          "name": "approver",
          "type": "address"
        }
      ],
      "name": "ERC20InvalidApprover",
      "type": "error"
    },
    {
      "inputs": [
        {
          "internalType": "address",
          "name": "receiver",
          "type": "address"
        }
      ],
      "name": "ERC20InvalidReceiver",
      "type": "error"
    },
    {
      "inputs": [
        {
          "internalType": "address",
          "name": "sender",
          "type": "address"
        }
      ],
      "name": "ERC20InvalidSender",
      "type": "error"
    },
    {
      "inputs": [
        {
          "internalType": "address",
          "name": "spender",
          "type": "address"
        }
      ],
      "name": "ERC20InvalidSpender",
      "type": "error"
    },
    {
      "inputs": [
        {
          "internalType": "uint256",
          "name": "deadline",
          "type": "uint256"
        }
      ],
      "name": "ERC2612ExpiredSignature",
      "type": "error"
    },
    {
      "inputs": [
        {
          "internalType": "address",
          "name": "signer",
          "type": "address"
        },
        {
          "internalType": "address",
          "name": "owner",
          "type": "address"
        }
      ],
      "name": "ERC2612InvalidSigner",
      "type": "error"
    },
    {
      "inputs": [
        {
          "internalType": "address",
          "name": "account",
          "type": "address"
        },
        {
          "internalType": "uint256",
          "name": "currentNonce",
          "type": "uint256"
        }
      ],
      "name": "InvalidAccountNonce",
      "type": "error"
    },
    {
      "inputs": [],
      "name": "InvalidShortString",
      "type": "error"
    },
    {
      "inputs": [
        {
          "internalType": "address",
          "name": "owner",
          "type": "address"
        }
      ],
      "name": "OwnableInvalidOwner",
      "type": "error"
    },
    {
      "inputs": [
        {
          "internalType": "address",
          "name": "account",
          "type": "address"
        }
      ],
      "name": "OwnableUnauthorizedAccount",
      "type": "error"
    },
    {
      "inputs": [
        {
          "internalType": "string",
          "name": "str",
          "type": "string"
        }
      ],
      "name": "StringTooLong",
      "type": "error"
    },
    {
      "anonymous": false,
      "inputs": [
        {
          "indexed": true,
          "internalType": "address",
          "name": "owner",
          "type": "address"
        },
        {
          "indexed": true,
          "internalType": "address",
          "name": "spender",
          "type": "address"
        },
        {
          "indexed": false,
          "internalType": "uint256",
          "name": "value",
          "type": "uint256"
        }
      ],
      "name": "Approval",
      "type": "event"
    },
    {
      "anonymous": false,
      "inputs": [],
      "name": "EIP712DomainChanged",
      "type": "event"
    },
    {
      "anonymous": false,
      "inputs": [
        {
          "indexed": true,
          "internalType": "address",
          "name": "previousOwner",
          "type": "address"
        },
        {
          "indexed": true,
          "internalType": "address",
          "name": "newOwner",
          "type": "address"
        }
      ],
      "name": "OwnershipTransferred",
      "type": "event"
    },
    {
      "anonymous": false,
      "inputs": [
        {
          "indexed": true,
          "internalType": "address",
          "name": "from",
          "type": "address"
        },
        {
          "indexed": true,
          "internalType": "address",
          "name": "to",
          "type": "address"
        },
        {
          "indexed": false,
          "internalType": "uint256",
          "name": "value",
          "type": "uint256"
        }
      ],
      "name": "Transfer",
      "type": "event"
    },
    {
      "stateMutability": "payable",
      "type": "fallback"
    },
    {
      "inputs": [],
      "name": "DOMAIN_SEPARATOR",
      "outputs": [
        {
          "internalType": "bytes32",
          "name": "",
          "type": "bytes32"
        }
      ],
      "stateMutability": "view",
      "type": "function"
    },
    {
      "inputs": [
        {
          "internalType": "address",
          "name": "owner",
          "type": "address"
        },
        {
          "internalType": "address",
          "name": "spender",
          "type": "address"
        }
      ],
      "name": "allowance",
      "outputs": [
        {
          "internalType": "uint256",
          "name": "",
          "type": "uint256"
        }
      ],
      "stateMutability": "view",
      "type": "function"
    },
    {
      "inputs": [
        {
          "internalType": "address",
          "name": "spender",
          "type": "address"
        },
        {
          "internalType": "uint256",
          "name": "value",
          "type": "uint256"
        }
      ],
      "name": "approve",
      "outputs": [
        {
          "internalType": "bool",
          "name": "",
          "type": "bool"
        }
      ],
      "stateMutability": "nonpayable",
      "type": "function"
    },
    {
      "inputs": [
        {
          "internalType": "address",
          "name": "account",
          "type": "address"
        }
      ],
      "name": "balanceOf",
      "outputs": [
        {
          "internalType": "uint256",
          "name": "",
          "type": "uint256"
        }
      ],
      "stateMutability": "view",
      "type": "function"
    },
    {
      "inputs": [
        {
          "internalType": "address",
          "name": "account",
          "type": "address"
        },
        {
          "internalType": "uint256",
          "name": "amount",
          "type": "uint256"
        }
      ],
      "name": "burn",
      "outputs": [],
      "stateMutability": "nonpayable",
      "type": "function"
    },
    {
      "inputs": [],
      "name": "decimals",
      "outputs": [
        {
          "internalType": "uint8",
          "name": "",
          "type": "uint8"
        }
      ],
      "stateMutability": "view",
      "type": "function"
    },
    {
      "inputs": [],
      "name": "eip712Domain",
      "outputs": [
        {
          "internalType": "bytes1",
          "name": "fields",
          "type": "bytes1"
        },
        {
          "internalType": "string",
          "name": "name",
          "type": "string"
        },
        {
          "internalType": "string",
          "name": "version",
          "type": "string"
        },
        {
          "internalType": "uint256",
          "name": "chainId",
          "type": "uint256"
        },
        {
          "internalType": "address",
          "name": "verifyingContract",
          "type": "address"
        },
        {
          "internalType": "bytes32",
          "name": "salt",
          "type": "bytes32"
        },
        {
          "internalType": "uint256[]",
          "name": "extensions",
          "type": "uint256[]"
        }
      ],
      "stateMutability": "view",
      "type": "function"
    },
    {
      "inputs": [
        {
          "internalType": "address",
          "name": "to",
          "type": "address"
        },
        {
          "internalType": "uint256",
          "name": "amount",
          "type": "uint256"
        }
      ],
      "name": "mint",
      "outputs": [],
      "stateMutability": "nonpayable",
      "type": "function"
    },
    {
      "inputs": [],
      "name": "name",
      "outputs": [
        {
          "internalType": "string",
          "name": "",
          "type": "string"
        }
      ],
      "stateMutability": "view",
      "type": "function"
    },
    {
      "inputs": [
        {
          "internalType": "address",
          "name": "owner",
          "type": "address"
        }
      ],
      "name": "nonces",
      "outputs": [
        {
          "internalType": "uint256",
          "name": "",
          "type": "uint256"
        }
      ],
      "stateMutability": "view",
      "type": "function"
    },
    {
      "inputs": [],
      "name": "owner",
      "outputs": [
        {
          "internalType": "address",
          "name": "",
          "type": "address"
        }
      ],
      "stateMutability": "view",
      "type": "function"
    },
    {
      "inputs": [
        {
          "internalType": "address",
          "name": "owner",
          "type": "address"
        },
        {
          "internalType": "address",
          "name": "spender",
          "type": "address"
        },
        {
          "internalType": "uint256",
          "name": "value",
          "type": "uint256"
        },
        {
          "internalType": "uint256",
          "name": "deadline",
          "type": "uint256"
        },
        {
          "internalType": "uint8",
          "name": "v",
          "type": "uint8"
        },
        {
          "internalType": "bytes32",
          "name": "r",
          "type": "bytes32"
        },
        {
          "internalType": "bytes32",
          "name": "s",
          "type": "bytes32"
        }
      ],
      "name": "permit",
      "outputs": [],
      "stateMutability": "nonpayable",
      "type": "function"
    },
    {
      "inputs": [],
      "name": "renounceOwnership",
      "outputs": [],
      "stateMutability": "nonpayable",
      "type": "function"
    },
    {
      "inputs": [],
      "name": "symbol",
      "outputs": [
        {
          "internalType": "string",
          "name": "",
          "type": "string"
        }
      ],
      "stateMutability": "view",
      "type": "function"
    },
    {
      "inputs": [],
      "name": "totalSupply",
      "outputs": [
        {
          "internalType": "uint256",
          "name": "",
          "type": "uint256"
        }
      ],
      "stateMutability": "view",
      "type": "function"
    },
    {
      "inputs": [
        {
          "internalType": "address",
          "name": "to",
          "type": "address"
        },
        {
          "internalType": "uint256",
          "name": "value",
          "type": "uint256"
        }
      ],
      "name": "transfer",
      "outputs": [
        {
          "internalType": "bool",
          "name": "",
          "type": "bool"
        }
      ],
      "stateMutability": "nonpayable",
      "type": "function"
    },
    {
      "inputs": [
        {
          "internalType": "address",
          "name": "from",
          "type": "address"
        },
        {
          "internalType": "address",
          "name": "to",
          "type": "address"
        },
        {
          "internalType": "uint256",
          "name": "value",
          "type": "uint256"
        }
      ],
      "name": "transferFrom",
      "outputs": [
        {
          "internalType": "bool",
          "name": "",
          "type": "bool"
        }
      ],
      "stateMutability": "nonpayable",
      "type": "function"
    },
    {
      "inputs": [
        {
          "internalType": "address",
          "name": "newOwner",
          "type": "address"
        }
      ],
      "name": "transferOwnership",
      "outputs": [],
      "stateMutability": "nonpayable",
      "type": "function"
    },
    {
      "stateMutability": "payable",
      "type": "receive"
    }
  ],
  "transactionHash": "0x81e6fa941534bae092a3d9ec47dc4c669615bfdb9aa8f5e2ead1a017f4083321",
  "args": [
    "0x5B7342B3b138bea7F6a2d157718acCc90BeF8f9D"
  ],
  "numDeployments": 1,
  "solcInputHash": "78a09bb7889135aed4afa15359d0a635",
  "bytecode": "0x6101606040523480156200001257600080fd5b5060405162001d9c38038062001d9c833981016040819052620000359162000426565b806040518060400160405280600981526020016824b735902a37b5b2b760b91b81525080604051806040016040528060018152602001603160f81b8152506040518060400160405280600981526020016824b735902a37b5b2b760b91b81525060405180604001604052806003815260200162494e4b60e81b8152508160039081620000c29190620004fd565b506004620000d18282620004fd565b50620000e391508390506005620001e7565b61012052620000f4816006620001e7565b61014052815160208084019190912060e052815190820120610100524660a0526200018260e05161010051604080517f8b73c3c69bb8fe3d512ecc4cf759cc79239f7b179b0ffacaa9a75d522b39400f60208201529081019290925260608201524660808201523060a082015260009060c00160405160208183030381529060405280519060200120905090565b60805250503060c052506001600160a01b038116620001bc57604051631e4fbdf760e01b8152600060048201526024015b60405180910390fd5b620001c78162000220565b50620001e0816b033b2e3c9fd0803ce800000062000272565b5062000660565b60006020835110156200020757620001ff83620002b0565b90506200021a565b81620002148482620004fd565b5060ff90505b92915050565b600880546001600160a01b038381166001600160a01b0319831681179093556040519116919082907f8be0079c531659141344cd1fd0a4f28419497f9722a3daafe3b4186f6b6457e090600090a35050565b6001600160a01b0382166200029e5760405163ec442f0560e01b815260006004820152602401620001b3565b620002ac60008383620002f3565b5050565b600080829050601f81511115620002de578260405163305a27a960e01b8152600401620001b39190620005c9565b8051620002eb8262000619565b179392505050565b6001600160a01b038316620003225780600260008282546200031691906200063e565b90915550620003969050565b6001600160a01b03831660009081526020819052604090205481811015620003775760405163391434e360e21b81526001600160a01b03851660048201526024810182905260448101839052606401620001b3565b6001600160a01b03841660009081526020819052604090209082900390555b6001600160a01b038216620003b457600280548290039055620003d3565b6001600160a01b03821660009081526020819052604090208054820190555b816001600160a01b0316836001600160a01b03167fddf252ad1be2c89b69c2b068fc378daa952ba7f163c4a11628f55a4df523b3ef836040516200041991815260200190565b60405180910390a3505050565b6000602082840312156200043957600080fd5b81516001600160a01b03811681146200045157600080fd5b9392505050565b634e487b7160e01b600052604160045260246000fd5b600181811c908216806200048357607f821691505b602082108103620004a457634e487b7160e01b600052602260045260246000fd5b50919050565b601f821115620004f857600081815260208120601f850160051c81016020861015620004d35750805b601f850160051c820191505b81811015620004f457828155600101620004df565b5050505b505050565b81516001600160401b0381111562000519576200051962000458565b62000531816200052a84546200046e565b84620004aa565b602080601f831160018114620005695760008415620005505750858301515b600019600386901b1c1916600185901b178555620004f4565b600085815260208120601f198616915b828110156200059a5788860151825594840194600190910190840162000579565b5085821015620005b95787850151600019600388901b60f8161c191681555b5050505050600190811b01905550565b600060208083528351808285015260005b81811015620005f857858101830151858201604001528201620005da565b506000604082860101526040601f19601f8301168501019250505092915050565b80516020808301519190811015620004a45760001960209190910360031b1b16919050565b808201808211156200021a57634e487b7160e01b600052601160045260246000fd5b60805160a05160c05160e0516101005161012051610140516116e1620006bb6000396000610c4e01526000610c2101526000610aa301526000610a7b015260006109d601526000610a0001526000610a2a01526116e16000f3fe60806040526004361061011b5760003560e01c80637ecebe001161009c5780639dc29fac1161006e578063d505accf11610056578063d505accf14610339578063dd62ed3e14610359578063f2fde38b146103ac57005b80639dc29fac146102f9578063a9059cbb1461031957005b80637ecebe001461026757806384b0196e146102875780638da5cb5b146102af57806395d89b41146102e457005b8063313ce567116100ed57806340c10f19116100d557806340c10f19146101ef57806370a082311461020f578063715018a61461025257005b8063313ce567146101be5780633644e515146101da57005b806306fdde0314610124578063095ea7b31461014f57806318160ddd1461017f57806323b872dd1461019e57005b3661012257005b005b34801561013057600080fd5b506101396103cc565b60405161014691906113c6565b60405180910390f35b34801561015b57600080fd5b5061016f61016a366004611409565b61045e565b6040519015158152602001610146565b34801561018b57600080fd5b506002545b604051908152602001610146565b3480156101aa57600080fd5b5061016f6101b9366004611433565b610478565b3480156101ca57600080fd5b5060405160128152602001610146565b3480156101e657600080fd5b5061019061049c565b3480156101fb57600080fd5b5061012261020a366004611409565b6104ab565b34801561021b57600080fd5b5061019061022a36600461146f565b73ffffffffffffffffffffffffffffffffffffffff1660009081526020819052604090205490565b34801561025e57600080fd5b5061012261054f565b34801561027357600080fd5b5061019061028236600461146f565b610563565b34801561029357600080fd5b5061029c61058e565b604051610146979695949392919061148a565b3480156102bb57600080fd5b5060085460405173ffffffffffffffffffffffffffffffffffffffff9091168152602001610146565b3480156102f057600080fd5b506101396105f0565b34801561030557600080fd5b50610122610314366004611409565b6105ff565b34801561032557600080fd5b5061016f610334366004611409565b610611565b34801561034557600080fd5b50610122610354366004611549565b61061f565b34801561036557600080fd5b506101906103743660046115bc565b73ffffffffffffffffffffffffffffffffffffffff918216600090815260016020908152604080832093909416825291909152205490565b3480156103b857600080fd5b506101226103c736600461146f565b6107cc565b6060600380546103db906115ef565b80601f0160208091040260200160405190810160405280929190818152602001828054610407906115ef565b80156104545780601f1061042957610100808354040283529160200191610454565b820191906000526020600020905b81548152906001019060200180831161043757829003601f168201915b5050505050905090565b60003361046c818585610830565b60019150505b92915050565b600033610486858285610842565b610491858585610911565b506001949350505050565b60006104a66109bc565b905090565b6104b3610af4565b6b204fce5e3e25026110000000816104ca60025490565b6104d49190611642565b1115610541576040517f08c379a000000000000000000000000000000000000000000000000000000000815260206004820152601260248201527f45786365656473206d617820737570706c79000000000000000000000000000060448201526064015b60405180910390fd5b61054b8282610b47565b5050565b610557610af4565b6105616000610ba3565b565b73ffffffffffffffffffffffffffffffffffffffff8116600090815260076020526040812054610472565b6000606080600080600060606105a2610c1a565b6105aa610c47565b604080516000808252602082019092527f0f000000000000000000000000000000000000000000000000000000000000009b939a50919850469750309650945092509050565b6060600480546103db906115ef565b610607610af4565b61054b8282610c74565b60003361046c818585610911565b8342111561065c576040517f6279130200000000000000000000000000000000000000000000000000000000815260048101859052602401610538565b60007f6e71edae12b1b97f4d1f60370fef10105fa2faae0126114a169c64845d6126c98888886106b68c73ffffffffffffffffffffffffffffffffffffffff16600090815260076020526040902080546001810190915590565b60408051602081019690965273ffffffffffffffffffffffffffffffffffffffff94851690860152929091166060840152608083015260a082015260c0810186905260e001604051602081830303815290604052805190602001209050600061071e82610cd0565b9050600061072e82878787610d18565b90508973ffffffffffffffffffffffffffffffffffffffff168173ffffffffffffffffffffffffffffffffffffffff16146107b5576040517f4b800e4600000000000000000000000000000000000000000000000000000000815273ffffffffffffffffffffffffffffffffffffffff80831660048301528b166024820152604401610538565b6107c08a8a8a610830565b50505050505050505050565b6107d4610af4565b73ffffffffffffffffffffffffffffffffffffffff8116610824576040517f1e4fbdf700000000000000000000000000000000000000000000000000000000815260006004820152602401610538565b61082d81610ba3565b50565b61083d8383836001610d46565b505050565b73ffffffffffffffffffffffffffffffffffffffff8381166000908152600160209081526040808320938616835292905220547fffffffffffffffffffffffffffffffffffffffffffffffffffffffffffffffff811461090b57818110156108fc576040517ffb8f41b200000000000000000000000000000000000000000000000000000000815273ffffffffffffffffffffffffffffffffffffffff841660048201526024810182905260448101839052606401610538565b61090b84848484036000610d46565b50505050565b73ffffffffffffffffffffffffffffffffffffffff8316610961576040517f96c6fd1e00000000000000000000000000000000000000000000000000000000815260006004820152602401610538565b73ffffffffffffffffffffffffffffffffffffffff82166109b1576040517fec442f0500000000000000000000000000000000000000000000000000000000815260006004820152602401610538565b61083d838383610e8e565b60003073ffffffffffffffffffffffffffffffffffffffff7f000000000000000000000000000000000000000000000000000000000000000016148015610a2257507f000000000000000000000000000000000000000000000000000000000000000046145b15610a4c57507f000000000000000000000000000000000000000000000000000000000000000090565b6104a6604080517f8b73c3c69bb8fe3d512ecc4cf759cc79239f7b179b0ffacaa9a75d522b39400f60208201527f0000000000000000000000000000000000000000000000000000000000000000918101919091527f000000000000000000000000000000000000000000000000000000000000000060608201524660808201523060a082015260009060c00160405160208183030381529060405280519060200120905090565b60085473ffffffffffffffffffffffffffffffffffffffff163314610561576040517f118cdaa7000000000000000000000000000000000000000000000000000000008152336004820152602401610538565b73ffffffffffffffffffffffffffffffffffffffff8216610b97576040517fec442f0500000000000000000000000000000000000000000000000000000000815260006004820152602401610538565b61054b60008383610e8e565b6008805473ffffffffffffffffffffffffffffffffffffffff8381167fffffffffffffffffffffffff0000000000000000000000000000000000000000831681179093556040519116919082907f8be0079c531659141344cd1fd0a4f28419497f9722a3daafe3b4186f6b6457e090600090a35050565b60606104a67f00000000000000000000000000000000000000000000000000000000000000006005611039565b60606104a67f00000000000000000000000000000000000000000000000000000000000000006006611039565b73ffffffffffffffffffffffffffffffffffffffff8216610cc4576040517f96c6fd1e00000000000000000000000000000000000000000000000000000000815260006004820152602401610538565b61054b82600083610e8e565b6000610472610cdd6109bc565b836040517f19010000000000000000000000000000000000000000000000000000000000008152600281019290925260228201526042902090565b600080600080610d2a888888886110e4565b925092509250610d3a82826111de565b50909695505050505050565b73ffffffffffffffffffffffffffffffffffffffff8416610d96576040517fe602df0500000000000000000000000000000000000000000000000000000000815260006004820152602401610538565b73ffffffffffffffffffffffffffffffffffffffff8316610de6576040517f94280d6200000000000000000000000000000000000000000000000000000000815260006004820152602401610538565b73ffffffffffffffffffffffffffffffffffffffff8085166000908152600160209081526040808320938716835292905220829055801561090b578273ffffffffffffffffffffffffffffffffffffffff168473ffffffffffffffffffffffffffffffffffffffff167f8c5be1e5ebec7d5bd14f71427d1e84f3dd0314c0f7b2291e5b200ac8c7c3b92584604051610e8091815260200190565b60405180910390a350505050565b73ffffffffffffffffffffffffffffffffffffffff8316610ec6578060026000828254610ebb9190611642565b90915550610f789050565b73ffffffffffffffffffffffffffffffffffffffff831660009081526020819052604090205481811015610f4c576040517fe450d38c00000000000000000000000000000000000000000000000000000000815273ffffffffffffffffffffffffffffffffffffffff851660048201526024810182905260448101839052606401610538565b73ffffffffffffffffffffffffffffffffffffffff841660009081526020819052604090209082900390555b73ffffffffffffffffffffffffffffffffffffffff8216610fa157600280548290039055610fcd565b73ffffffffffffffffffffffffffffffffffffffff821660009081526020819052604090208054820190555b8173ffffffffffffffffffffffffffffffffffffffff168373ffffffffffffffffffffffffffffffffffffffff167fddf252ad1be2c89b69c2b068fc378daa952ba7f163c4a11628f55a4df523b3ef8360405161102c91815260200190565b60405180910390a3505050565b606060ff83146110535761104c836112e2565b9050610472565b81805461105f906115ef565b80601f016020809104026020016040519081016040528092919081815260200182805461108b906115ef565b80156110d85780601f106110ad576101008083540402835291602001916110d8565b820191906000526020600020905b8154815290600101906020018083116110bb57829003601f168201915b50505050509050610472565b600080807f7fffffffffffffffffffffffffffffff5d576e7357a4501ddfe92f46681b20a084111561111f57506000915060039050826111d4565b604080516000808252602082018084528a905260ff891692820192909252606081018790526080810186905260019060a0016020604051602081039080840390855afa158015611173573d6000803e3d6000fd5b50506040517fffffffffffffffffffffffffffffffffffffffffffffffffffffffffffffffe0015191505073ffffffffffffffffffffffffffffffffffffffff81166111ca575060009250600191508290506111d4565b9250600091508190505b9450945094915050565b60008260038111156111f2576111f261167c565b036111fb575050565b600182600381111561120f5761120f61167c565b03611246576040517ff645eedf00000000000000000000000000000000000000000000000000000000815260040160405180910390fd5b600282600381111561125a5761125a61167c565b03611294576040517ffce698f700000000000000000000000000000000000000000000000000000000815260048101829052602401610538565b60038260038111156112a8576112a861167c565b0361054b576040517fd78bce0c00000000000000000000000000000000000000000000000000000000815260048101829052602401610538565b606060006112ef83611321565b604080516020808252818301909252919250600091906020820181803683375050509182525060208101929092525090565b600060ff8216601f811115610472576040517fb3512b0c00000000000000000000000000000000000000000000000000000000815260040160405180910390fd5b6000815180845260005b818110156113885760208185018101518683018201520161136c565b5060006020828601015260207fffffffffffffffffffffffffffffffffffffffffffffffffffffffffffffffe0601f83011685010191505092915050565b6020815260006113d96020830184611362565b9392505050565b803573ffffffffffffffffffffffffffffffffffffffff8116811461140457600080fd5b919050565b6000806040838503121561141c57600080fd5b611425836113e0565b946020939093013593505050565b60008060006060848603121561144857600080fd5b611451846113e0565b925061145f602085016113e0565b9150604084013590509250925092565b60006020828403121561148157600080fd5b6113d9826113e0565b7fff00000000000000000000000000000000000000000000000000000000000000881681526000602060e0818401526114c660e084018a611362565b83810360408501526114d8818a611362565b6060850189905273ffffffffffffffffffffffffffffffffffffffff8816608086015260a0850187905284810360c0860152855180825283870192509083019060005b818110156115375783518352928401929184019160010161151b565b50909c9b505050505050505050505050565b600080600080600080600060e0888a03121561156457600080fd5b61156d886113e0565b965061157b602089016113e0565b95506040880135945060608801359350608088013560ff8116811461159f57600080fd5b9699959850939692959460a0840135945060c09093013592915050565b600080604083850312156115cf57600080fd5b6115d8836113e0565b91506115e6602084016113e0565b90509250929050565b600181811c9082168061160357607f821691505b60208210810361163c577f4e487b7100000000000000000000000000000000000000000000000000000000600052602260045260246000fd5b50919050565b80820180821115610472577f4e487b7100000000000000000000000000000000000000000000000000000000600052601160045260246000fd5b7f4e487b7100000000000000000000000000000000000000000000000000000000600052602160045260246000fdfea2646970667358221220848a116483c80d99d00ff8c64ac21017f9aeba8e20efa4a357207453f74d354a64736f6c63430008140033",
  "libraries": {},
  "devdoc": {
    "errors": {
      "ECDSAInvalidSignature()": [
        {
          "details": "The signature derives the `address(0)`."
        }
      ],
      "ECDSAInvalidSignatureLength(uint256)": [
        {
          "details": "The signature has an invalid length."
        }
      ],
      "ECDSAInvalidSignatureS(bytes32)": [
        {
          "details": "The signature has an S value that is in the upper half order."
        }
      ],
      "ERC20InsufficientAllowance(address,uint256,uint256)": [
        {
          "details": "Indicates a failure with the `spender`s `allowance`. Used in transfers.",
          "params": {
            "allowance": "Amount of tokens a `spender` is allowed to operate with.",
            "needed": "Minimum amount required to perform a transfer.",
            "spender": "Address that may be allowed to operate on tokens without being their owner."
          }
        }
      ],
      "ERC20InsufficientBalance(address,uint256,uint256)": [
        {
          "details": "Indicates an error related to the current `balance` of a `sender`. Used in transfers.",
          "params": {
            "balance": "Current balance for the interacting account.",
            "needed": "Minimum amount required to perform a transfer.",
            "sender": "Address whose tokens are being transferred."
          }
        }
      ],
      "ERC20InvalidApprover(address)": [
        {
          "details": "Indicates a failure with the `approver` of a token to be approved. Used in approvals.",
          "params": {
            "approver": "Address initiating an approval operation."
          }
        }
      ],
      "ERC20InvalidReceiver(address)": [
        {
          "details": "Indicates a failure with the token `receiver`. Used in transfers.",
          "params": {
            "receiver": "Address to which tokens are being transferred."
          }
        }
      ],
      "ERC20InvalidSender(address)": [
        {
          "details": "Indicates a failure with the token `sender`. Used in transfers.",
          "params": {
            "sender": "Address whose tokens are being transferred."
          }
        }
      ],
      "ERC20InvalidSpender(address)": [
        {
          "details": "Indicates a failure with the `spender` to be approved. Used in approvals.",
          "params": {
            "spender": "Address that may be allowed to operate on tokens without being their owner."
          }
        }
      ],
      "ERC2612ExpiredSignature(uint256)": [
        {
          "details": "Permit deadline has expired."
        }
      ],
      "ERC2612InvalidSigner(address,address)": [
        {
          "details": "Mismatched signature."
        }
      ],
      "InvalidAccountNonce(address,uint256)": [
        {
          "details": "The nonce used for an `account` is not the expected current nonce."
        }
      ],
      "OwnableInvalidOwner(address)": [
        {
          "details": "The owner is not a valid owner account. (eg. `address(0)`)"
        }
      ],
      "OwnableUnauthorizedAccount(address)": [
        {
          "details": "The caller account is not authorized to perform an operation."
        }
      ]
    },
    "events": {
      "Approval(address,address,uint256)": {
        "details": "Emitted when the allowance of a `spender` for an `owner` is set by a call to {approve}. `value` is the new allowance."
      },
      "EIP712DomainChanged()": {
        "details": "MAY be emitted to signal that the domain could have changed."
      },
      "Transfer(address,address,uint256)": {
        "details": "Emitted when `value` tokens are moved from one account (`from`) to another (`to`). Note that `value` may be zero."
      }
    },
    "kind": "dev",
    "methods": {
      "DOMAIN_SEPARATOR()": {
        "details": "Returns the domain separator used in the encoding of the signature for {permit}, as defined by {EIP712}."
      },
      "allowance(address,address)": {
        "details": "See {IERC20-allowance}."
      },
      "approve(address,uint256)": {
        "details": "See {IERC20-approve}. NOTE: If `value` is the maximum `uint256`, the allowance is not updated on `transferFrom`. This is semantically equivalent to an infinite approval. Requirements: - `spender` cannot be the zero address."
      },
      "balanceOf(address)": {
        "details": "See {IERC20-balanceOf}."
      },
      "decimals()": {
        "details": "Returns the number of decimals used to get its user representation. For example, if `decimals` equals `2`, a balance of `505` tokens should be displayed to a user as `5.05` (`505 / 10 ** 2`). Tokens usually opt for a value of 18, imitating the relationship between Ether and Wei. This is the default value returned by this function, unless it's overridden. NOTE: This information is only used for _display_ purposes: it in no way affects any of the arithmetic of the contract, including {IERC20-balanceOf} and {IERC20-transfer}."
      },
      "eip712Domain()": {
        "details": "See {IERC-5267}."
      },
      "name()": {
        "details": "Returns the name of the token."
      },
      "nonces(address)": {
        "details": "Returns the current nonce for `owner`. This value must be included whenever a signature is generated for {permit}. Every successful call to {permit} increases ``owner``'s nonce by one. This prevents a signature from being used multiple times."
      },
      "owner()": {
        "details": "Returns the address of the current owner."
      },
      "permit(address,address,uint256,uint256,uint8,bytes32,bytes32)": {
        "details": "Sets `value` as the allowance of `spender` over ``owner``'s tokens, given ``owner``'s signed approval. IMPORTANT: The same issues {IERC20-approve} has related to transaction ordering also apply here. Emits an {Approval} event. Requirements: - `spender` cannot be the zero address. - `deadline` must be a timestamp in the future. - `v`, `r` and `s` must be a valid `secp256k1` signature from `owner` over the EIP712-formatted function arguments. - the signature must use ``owner``'s current nonce (see {nonces}). For more information on the signature format, see the https://eips.ethereum.org/EIPS/eip-2612#specification[relevant EIP section]. CAUTION: See Security Considerations above."
      },
      "renounceOwnership()": {
        "details": "Leaves the contract without owner. It will not be possible to call `onlyOwner` functions. Can only be called by the current owner. NOTE: Renouncing ownership will leave the contract without an owner, thereby disabling any functionality that is only available to the owner."
      },
      "symbol()": {
        "details": "Returns the symbol of the token, usually a shorter version of the name."
      },
      "totalSupply()": {
        "details": "See {IERC20-totalSupply}."
      },
      "transfer(address,uint256)": {
        "details": "See {IERC20-transfer}. Requirements: - `to` cannot be the zero address. - the caller must have a balance of at least `value`."
      },
      "transferFrom(address,address,uint256)": {
        "details": "See {IERC20-transferFrom}. Emits an {Approval} event indicating the updated allowance. This is not required by the EIP. See the note at the beginning of {ERC20}. NOTE: Does not update the allowance if the current allowance is the maximum `uint256`. Requirements: - `from` and `to` cannot be the zero address. - `from` must have a balance of at least `value`. - the caller must have allowance for ``from``'s tokens of at least `value`."
      },
      "transferOwnership(address)": {
        "details": "Transfers ownership of the contract to a new account (`newOwner`). Can only be called by the current owner."
      }
    },
    "version": 1
  },
  "userdoc": {
    "kind": "user",
    "methods": {},
    "version": 1
  },
  "storageLayout": {
    "storage": [
      {
        "astId": 711,
        "contract": "contracts/tokens/INK.sol:INK",
        "label": "_balances",
        "offset": 0,
        "slot": "0",
        "type": "t_mapping(t_address,t_uint256)"
      },
      {
        "astId": 717,
        "contract": "contracts/tokens/INK.sol:INK",
        "label": "_allowances",
        "offset": 0,
        "slot": "1",
        "type": "t_mapping(t_address,t_mapping(t_address,t_uint256))"
      },
      {
        "astId": 719,
        "contract": "contracts/tokens/INK.sol:INK",
        "label": "_totalSupply",
        "offset": 0,
        "slot": "2",
        "type": "t_uint256"
      },
      {
        "astId": 721,
        "contract": "contracts/tokens/INK.sol:INK",
        "label": "_name",
        "offset": 0,
        "slot": "3",
        "type": "t_string_storage"
      },
      {
        "astId": 723,
        "contract": "contracts/tokens/INK.sol:INK",
        "label": "_symbol",
        "offset": 0,
        "slot": "4",
        "type": "t_string_storage"
      },
      {
        "astId": 4277,
        "contract": "contracts/tokens/INK.sol:INK",
        "label": "_nameFallback",
        "offset": 0,
        "slot": "5",
        "type": "t_string_storage"
      },
      {
        "astId": 4279,
        "contract": "contracts/tokens/INK.sol:INK",
        "label": "_versionFallback",
        "offset": 0,
        "slot": "6",
        "type": "t_string_storage"
      },
      {
        "astId": 3256,
        "contract": "contracts/tokens/INK.sol:INK",
        "label": "_nonces",
        "offset": 0,
        "slot": "7",
        "type": "t_mapping(t_address,t_uint256)"
      },
      {
        "astId": 387,
        "contract": "contracts/tokens/INK.sol:INK",
        "label": "_owner",
        "offset": 0,
        "slot": "8",
        "type": "t_address"
      }
    ],
    "types": {
      "t_address": {
        "encoding": "inplace",
        "label": "address",
        "numberOfBytes": "20"
      },
      "t_mapping(t_address,t_mapping(t_address,t_uint256))": {
        "encoding": "mapping",
        "key": "t_address",
        "label": "mapping(address => mapping(address => uint256))",
        "numberOfBytes": "32",
        "value": "t_mapping(t_address,t_uint256)"
      },
      "t_mapping(t_address,t_uint256)": {
        "encoding": "mapping",
        "key": "t_address",
        "label": "mapping(address => uint256)",
        "numberOfBytes": "32",
        "value": "t_uint256"
      },
      "t_string_storage": {
        "encoding": "bytes",
        "label": "string",
        "numberOfBytes": "32"
      },
      "t_uint256": {
        "encoding": "inplace",
        "label": "uint256",
        "numberOfBytes": "32"
      }
    }
  }
}