{
  "address": "0x148B4E5aED8691E19899daA04d24F33812B326BA",
  "abi": [
    {
      "inputs": [
        {
          "internalType": "address",
          "name": "account",
          "type": "address"
        }
      ],
      "name": "getPassword",
      "outputs": [
        {
          "internalType": "string",
          "name": "",
          "type": "string"
        }
      ],
      "stateMutability": "view",
      "type": "function"
    },
    {
      "inputs": [
        {
          "internalType": "string",
          "name": "message",
          "type": "string"
        }
      ],
      "name": "setPassword",
      "outputs": [],
      "stateMutability": "nonpayable",
      "type": "function"
    }
  ],
  "transactionHash": "0x4cd4a1d47ccf4519fe8f381fd40af9d09bd7a276686d98d8fbe1c8bba176eaf5",
  "args": [],
  "numDeployments": 2,
  "solcInputHash": "ebaecdc51cb14a7ea00d8dd69ea5e863",
  "bytecode": "0x608060405234801561001057600080fd5b506104e8806100206000396000f3fe608060405234801561001057600080fd5b50600436106100365760003560e01c8063080266681461003b578063290bb45314610064575b600080fd5b61004e61004936600461014f565b610079565b60405161005b919061018c565b60405180910390f35b610077610072366004610227565b610132565b005b73ffffffffffffffffffffffffffffffffffffffff811660009081526020819052604090208054606091906100ad906102f6565b80601f01602080910402602001604051908101604052809291908181526020018280546100d9906102f6565b80156101265780601f106100fb57610100808354040283529160200191610126565b820191906000526020600020905b81548152906001019060200180831161010957829003601f168201915b50505050509050919050565b33600090815260208190526040902061014b8282610398565b5050565b60006020828403121561016157600080fd5b813573ffffffffffffffffffffffffffffffffffffffff8116811461018557600080fd5b9392505050565b600060208083528351808285015260005b818110156101b95785810183015185820160400152820161019d565b5060006040828601015260407fffffffffffffffffffffffffffffffffffffffffffffffffffffffffffffffe0601f8301168501019250505092915050565b7f4e487b7100000000000000000000000000000000000000000000000000000000600052604160045260246000fd5b60006020828403121561023957600080fd5b813567ffffffffffffffff8082111561025157600080fd5b818401915084601f83011261026557600080fd5b813581811115610277576102776101f8565b604051601f82017fffffffffffffffffffffffffffffffffffffffffffffffffffffffffffffffe0908116603f011681019083821181831017156102bd576102bd6101f8565b816040528281528760208487010111156102d657600080fd5b826020860160208301376000928101602001929092525095945050505050565b600181811c9082168061030a57607f821691505b602082108103610343577f4e487b7100000000000000000000000000000000000000000000000000000000600052602260045260246000fd5b50919050565b601f82111561039357600081815260208120601f850160051c810160208610156103705750805b601f850160051c820191505b8181101561038f5782815560010161037c565b5050505b505050565b815167ffffffffffffffff8111156103b2576103b26101f8565b6103c6816103c084546102f6565b84610349565b602080601f83116001811461041957600084156103e35750858301515b7fffffffffffffffffffffffffffffffffffffffffffffffffffffffffffffffff600386901b1c1916600185901b17855561038f565b6000858152602081207fffffffffffffffffffffffffffffffffffffffffffffffffffffffffffffffe08616915b8281101561046657888601518255948401946001909101908401610447565b50858210156104a257878501517fffffffffffffffffffffffffffffffffffffffffffffffffffffffffffffffff600388901b60f8161c191681555b5050505050600190811b0190555056fea26469706673582212202f957c78961b43268a2087ac0615af4c4422e74b7e7a427975d7d8a0e245a56d64736f6c63430008140033",
  "libraries": {},
  "devdoc": {
    "kind": "dev",
    "methods": {},
    "version": 1
  },
  "userdoc": {
    "kind": "user",
    "methods": {},
    "version": 1
  },
  "storageLayout": {
    "storage": [
      {
        "astId": 5,
        "contract": "contracts/PasswordManager.sol:PasswordManager",
        "label": "passwords",
        "offset": 0,
        "slot": "0",
        "type": "t_mapping(t_address,t_string_storage)"
      }
    ],
    "types": {
      "t_address": {
        "encoding": "inplace",
        "label": "address",
        "numberOfBytes": "20"
      },
      "t_mapping(t_address,t_string_storage)": {
        "encoding": "mapping",
        "key": "t_address",
        "label": "mapping(address => string)",
        "numberOfBytes": "32",
        "value": "t_string_storage"
      },
      "t_string_storage": {
        "encoding": "bytes",
        "label": "string",
        "numberOfBytes": "32"
      }
    }
  }
}