{
  "address": "0xf4A57F1fEfcAF633894DEb7a11204E3e751F6664",
  "abi": [
    {
      "inputs": [],
      "name": "getPassword",
      "outputs": [
        {
          "internalType": "string",
          "name": "",
          "type": "string"
        }
      ],
      "stateMutability": "view",
      "type": "function"
    },
    {
      "inputs": [
        {
          "internalType": "string",
          "name": "message",
          "type": "string"
        }
      ],
      "name": "setPassword",
      "outputs": [],
      "stateMutability": "nonpayable",
      "type": "function"
    }
  ],
  "transactionHash": "0x8455cffd68d5763eeb929da961444e482cf9e3f245dd95031dc5f299a3f2da4a",
  "args": [],
  "numDeployments": 1,
  "solcInputHash": "b46e2153f0e98d3636a2b8ee4ae76b02",
  "bytecode": "0x608060405234801561001057600080fd5b50610488806100206000396000f3fe608060405234801561001057600080fd5b50600436106100365760003560e01c8063290bb4531461003b578063cc8e239414610050575b600080fd5b61004e61004936600461015b565b61006e565b005b61005861008b565b604051610065919061022a565b60405180910390f35b3360009081526020819052604090206100878282610338565b5050565b3360009081526020819052604090208054606091906100a990610296565b80601f01602080910402602001604051908101604052809291908181526020018280546100d590610296565b80156101225780601f106100f757610100808354040283529160200191610122565b820191906000526020600020905b81548152906001019060200180831161010557829003601f168201915b5050505050905090565b7f4e487b7100000000000000000000000000000000000000000000000000000000600052604160045260246000fd5b60006020828403121561016d57600080fd5b813567ffffffffffffffff8082111561018557600080fd5b818401915084601f83011261019957600080fd5b8135818111156101ab576101ab61012c565b604051601f82017fffffffffffffffffffffffffffffffffffffffffffffffffffffffffffffffe0908116603f011681019083821181831017156101f1576101f161012c565b8160405282815287602084870101111561020a57600080fd5b826020860160208301376000928101602001929092525095945050505050565b600060208083528351808285015260005b818110156102575785810183015185820160400152820161023b565b5060006040828601015260407fffffffffffffffffffffffffffffffffffffffffffffffffffffffffffffffe0601f8301168501019250505092915050565b600181811c908216806102aa57607f821691505b6020821081036102e3577f4e487b7100000000000000000000000000000000000000000000000000000000600052602260045260246000fd5b50919050565b601f82111561033357600081815260208120601f850160051c810160208610156103105750805b601f850160051c820191505b8181101561032f5782815560010161031c565b5050505b505050565b815167ffffffffffffffff8111156103525761035261012c565b610366816103608454610296565b846102e9565b602080601f8311600181146103b957600084156103835750858301515b7fffffffffffffffffffffffffffffffffffffffffffffffffffffffffffffffff600386901b1c1916600185901b17855561032f565b6000858152602081207fffffffffffffffffffffffffffffffffffffffffffffffffffffffffffffffe08616915b82811015610406578886015182559484019460019091019084016103e7565b508582101561044257878501517fffffffffffffffffffffffffffffffffffffffffffffffffffffffffffffffff600388901b60f8161c191681555b5050505050600190811b0190555056fea2646970667358221220d068b3d5685547e1af97290bff6525e36de425a72e5ef35fd77cbec018d189c764736f6c63430008140033",
  "libraries": {},
  "devdoc": {
    "kind": "dev",
    "methods": {},
    "version": 1
  },
  "userdoc": {
    "kind": "user",
    "methods": {},
    "version": 1
  },
  "storageLayout": {
    "storage": [
      {
        "astId": 5,
        "contract": "contracts/PasswordManager.sol:PasswordManager",
        "label": "passwords",
        "offset": 0,
        "slot": "0",
        "type": "t_mapping(t_address,t_string_storage)"
      }
    ],
    "types": {
      "t_address": {
        "encoding": "inplace",
        "label": "address",
        "numberOfBytes": "20"
      },
      "t_mapping(t_address,t_string_storage)": {
        "encoding": "mapping",
        "key": "t_address",
        "label": "mapping(address => string)",
        "numberOfBytes": "32",
        "value": "t_string_storage"
      },
      "t_string_storage": {
        "encoding": "bytes",
        "label": "string",
        "numberOfBytes": "32"
      }
    }
  }
}