{
  "address": "0xBf295b12A13a733EEc80e6D3ABc27f1bBF289Cfb",
  "abi": [
    {
      "inputs": [],
      "stateMutability": "nonpayable",
      "type": "constructor"
    },
    {
      "inputs": [
        {
          "internalType": "address",
          "name": "account",
          "type": "address"
        },
        {
          "internalType": "bytes32",
          "name": "role",
          "type": "bytes32"
        }
      ],
      "name": "InvalidRoleAccess",
      "type": "error"
    },
    {
      "inputs": [
        {
          "internalType": "bytes32",
          "name": "role",
          "type": "bytes32"
        }
      ],
      "name": "InvalidRoleName",
      "type": "error"
    },
    {
      "inputs": [
        {
          "internalType": "address",
          "name": "account",
          "type": "address"
        },
        {
          "internalType": "bytes32",
          "name": "role",
          "type": "bytes32"
        }
      ],
      "name": "grantRole",
      "outputs": [],
      "stateMutability": "nonpayable",
      "type": "function"
    },
    {
      "inputs": [
        {
          "internalType": "address",
          "name": "account",
          "type": "address"
        },
        {
          "internalType": "bytes32",
          "name": "role",
          "type": "bytes32"
        }
      ],
      "name": "hasRole",
      "outputs": [
        {
          "internalType": "bool",
          "name": "",
          "type": "bool"
        }
      ],
      "stateMutability": "view",
      "type": "function"
    },
    {
      "inputs": [
        {
          "internalType": "address",
          "name": "account",
          "type": "address"
        }
      ],
      "name": "revokeAllRole",
      "outputs": [],
      "stateMutability": "nonpayable",
      "type": "function"
    },
    {
      "inputs": [
        {
          "internalType": "address",
          "name": "account",
          "type": "address"
        },
        {
          "internalType": "bytes32",
          "name": "role",
          "type": "bytes32"
        }
      ],
      "name": "revokeRole",
      "outputs": [],
      "stateMutability": "nonpayable",
      "type": "function"
    }
  ],
  "transactionHash": "0x3b1edef439ec9314df6a1f9db042f5ef67fc1d87a380174ddf04f6444e99ef1c",
  "args": [],
  "numDeployments": 2,
  "solcInputHash": "78a09bb7889135aed4afa15359d0a635",
  "bytecode": "0x608060405234801561001057600080fd5b506107e4806100206000396000f3fe608060405234801561001057600080fd5b506004361061004c5760003560e01c8063208dd1ff14610051578063ab2742dc14610066578063ac4ab3fb14610079578063cb337348146100a0575b600080fd5b61006461005f3660046106d1565b6100b3565b005b6100646100743660046106d1565b61014e565b61008c6100873660046106d1565b610222565b604051901515815260200160405180910390f35b6100646100ae3660046106fb565b610237565b6100dd337f41444d494e0000000000000000000000000000000000000000000000000000006102cb565b610140576040517fb5f438340000000000000000000000000000000000000000000000000000000081523360048201527f41444d494e00000000000000000000000000000000000000000000000000000060248201526044015b60405180910390fd5b61014a8282610310565b5050565b610178337f41444d494e0000000000000000000000000000000000000000000000000000006102cb565b6101d6576040517fb5f438340000000000000000000000000000000000000000000000000000000081523360048201527f41444d494e0000000000000000000000000000000000000000000000000000006024820152604401610137565b6101df81610387565b610218576040517f4c460eb400000000000000000000000000000000000000000000000000000000815260048101829052602401610137565b61014a8282610402565b600061022e83836102cb565b90505b92915050565b610261337f41444d494e0000000000000000000000000000000000000000000000000000006102cb565b6102bf576040517fb5f438340000000000000000000000000000000000000000000000000000000081523360048201527f41444d494e0000000000000000000000000000000000000000000000000000006024820152604401610137565b6102c88161043e565b50565b6000806102d6610484565b73ffffffffffffffffffffffffffffffffffffffff851660009081526020829052604090209091506103089084610504565b949350505050565b600061031a610484565b73ffffffffffffffffffffffffffffffffffffffff8416600090815260208290526040902090915061034c9083610504565b156103825773ffffffffffffffffffffffffffffffffffffffff83166000908152602082905260409020610380908361051c565b505b505050565b60007f41444d494e0000000000000000000000000000000000000000000000000000008214806103d657507f434f4e464947000000000000000000000000000000000000000000000000000082145b806102315750507f4b454550455200000000000000000000000000000000000000000000000000001490565b600061040c610484565b73ffffffffffffffffffffffffffffffffffffffff841660009081526020829052604090209091506103809083610528565b6000610448610484565b73ffffffffffffffffffffffffffffffffffffffff83166000908152602082905260408120919250818161047c8282610676565b505050505050565b6000806040516020016104c8906020808252601d908201527f70656e782e696f2e73746f726167652e416363657373436f6e74726f6c000000604082015260600190565b604080517fffffffffffffffffffffffffffffffffffffffffffffffffffffffffffffffe0818403018152919052805160209091012092915050565b6000818152600183016020526040812054151561022e565b600061022e8383610534565b600061022e8383610627565b6000818152600183016020526040812054801561061d576000610558600183610716565b855490915060009061056c90600190610716565b90508082146105d157600086600001828154811061058c5761058c610750565b90600052602060002001549050808760000184815481106105af576105af610750565b6000918252602080832090910192909255918252600188019052604090208390555b85548690806105e2576105e261077f565b600190038181906000526020600020016000905590558560010160008681526020019081526020016000206000905560019350505050610231565b6000915050610231565b600081815260018301602052604081205461066e57508154600181810184556000848152602080822090930184905584548482528286019093526040902091909155610231565b506000610231565b50805460008255906000526020600020908101906102c891905b808211156106a45760008155600101610690565b5090565b803573ffffffffffffffffffffffffffffffffffffffff811681146106cc57600080fd5b919050565b600080604083850312156106e457600080fd5b6106ed836106a8565b946020939093013593505050565b60006020828403121561070d57600080fd5b61022e826106a8565b81810381811115610231577f4e487b7100000000000000000000000000000000000000000000000000000000600052601160045260246000fd5b7f4e487b7100000000000000000000000000000000000000000000000000000000600052603260045260246000fd5b7f4e487b7100000000000000000000000000000000000000000000000000000000600052603160045260246000fdfea26469706673582212200b2c1c747f0bda2037ee5fac6f6f7c8c58d56f053ab9b7a7ea43d695bef341cd64736f6c63430008140033",
  "libraries": {},
  "devdoc": {
    "kind": "dev",
    "methods": {},
    "version": 1
  },
  "userdoc": {
    "kind": "user",
    "methods": {},
    "version": 1
  },
  "storageLayout": {
    "storage": [],
    "types": null
  }
}