{
  "address": "0x79d3Be15Fb5fe09dD092c288FbA0c083f3Cc8020",
  "abi": [
    {
      "inputs": [
        {
          "internalType": "bytes32",
          "name": "key",
          "type": "bytes32"
        }
      ],
      "name": "getId",
      "outputs": [
        {
          "internalType": "uint256",
          "name": "",
          "type": "uint256"
        }
      ],
      "stateMutability": "view",
      "type": "function"
    }
  ],
  "transactionHash": "0xa407675ef1358fd724d966ea163e16d992a5ceeb05eaf51cd04dc78ef95a1d7d",
  "args": [],
  "numDeployments": 1,
  "solcInputHash": "78a09bb7889135aed4afa15359d0a635",
  "bytecode": "0x61026961003a600b82828239805160001a60731461002d57634e487b7160e01b600052600060045260246000fd5b30600052607381538281f3fe730000000000000000000000000000000000000000301460806040526004361061004b5760003560e01c8063204c72521461005057806386d5c4be14610082578063e55697731461008a575b600080fd5b81801561005c57600080fd5b5061007061006b36600461019a565b61009d565b60405190815260200160405180910390f35b6100706100fd565b61007061009836600461019a565b61017d565b6000806100a86100fd565b6000848152602082905260409020549091506104578110156100d8576100d161045760016101e2565b90506100e6565b806100e2816101fb565b9150505b600093845260209190915260409092208290555090565b600080604051602001610141906020808252601b908201527f70656e782e696f2e73746f726167652e5575696443726561746f720000000000604082015260600190565b604080517fffffffffffffffffffffffffffffffffffffffffffffffffffffffffffffffe0818403018152919052805160209091012092915050565b6000806101886100fd565b60009384526020525050604090205490565b6000602082840312156101ac57600080fd5b5035919050565b7f4e487b7100000000000000000000000000000000000000000000000000000000600052601160045260246000fd5b808201808211156101f5576101f56101b3565b92915050565b60007fffffffffffffffffffffffffffffffffffffffffffffffffffffffffffffffff820361022c5761022c6101b3565b506001019056fea26469706673582212208cbf682d0cc94953018786f57f0cc2913f0013e11f4120cd5a493d4a05b2710364736f6c63430008140033",
  "libraries": {},
  "devdoc": {
    "kind": "dev",
    "methods": {},
    "version": 1
  },
  "userdoc": {
    "kind": "user",
    "methods": {},
    "version": 1
  },
  "storageLayout": {
    "storage": [],
    "types": null
  }
}