{
  "address": "0x5FC8d32690cc91D4c39d9d3abcBD16989F875707",
  "abi": [
    {
      "inputs": [],
      "stateMutability": "nonpayable",
      "type": "constructor"
    },
    {
      "anonymous": false,
      "inputs": [
        {
          "indexed": true,
          "internalType": "address",
          "name": "owner",
          "type": "address"
        },
        {
          "indexed": true,
          "internalType": "address",
          "name": "approved",
          "type": "address"
        },
        {
          "indexed": true,
          "internalType": "uint256",
          "name": "tokenId",
          "type": "uint256"
        }
      ],
      "name": "Approval",
      "type": "event"
    },
    {
      "anonymous": false,
      "inputs": [
        {
          "indexed": true,
          "internalType": "address",
          "name": "owner",
          "type": "address"
        },
        {
          "indexed": true,
          "internalType": "address",
          "name": "operator",
          "type": "address"
        },
        {
          "indexed": false,
          "internalType": "bool",
          "name": "approved",
          "type": "bool"
        }
      ],
      "name": "ApprovalForAll",
      "type": "event"
    },
    {
      "anonymous": false,
      "inputs": [
        {
          "indexed": true,
          "internalType": "address",
          "name": "from",
          "type": "address"
        },
        {
          "indexed": true,
          "internalType": "address",
          "name": "to",
          "type": "address"
        },
        {
          "indexed": true,
          "internalType": "uint256",
          "name": "tokenId",
          "type": "uint256"
        }
      ],
      "name": "Transfer",
      "type": "event"
    },
    {
      "inputs": [],
      "name": "MAX_PRICE",
      "outputs": [
        {
          "internalType": "uint256",
          "name": "",
          "type": "uint256"
        }
      ],
      "stateMutability": "view",
      "type": "function"
    },
    {
      "inputs": [],
      "name": "MAX_SUPPLY",
      "outputs": [
        {
          "internalType": "uint256",
          "name": "",
          "type": "uint256"
        }
      ],
      "stateMutability": "view",
      "type": "function"
    },
    {
      "inputs": [],
      "name": "MIN_PRICE",
      "outputs": [
        {
          "internalType": "uint256",
          "name": "",
          "type": "uint256"
        }
      ],
      "stateMutability": "view",
      "type": "function"
    },
    {
      "inputs": [],
      "name": "PRICE_INCREMENT",
      "outputs": [
        {
          "internalType": "uint256",
          "name": "",
          "type": "uint256"
        }
      ],
      "stateMutability": "view",
      "type": "function"
    },
    {
      "inputs": [
        {
          "internalType": "address",
          "name": "to",
          "type": "address"
        },
        {
          "internalType": "uint256",
          "name": "tokenId",
          "type": "uint256"
        }
      ],
      "name": "approve",
      "outputs": [],
      "stateMutability": "nonpayable",
      "type": "function"
    },
    {
      "inputs": [
        {
          "internalType": "address",
          "name": "owner",
          "type": "address"
        }
      ],
      "name": "balanceOf",
      "outputs": [
        {
          "internalType": "uint256",
          "name": "",
          "type": "uint256"
        }
      ],
      "stateMutability": "view",
      "type": "function"
    },
    {
      "inputs": [
        {
          "internalType": "uint256",
          "name": "tokenId",
          "type": "uint256"
        }
      ],
      "name": "getApproved",
      "outputs": [
        {
          "internalType": "address",
          "name": "",
          "type": "address"
        }
      ],
      "stateMutability": "view",
      "type": "function"
    },
    {
      "inputs": [],
      "name": "getCurrentPrice",
      "outputs": [
        {
          "internalType": "uint256",
          "name": "",
          "type": "uint256"
        }
      ],
      "stateMutability": "view",
      "type": "function"
    },
    {
      "inputs": [],
      "name": "getTokenInfo",
      "outputs": [
        {
          "components": [
            {
              "internalType": "uint256",
              "name": "maxSupply",
              "type": "uint256"
            },
            {
              "internalType": "uint256",
              "name": "currentSupply",
              "type": "uint256"
            },
            {
              "internalType": "uint256",
              "name": "currentPrice",
              "type": "uint256"
            },
            {
              "internalType": "uint256",
              "name": "minPrice",
              "type": "uint256"
            },
            {
              "internalType": "uint256",
              "name": "maxPrice",
              "type": "uint256"
            }
          ],
          "internalType": "struct IBeliever.BelieverNFTInfo",
          "name": "info",
          "type": "tuple"
        }
      ],
      "stateMutability": "view",
      "type": "function"
    },
    {
      "inputs": [
        {
          "internalType": "address",
          "name": "owner",
          "type": "address"
        },
        {
          "internalType": "address",
          "name": "operator",
          "type": "address"
        }
      ],
      "name": "isApprovedForAll",
      "outputs": [
        {
          "internalType": "bool",
          "name": "",
          "type": "bool"
        }
      ],
      "stateMutability": "view",
      "type": "function"
    },
    {
      "inputs": [
        {
          "internalType": "uint256",
          "name": "value",
          "type": "uint256"
        },
        {
          "internalType": "address",
          "name": "account",
          "type": "address"
        }
      ],
      "name": "mintNFT",
      "outputs": [],
      "stateMutability": "nonpayable",
      "type": "function"
    },
    {
      "inputs": [],
      "name": "name",
      "outputs": [
        {
          "internalType": "string",
          "name": "",
          "type": "string"
        }
      ],
      "stateMutability": "view",
      "type": "function"
    },
    {
      "inputs": [
        {
          "internalType": "uint256",
          "name": "tokenId",
          "type": "uint256"
        }
      ],
      "name": "ownerOf",
      "outputs": [
        {
          "internalType": "address",
          "name": "",
          "type": "address"
        }
      ],
      "stateMutability": "view",
      "type": "function"
    },
    {
      "inputs": [
        {
          "internalType": "address",
          "name": "from",
          "type": "address"
        },
        {
          "internalType": "address",
          "name": "to",
          "type": "address"
        },
        {
          "internalType": "uint256",
          "name": "tokenId",
          "type": "uint256"
        }
      ],
      "name": "safeTransferFrom",
      "outputs": [],
      "stateMutability": "nonpayable",
      "type": "function"
    },
    {
      "inputs": [
        {
          "internalType": "address",
          "name": "from",
          "type": "address"
        },
        {
          "internalType": "address",
          "name": "to",
          "type": "address"
        },
        {
          "internalType": "uint256",
          "name": "tokenId",
          "type": "uint256"
        },
        {
          "internalType": "bytes",
          "name": "data",
          "type": "bytes"
        }
      ],
      "name": "safeTransferFrom",
      "outputs": [],
      "stateMutability": "nonpayable",
      "type": "function"
    },
    {
      "inputs": [
        {
          "internalType": "address",
          "name": "operator",
          "type": "address"
        },
        {
          "internalType": "bool",
          "name": "approved",
          "type": "bool"
        }
      ],
      "name": "setApprovalForAll",
      "outputs": [],
      "stateMutability": "nonpayable",
      "type": "function"
    },
    {
      "inputs": [
        {
          "internalType": "bytes4",
          "name": "interfaceId",
          "type": "bytes4"
        }
      ],
      "name": "supportsInterface",
      "outputs": [
        {
          "internalType": "bool",
          "name": "",
          "type": "bool"
        }
      ],
      "stateMutability": "view",
      "type": "function"
    },
    {
      "inputs": [],
      "name": "symbol",
      "outputs": [
        {
          "internalType": "string",
          "name": "",
          "type": "string"
        }
      ],
      "stateMutability": "view",
      "type": "function"
    },
    {
      "inputs": [
        {
          "internalType": "uint256",
          "name": "tokenId",
          "type": "uint256"
        }
      ],
      "name": "tokenURI",
      "outputs": [
        {
          "internalType": "string",
          "name": "",
          "type": "string"
        }
      ],
      "stateMutability": "view",
      "type": "function"
    },
    {
      "inputs": [
        {
          "internalType": "address",
          "name": "from",
          "type": "address"
        },
        {
          "internalType": "address",
          "name": "to",
          "type": "address"
        },
        {
          "internalType": "uint256",
          "name": "tokenId",
          "type": "uint256"
        }
      ],
      "name": "transferFrom",
      "outputs": [],
      "stateMutability": "nonpayable",
      "type": "function"
    }
  ],
  "transactionHash": "0xdf432e938dab6df32d811ad95fe82509deade6a2ad490e77e73b4cbc11cd752a",
  "args": [],
  "numDeployments": 1,
  "solcInputHash": "fe5dacd4f651e73c65d66d037d294568",
  "bytecode": "0x608060405260006006553480156200001657600080fd5b506040518060400160405280601181526020017014195b960810995b1a595d995c88139195607a1b81525060405180604001604052806003815260200162282c2160e91b81525081600090816200006e91906200012b565b5060016200007d82826200012b565b505050620001f7565b634e487b7160e01b600052604160045260246000fd5b600181811c90821680620000b157607f821691505b602082108103620000d257634e487b7160e01b600052602260045260246000fd5b50919050565b601f8211156200012657600081815260208120601f850160051c81016020861015620001015750805b601f850160051c820191505b8181101562000122578281556001016200010d565b5050505b505050565b81516001600160401b0381111562000147576200014762000086565b6200015f816200015884546200009c565b84620000d8565b602080601f8311600181146200019757600084156200017e5750858301515b600019600386901b1c1916600185901b17855562000122565b600085815260208120601f198616915b82811015620001c857888601518255948401946001909101908401620001a7565b5085821015620001e75787850151600019600388901b60f8161c191681555b5050505050600190811b01905550565b611eb580620002076000396000f3fe608060405234801561001057600080fd5b506004361061016c5760003560e01c80636d25d802116100cd578063ad9f20a611610081578063c87b56dd11610066578063c87b56dd1461030f578063e985e9c514610322578063eb91d37e1461036b57600080fd5b8063ad9f20a6146102ed578063b88d4fde146102fc57600080fd5b806395d89b41116100b257806395d89b4114610288578063a22cb46514610290578063abb1dc44146102a357600080fd5b80636d25d8021461026d57806370a082311461027557600080fd5b806323b872dd1161012457806342842e0e1161010957806342842e0e146102345780636352211e14610247578063669f5a511461025a57600080fd5b806323b872dd1461021857806332cb6b0c1461022b57600080fd5b806306fdde031161015557806306fdde03146101b6578063081812fc146101cb578063095ea7b31461020357600080fd5b806301c11d961461017157806301ffc9a714610193575b600080fd5b610180671bc16d674ec8000081565b6040519081526020015b60405180910390f35b6101a66101a136600461199c565b610373565b604051901515815260200161018a565b6101be610458565b60405161018a9190611a27565b6101de6101d9366004611a3a565b6104ea565b60405173ffffffffffffffffffffffffffffffffffffffff909116815260200161018a565b610216610211366004611a7c565b61051e565b005b610216610226366004611aa6565b6106da565b6101806103e881565b610216610242366004611aa6565b61077b565b6101de610255366004611a3a565b610796565b610216610268366004611ae2565b610822565b610180610925565b610180610283366004611b0e565b61094f565b6101be610a1d565b61021661029e366004611b29565b610a2c565b6102ab610a3b565b60405161018a9190600060a082019050825182526020830151602083015260408301516040830152606083015160608301526080830151608083015292915050565b6101806702c68af0bb14000081565b61021661030a366004611b94565b610ab4565b6101be61031d366004611a3a565b610b5c565b6101a6610330366004611c8e565b73ffffffffffffffffffffffffffffffffffffffff918216600090815260056020908152604080832093909416825291909152205460ff1690565b610180610bd0565b60007fffffffff0000000000000000000000000000000000000000000000000000000082167f80ac58cd00000000000000000000000000000000000000000000000000000000148061040657507fffffffff0000000000000000000000000000000000000000000000000000000082167f5b5e139f00000000000000000000000000000000000000000000000000000000145b8061045257507f01ffc9a7000000000000000000000000000000000000000000000000000000007fffffffff000000000000000000000000000000000000000000000000000000008316145b92915050565b60606000805461046790611cb8565b80601f016020809104026020016040519081016040528092919081815260200182805461049390611cb8565b80156104e05780601f106104b5576101008083540402835291602001916104e0565b820191906000526020600020905b8154815290600101906020018083116104c357829003601f168201915b5050505050905090565b60006104f582610c40565b5060009081526004602052604090205473ffffffffffffffffffffffffffffffffffffffff1690565b600061052982610796565b90508073ffffffffffffffffffffffffffffffffffffffff168373ffffffffffffffffffffffffffffffffffffffff16036105eb576040517f08c379a000000000000000000000000000000000000000000000000000000000815260206004820152602160248201527f4552433732313a20617070726f76616c20746f2063757272656e74206f776e6560448201527f720000000000000000000000000000000000000000000000000000000000000060648201526084015b60405180910390fd5b3373ffffffffffffffffffffffffffffffffffffffff8216148061063f575073ffffffffffffffffffffffffffffffffffffffff8116600090815260056020908152604080832033845290915290205460ff165b6106cb576040517f08c379a000000000000000000000000000000000000000000000000000000000815260206004820152603d60248201527f4552433732313a20617070726f76652063616c6c6572206973206e6f7420746f60448201527f6b656e206f776e6572206f7220617070726f76656420666f7220616c6c00000060648201526084016105e2565b6106d58383610cce565b505050565b6106e43382610d6e565b610770576040517f08c379a000000000000000000000000000000000000000000000000000000000815260206004820152602d60248201527f4552433732313a2063616c6c6572206973206e6f7420746f6b656e206f776e6560448201527f72206f7220617070726f7665640000000000000000000000000000000000000060648201526084016105e2565b6106d5838383610e2e565b6106d583838360405180602001604052806000815250610ab4565b60008181526002602052604081205473ffffffffffffffffffffffffffffffffffffffff1680610452576040517f08c379a000000000000000000000000000000000000000000000000000000000815260206004820152601860248201527f4552433732313a20696e76616c696420746f6b656e204944000000000000000060448201526064016105e2565b6103e86006541061088f576040517f08c379a000000000000000000000000000000000000000000000000000000000815260206004820152601660248201527f4d6178696d756d20737570706c7920726561636865640000000000000000000060448201526064016105e2565b610897610bd0565b821015610900576040517f08c379a000000000000000000000000000000000000000000000000000000000815260206004820152601460248201527f496e73756666696369656e74207061796d656e7400000000000000000000000060448201526064016105e2565b61090c81600654611129565b6006805490600061091c83611d3a565b91905055505050565b6103e86109426702c68af0bb140000671bc16d674ec80000611d72565b61094c9190611d85565b81565b600073ffffffffffffffffffffffffffffffffffffffff82166109f4576040517f08c379a000000000000000000000000000000000000000000000000000000000815260206004820152602960248201527f4552433732313a2061646472657373207a65726f206973206e6f74206120766160448201527f6c6964206f776e6572000000000000000000000000000000000000000000000060648201526084016105e2565b5073ffffffffffffffffffffffffffffffffffffffff1660009081526003602052604090205490565b60606001805461046790611cb8565b610a37338383611143565b5050565b610a6d6040518060a0016040528060008152602001600081526020016000815260200160008152602001600081525090565b6040518060a001604052806103e881526020016006548152602001610a90610bd0565b81526020016702c68af0bb1400008152602001671bc16d674ec80000815250905090565b610abe3383610d6e565b610b4a576040517f08c379a000000000000000000000000000000000000000000000000000000000815260206004820152602d60248201527f4552433732313a2063616c6c6572206973206e6f7420746f6b656e206f776e6560448201527f72206f7220617070726f7665640000000000000000000000000000000000000060648201526084016105e2565b610b5684848484611270565b50505050565b6060610b6782610c40565b6000610b7e60408051602081019091526000815290565b90506000815111610b9e5760405180602001604052806000815250610bc9565b80610ba884611313565b604051602001610bb9929190611dc0565b6040516020818303038152906040525b9392505050565b6000806103e8610bf06702c68af0bb140000671bc16d674ec80000611d72565b610bfa9190611d85565b600654610c079190611def565b610c19906702c68af0bb140000611e06565b9050671bc16d674ec800008111610c305780610c3a565b671bc16d674ec800005b91505090565b60008181526002602052604090205473ffffffffffffffffffffffffffffffffffffffff16610ccb576040517f08c379a000000000000000000000000000000000000000000000000000000000815260206004820152601860248201527f4552433732313a20696e76616c696420746f6b656e204944000000000000000060448201526064016105e2565b50565b600081815260046020526040902080547fffffffffffffffffffffffff00000000000000000000000000000000000000001673ffffffffffffffffffffffffffffffffffffffff84169081179091558190610d2882610796565b73ffffffffffffffffffffffffffffffffffffffff167f8c5be1e5ebec7d5bd14f71427d1e84f3dd0314c0f7b2291e5b200ac8c7c3b92560405160405180910390a45050565b600080610d7a83610796565b90508073ffffffffffffffffffffffffffffffffffffffff168473ffffffffffffffffffffffffffffffffffffffff161480610de8575073ffffffffffffffffffffffffffffffffffffffff80821660009081526005602090815260408083209388168352929052205460ff165b80610e2657508373ffffffffffffffffffffffffffffffffffffffff16610e0e846104ea565b73ffffffffffffffffffffffffffffffffffffffff16145b949350505050565b8273ffffffffffffffffffffffffffffffffffffffff16610e4e82610796565b73ffffffffffffffffffffffffffffffffffffffff1614610ef1576040517f08c379a000000000000000000000000000000000000000000000000000000000815260206004820152602560248201527f4552433732313a207472616e736665722066726f6d20696e636f72726563742060448201527f6f776e657200000000000000000000000000000000000000000000000000000060648201526084016105e2565b73ffffffffffffffffffffffffffffffffffffffff8216610f93576040517f08c379a0000000000000000000000000000000000000000000000000000000008152602060048201526024808201527f4552433732313a207472616e7366657220746f20746865207a65726f2061646460448201527f726573730000000000000000000000000000000000000000000000000000000060648201526084016105e2565b8273ffffffffffffffffffffffffffffffffffffffff16610fb382610796565b73ffffffffffffffffffffffffffffffffffffffff1614611056576040517f08c379a000000000000000000000000000000000000000000000000000000000815260206004820152602560248201527f4552433732313a207472616e736665722066726f6d20696e636f72726563742060448201527f6f776e657200000000000000000000000000000000000000000000000000000060648201526084016105e2565b600081815260046020908152604080832080547fffffffffffffffffffffffff000000000000000000000000000000000000000090811690915573ffffffffffffffffffffffffffffffffffffffff8781168086526003855283862080547fffffffffffffffffffffffffffffffffffffffffffffffffffffffffffffffff01905590871680865283862080546001019055868652600290945282852080549092168417909155905184937fddf252ad1be2c89b69c2b068fc378daa952ba7f163c4a11628f55a4df523b3ef91a4505050565b610a378282604051806020016040528060008152506113d1565b8173ffffffffffffffffffffffffffffffffffffffff168373ffffffffffffffffffffffffffffffffffffffff16036111d8576040517f08c379a000000000000000000000000000000000000000000000000000000000815260206004820152601960248201527f4552433732313a20617070726f766520746f2063616c6c65720000000000000060448201526064016105e2565b73ffffffffffffffffffffffffffffffffffffffff83811660008181526005602090815260408083209487168084529482529182902080547fffffffffffffffffffffffffffffffffffffffffffffffffffffffffffffff001686151590811790915591519182527f17307eab39ab6107e8899845ad3d59bd9653f200f220920489ca2b5937696c31910160405180910390a3505050565b61127b848484610e2e565b61128784848484611474565b610b56576040517f08c379a000000000000000000000000000000000000000000000000000000000815260206004820152603260248201527f4552433732313a207472616e7366657220746f206e6f6e20455243373231526560448201527f63656976657220696d706c656d656e746572000000000000000000000000000060648201526084016105e2565b6060600061132083611667565b600101905060008167ffffffffffffffff81111561134057611340611b65565b6040519080825280601f01601f19166020018201604052801561136a576020820181803683370190505b5090508181016020015b7fffffffffffffffffffffffffffffffffffffffffffffffffffffffffffffffff017f3031323334353637383961626364656600000000000000000000000000000000600a86061a8153600a850494508461137457509392505050565b6113db8383611749565b6113e86000848484611474565b6106d5576040517f08c379a000000000000000000000000000000000000000000000000000000000815260206004820152603260248201527f4552433732313a207472616e7366657220746f206e6f6e20455243373231526560448201527f63656976657220696d706c656d656e746572000000000000000000000000000060648201526084016105e2565b600073ffffffffffffffffffffffffffffffffffffffff84163b1561165c576040517f150b7a0200000000000000000000000000000000000000000000000000000000815273ffffffffffffffffffffffffffffffffffffffff85169063150b7a02906114eb903390899088908890600401611e19565b6020604051808303816000875af1925050508015611544575060408051601f3d9081017fffffffffffffffffffffffffffffffffffffffffffffffffffffffffffffffe016820190925261154191810190611e62565b60015b611611573d808015611572576040519150601f19603f3d011682016040523d82523d6000602084013e611577565b606091505b508051600003611609576040517f08c379a000000000000000000000000000000000000000000000000000000000815260206004820152603260248201527f4552433732313a207472616e7366657220746f206e6f6e20455243373231526560448201527f63656976657220696d706c656d656e746572000000000000000000000000000060648201526084016105e2565b805181602001fd5b7fffffffff00000000000000000000000000000000000000000000000000000000167f150b7a0200000000000000000000000000000000000000000000000000000000149050610e26565b506001949350505050565b6000807a184f03e93ff9f4daa797ed6e38ed64bf6a1f01000000000000000083106116b0577a184f03e93ff9f4daa797ed6e38ed64bf6a1f010000000000000000830492506040015b6d04ee2d6d415b85acef810000000083106116dc576d04ee2d6d415b85acef8100000000830492506020015b662386f26fc1000083106116fa57662386f26fc10000830492506010015b6305f5e1008310611712576305f5e100830492506008015b612710831061172657612710830492506004015b60648310611738576064830492506002015b600a83106104525760010192915050565b73ffffffffffffffffffffffffffffffffffffffff82166117c6576040517f08c379a000000000000000000000000000000000000000000000000000000000815260206004820181905260248201527f4552433732313a206d696e7420746f20746865207a65726f206164647265737360448201526064016105e2565b60008181526002602052604090205473ffffffffffffffffffffffffffffffffffffffff1615611852576040517f08c379a000000000000000000000000000000000000000000000000000000000815260206004820152601c60248201527f4552433732313a20746f6b656e20616c7265616479206d696e7465640000000060448201526064016105e2565b60008181526002602052604090205473ffffffffffffffffffffffffffffffffffffffff16156118de576040517f08c379a000000000000000000000000000000000000000000000000000000000815260206004820152601c60248201527f4552433732313a20746f6b656e20616c7265616479206d696e7465640000000060448201526064016105e2565b73ffffffffffffffffffffffffffffffffffffffff8216600081815260036020908152604080832080546001019055848352600290915280822080547fffffffffffffffffffffffff0000000000000000000000000000000000000000168417905551839291907fddf252ad1be2c89b69c2b068fc378daa952ba7f163c4a11628f55a4df523b3ef908290a45050565b7fffffffff0000000000000000000000000000000000000000000000000000000081168114610ccb57600080fd5b6000602082840312156119ae57600080fd5b8135610bc98161196e565b60005b838110156119d45781810151838201526020016119bc565b50506000910152565b600081518084526119f58160208601602086016119b9565b601f017fffffffffffffffffffffffffffffffffffffffffffffffffffffffffffffffe0169290920160200192915050565b602081526000610bc960208301846119dd565b600060208284031215611a4c57600080fd5b5035919050565b803573ffffffffffffffffffffffffffffffffffffffff81168114611a7757600080fd5b919050565b60008060408385031215611a8f57600080fd5b611a9883611a53565b946020939093013593505050565b600080600060608486031215611abb57600080fd5b611ac484611a53565b9250611ad260208501611a53565b9150604084013590509250925092565b60008060408385031215611af557600080fd5b82359150611b0560208401611a53565b90509250929050565b600060208284031215611b2057600080fd5b610bc982611a53565b60008060408385031215611b3c57600080fd5b611b4583611a53565b915060208301358015158114611b5a57600080fd5b809150509250929050565b7f4e487b7100000000000000000000000000000000000000000000000000000000600052604160045260246000fd5b60008060008060808587031215611baa57600080fd5b611bb385611a53565b9350611bc160208601611a53565b925060408501359150606085013567ffffffffffffffff80821115611be557600080fd5b818701915087601f830112611bf957600080fd5b813581811115611c0b57611c0b611b65565b604051601f82017fffffffffffffffffffffffffffffffffffffffffffffffffffffffffffffffe0908116603f01168101908382118183101715611c5157611c51611b65565b816040528281528a6020848701011115611c6a57600080fd5b82602086016020830137600060208483010152809550505050505092959194509250565b60008060408385031215611ca157600080fd5b611caa83611a53565b9150611b0560208401611a53565b600181811c90821680611ccc57607f821691505b602082108103611d05577f4e487b7100000000000000000000000000000000000000000000000000000000600052602260045260246000fd5b50919050565b7f4e487b7100000000000000000000000000000000000000000000000000000000600052601160045260246000fd5b60007fffffffffffffffffffffffffffffffffffffffffffffffffffffffffffffffff8203611d6b57611d6b611d0b565b5060010190565b8181038181111561045257610452611d0b565b600082611dbb577f4e487b7100000000000000000000000000000000000000000000000000000000600052601260045260246000fd5b500490565b60008351611dd28184602088016119b9565b835190830190611de68183602088016119b9565b01949350505050565b808202811582820484141761045257610452611d0b565b8082018082111561045257610452611d0b565b600073ffffffffffffffffffffffffffffffffffffffff808716835280861660208401525083604083015260806060830152611e5860808301846119dd565b9695505050505050565b600060208284031215611e7457600080fd5b8151610bc98161196e56fea2646970667358221220cf7a0c8b1782cbe3a267fe68a4782a42618e2e5ccc6dbf3fa3a444a9def4195b64736f6c63430008140033",
  "libraries": {},
  "devdoc": {
    "events": {
      "Approval(address,address,uint256)": {
        "details": "Emitted when `owner` enables `approved` to manage the `tokenId` token."
      },
      "ApprovalForAll(address,address,bool)": {
        "details": "Emitted when `owner` enables or disables (`approved`) `operator` to manage all of its assets."
      },
      "Transfer(address,address,uint256)": {
        "details": "Emitted when `tokenId` token is transferred from `from` to `to`."
      }
    },
    "kind": "dev",
    "methods": {
      "approve(address,uint256)": {
        "details": "See {IERC721-approve}."
      },
      "balanceOf(address)": {
        "details": "See {IERC721-balanceOf}."
      },
      "getApproved(uint256)": {
        "details": "See {IERC721-getApproved}."
      },
      "isApprovedForAll(address,address)": {
        "details": "See {IERC721-isApprovedForAll}."
      },
      "name()": {
        "details": "See {IERC721Metadata-name}."
      },
      "ownerOf(uint256)": {
        "details": "See {IERC721-ownerOf}."
      },
      "safeTransferFrom(address,address,uint256)": {
        "details": "See {IERC721-safeTransferFrom}."
      },
      "safeTransferFrom(address,address,uint256,bytes)": {
        "details": "See {IERC721-safeTransferFrom}."
      },
      "setApprovalForAll(address,bool)": {
        "details": "See {IERC721-setApprovalForAll}."
      },
      "supportsInterface(bytes4)": {
        "details": "See {IERC165-supportsInterface}."
      },
      "symbol()": {
        "details": "See {IERC721Metadata-symbol}."
      },
      "tokenURI(uint256)": {
        "details": "See {IERC721Metadata-tokenURI}."
      },
      "transferFrom(address,address,uint256)": {
        "details": "See {IERC721-transferFrom}."
      }
    },
    "version": 1
  },
  "userdoc": {
    "kind": "user",
    "methods": {},
    "version": 1
  },
  "storageLayout": {
    "storage": [
      {
        "astId": 138,
        "contract": "contracts/tokens/Believer.sol:Believer",
        "label": "_name",
        "offset": 0,
        "slot": "0",
        "type": "t_string_storage"
      },
      {
        "astId": 140,
        "contract": "contracts/tokens/Believer.sol:Believer",
        "label": "_symbol",
        "offset": 0,
        "slot": "1",
        "type": "t_string_storage"
      },
      {
        "astId": 144,
        "contract": "contracts/tokens/Believer.sol:Believer",
        "label": "_owners",
        "offset": 0,
        "slot": "2",
        "type": "t_mapping(t_uint256,t_address)"
      },
      {
        "astId": 148,
        "contract": "contracts/tokens/Believer.sol:Believer",
        "label": "_balances",
        "offset": 0,
        "slot": "3",
        "type": "t_mapping(t_address,t_uint256)"
      },
      {
        "astId": 152,
        "contract": "contracts/tokens/Believer.sol:Believer",
        "label": "_tokenApprovals",
        "offset": 0,
        "slot": "4",
        "type": "t_mapping(t_uint256,t_address)"
      },
      {
        "astId": 158,
        "contract": "contracts/tokens/Believer.sol:Believer",
        "label": "_operatorApprovals",
        "offset": 0,
        "slot": "5",
        "type": "t_mapping(t_address,t_mapping(t_address,t_bool))"
      },
      {
        "astId": 2900,
        "contract": "contracts/tokens/Believer.sol:Believer",
        "label": "currentSupply",
        "offset": 0,
        "slot": "6",
        "type": "t_uint256"
      }
    ],
    "types": {
      "t_address": {
        "encoding": "inplace",
        "label": "address",
        "numberOfBytes": "20"
      },
      "t_bool": {
        "encoding": "inplace",
        "label": "bool",
        "numberOfBytes": "1"
      },
      "t_mapping(t_address,t_bool)": {
        "encoding": "mapping",
        "key": "t_address",
        "label": "mapping(address => bool)",
        "numberOfBytes": "32",
        "value": "t_bool"
      },
      "t_mapping(t_address,t_mapping(t_address,t_bool))": {
        "encoding": "mapping",
        "key": "t_address",
        "label": "mapping(address => mapping(address => bool))",
        "numberOfBytes": "32",
        "value": "t_mapping(t_address,t_bool)"
      },
      "t_mapping(t_address,t_uint256)": {
        "encoding": "mapping",
        "key": "t_address",
        "label": "mapping(address => uint256)",
        "numberOfBytes": "32",
        "value": "t_uint256"
      },
      "t_mapping(t_uint256,t_address)": {
        "encoding": "mapping",
        "key": "t_uint256",
        "label": "mapping(uint256 => address)",
        "numberOfBytes": "32",
        "value": "t_address"
      },
      "t_string_storage": {
        "encoding": "bytes",
        "label": "string",
        "numberOfBytes": "32"
      },
      "t_uint256": {
        "encoding": "inplace",
        "label": "uint256",
        "numberOfBytes": "32"
      }
    }
  }
}