{
  "address": "0xa513E6E4b8f2a923D98304ec87F64353C4D5C853",
  "abi": [
    {
      "inputs": [
        {
          "internalType": "bytes4",
          "name": "_selector",
          "type": "bytes4"
        }
      ],
      "name": "CannotAddFunctionToDiamondThatAlreadyExists",
      "type": "error"
    },
    {
      "inputs": [
        {
          "internalType": "bytes4[]",
          "name": "_selectors",
          "type": "bytes4[]"
        }
      ],
      "name": "CannotAddSelectorsToZeroAddress",
      "type": "error"
    },
    {
      "inputs": [
        {
          "internalType": "bytes4",
          "name": "_selector",
          "type": "bytes4"
        }
      ],
      "name": "CannotRemoveFunctionThatDoesNotExist",
      "type": "error"
    },
    {
      "inputs": [
        {
          "internalType": "bytes4",
          "name": "_selector",
          "type": "bytes4"
        }
      ],
      "name": "CannotRemoveImmutableFunction",
      "type": "error"
    },
    {
      "inputs": [
        {
          "internalType": "bytes4",
          "name": "_selector",
          "type": "bytes4"
        }
      ],
      "name": "CannotReplaceFunctionThatDoesNotExists",
      "type": "error"
    },
    {
      "inputs": [
        {
          "internalType": "bytes4",
          "name": "_selector",
          "type": "bytes4"
        }
      ],
      "name": "CannotReplaceFunctionWithTheSameFunctionFromTheSameFacet",
      "type": "error"
    },
    {
      "inputs": [
        {
          "internalType": "bytes4[]",
          "name": "_selectors",
          "type": "bytes4[]"
        }
      ],
      "name": "CannotReplaceFunctionsFromFacetWithZeroAddress",
      "type": "error"
    },
    {
      "inputs": [
        {
          "internalType": "bytes4",
          "name": "_selector",
          "type": "bytes4"
        }
      ],
      "name": "CannotReplaceImmutableFunction",
      "type": "error"
    },
    {
      "inputs": [
        {
          "internalType": "uint8",
          "name": "_action",
          "type": "uint8"
        }
      ],
      "name": "IncorrectFacetCutAction",
      "type": "error"
    },
    {
      "inputs": [
        {
          "internalType": "address",
          "name": "_initializationContractAddress",
          "type": "address"
        },
        {
          "internalType": "bytes",
          "name": "_calldata",
          "type": "bytes"
        }
      ],
      "name": "InitializationFunctionReverted",
      "type": "error"
    },
    {
      "inputs": [
        {
          "internalType": "address",
          "name": "_contractAddress",
          "type": "address"
        },
        {
          "internalType": "string",
          "name": "_message",
          "type": "string"
        }
      ],
      "name": "NoBytecodeAtAddress",
      "type": "error"
    },
    {
      "inputs": [
        {
          "internalType": "address",
          "name": "_facetAddress",
          "type": "address"
        }
      ],
      "name": "NoSelectorsProvidedForFacetForCut",
      "type": "error"
    },
    {
      "inputs": [
        {
          "internalType": "address",
          "name": "_user",
          "type": "address"
        },
        {
          "internalType": "address",
          "name": "_contractOwner",
          "type": "address"
        }
      ],
      "name": "NotContractOwner",
      "type": "error"
    },
    {
      "inputs": [
        {
          "internalType": "address",
          "name": "_facetAddress",
          "type": "address"
        }
      ],
      "name": "RemoveFacetAddressMustBeZeroAddress",
      "type": "error"
    },
    {
      "anonymous": false,
      "inputs": [
        {
          "components": [
            {
              "internalType": "address",
              "name": "facetAddress",
              "type": "address"
            },
            {
              "internalType": "enum IDiamond.FacetCutAction",
              "name": "action",
              "type": "uint8"
            },
            {
              "internalType": "bytes4[]",
              "name": "functionSelectors",
              "type": "bytes4[]"
            }
          ],
          "indexed": false,
          "internalType": "struct IDiamond.FacetCut[]",
          "name": "_diamondCut",
          "type": "tuple[]"
        },
        {
          "indexed": false,
          "internalType": "address",
          "name": "_init",
          "type": "address"
        },
        {
          "indexed": false,
          "internalType": "bytes",
          "name": "_calldata",
          "type": "bytes"
        }
      ],
      "name": "DiamondCut",
      "type": "event"
    },
    {
      "anonymous": false,
      "inputs": [
        {
          "components": [
            {
              "internalType": "address",
              "name": "facetAddress",
              "type": "address"
            },
            {
              "internalType": "enum IDiamond.FacetCutAction",
              "name": "action",
              "type": "uint8"
            },
            {
              "internalType": "bytes4[]",
              "name": "functionSelectors",
              "type": "bytes4[]"
            }
          ],
          "indexed": false,
          "internalType": "struct IDiamond.FacetCut[]",
          "name": "_diamondCut",
          "type": "tuple[]"
        },
        {
          "indexed": false,
          "internalType": "address",
          "name": "_init",
          "type": "address"
        },
        {
          "indexed": false,
          "internalType": "bytes",
          "name": "_calldata",
          "type": "bytes"
        }
      ],
      "name": "DiamondCut",
      "type": "event"
    },
    {
      "inputs": [
        {
          "components": [
            {
              "internalType": "address",
              "name": "facetAddress",
              "type": "address"
            },
            {
              "internalType": "enum IDiamond.FacetCutAction",
              "name": "action",
              "type": "uint8"
            },
            {
              "internalType": "bytes4[]",
              "name": "functionSelectors",
              "type": "bytes4[]"
            }
          ],
          "internalType": "struct IDiamond.FacetCut[]",
          "name": "_diamondCut",
          "type": "tuple[]"
        },
        {
          "internalType": "address",
          "name": "_init",
          "type": "address"
        },
        {
          "internalType": "bytes",
          "name": "_calldata",
          "type": "bytes"
        }
      ],
      "name": "diamondCut",
      "outputs": [],
      "stateMutability": "nonpayable",
      "type": "function"
    }
  ],
  "transactionHash": "0x6f07b9cab45d3e22991feeda1c82021647e0391d08ad9abf9245d148c943f65d",
  "args": [],
  "numDeployments": 1,
  "solcInputHash": "66146d95dd0ed4b9dab0266f9dc03803",
  "bytecode": "0x608060405234801561001057600080fd5b506115e7806100206000396000f3fe608060405234801561001057600080fd5b506004361061002b5760003560e01c80631f931c1c14610030575b600080fd5b61004361003e366004610e8b565b610045565b005b61004d61009e565b61009761005a8587611008565b8484848080601f01602080910402602001604051908101604052809392919081815260200183838082843760009201919091525061015992505050565b5050505050565b7fc8fcad8db84d3cc18b4c41d551ea0ee66dd599cde068d998e57d5e09332c131c6003015473ffffffffffffffffffffffffffffffffffffffff163314610157577fc8fcad8db84d3cc18b4c41d551ea0ee66dd599cde068d998e57d5e09332c131f546040517fff4127cb00000000000000000000000000000000000000000000000000000000815233600482015273ffffffffffffffffffffffffffffffffffffffff90911660248201526044015b60405180910390fd5b565b60005b83518110156102fd57600084828151811061017957610179611164565b6020026020010151604001519050600085838151811061019b5761019b611164565b602002602001015160000151905081516000036101fc576040517fe767f91f00000000000000000000000000000000000000000000000000000000815273ffffffffffffffffffffffffffffffffffffffff8216600482015260240161014e565b600086848151811061021057610210611164565b60200260200101516020015190506000600281111561023157610231611193565b81600281111561024357610243611193565b03610257576102528284610348565b6102e7565b600181600281111561026b5761026b611193565b0361027a5761025282846105e2565b600281600281111561028e5761028e611193565b0361029d5761025282846108c9565b8060028111156102af576102af611193565b6040517f7fe9a41e00000000000000000000000000000000000000000000000000000000815260ff909116600482015260240161014e565b50505080806102f5906111f1565b91505061015c565b507f8faa70878671ccd212d20771b795c50af8fd3ff6cf27f4bde57e5d4de0aeb67383838360405161033193929190611297565b60405180910390a16103438282610cdf565b505050565b73ffffffffffffffffffffffffffffffffffffffff821661039757806040517f0ae3681c00000000000000000000000000000000000000000000000000000000815260040161014e91906113ff565b7fc8fcad8db84d3cc18b4c41d551ea0ee66dd599cde068d998e57d5e09332c131d54604080516060810190915260248082527fc8fcad8db84d3cc18b4c41d551ea0ee66dd599cde068d998e57d5e09332c131c92916104009186919061153e6020830139610dd8565b60005b835181101561009757600084828151811061042057610420611164565b6020908102919091018101517fffffffff00000000000000000000000000000000000000000000000000000000811660009081529186905260409091205490915073ffffffffffffffffffffffffffffffffffffffff1680156104d3576040517febbf5d070000000000000000000000000000000000000000000000000000000081527fffffffff000000000000000000000000000000000000000000000000000000008316600482015260240161014e565b60408051808201825273ffffffffffffffffffffffffffffffffffffffff808a16825261ffff80881660208085019182527fffffffff00000000000000000000000000000000000000000000000000000000881660009081528b825295862094518554925190931674010000000000000000000000000000000000000000027fffffffffffffffffffff00000000000000000000000000000000000000000000909216929093169190911717909155600180880180549182018155835291206008820401805460e085901c60046007909416939093026101000a92830263ffffffff9093021916919091179055836105ca81611465565b945050505080806105da906111f1565b915050610403565b7fc8fcad8db84d3cc18b4c41d551ea0ee66dd599cde068d998e57d5e09332c131c73ffffffffffffffffffffffffffffffffffffffff831661065257816040517fcd98a96f00000000000000000000000000000000000000000000000000000000815260040161014e91906113ff565b6106748360405180606001604052806028815260200161158a60289139610dd8565b60005b82518110156108c357600083828151811061069457610694611164565b6020908102919091018101517fffffffff00000000000000000000000000000000000000000000000000000000811660009081529185905260409091205490915073ffffffffffffffffffffffffffffffffffffffff16308103610748576040517f520300da0000000000000000000000000000000000000000000000000000000081527fffffffff000000000000000000000000000000000000000000000000000000008316600482015260240161014e565b8573ffffffffffffffffffffffffffffffffffffffff168173ffffffffffffffffffffffffffffffffffffffff16036107d1576040517f358d9d1a0000000000000000000000000000000000000000000000000000000081527fffffffff000000000000000000000000000000000000000000000000000000008316600482015260240161014e565b73ffffffffffffffffffffffffffffffffffffffff8116610842576040517f7479f9390000000000000000000000000000000000000000000000000000000081527fffffffff000000000000000000000000000000000000000000000000000000008316600482015260240161014e565b507fffffffff0000000000000000000000000000000000000000000000000000000016600090815260208390526040902080547fffffffffffffffffffffffff00000000000000000000000000000000000000001673ffffffffffffffffffffffffffffffffffffffff8616179055806108bb816111f1565b915050610677565b50505050565b7fc8fcad8db84d3cc18b4c41d551ea0ee66dd599cde068d998e57d5e09332c131d547fc8fcad8db84d3cc18b4c41d551ea0ee66dd599cde068d998e57d5e09332c131c9073ffffffffffffffffffffffffffffffffffffffff841615610973576040517fd091bc8100000000000000000000000000000000000000000000000000000000815273ffffffffffffffffffffffffffffffffffffffff8516600482015260240161014e565b60005b835181101561009757600084828151811061099357610993611164565b6020908102919091018101517fffffffff000000000000000000000000000000000000000000000000000000008116600090815286835260409081902081518083019092525473ffffffffffffffffffffffffffffffffffffffff81168083527401000000000000000000000000000000000000000090910461ffff169382019390935290925090610a75576040517f7a08a22d0000000000000000000000000000000000000000000000000000000081527fffffffff000000000000000000000000000000000000000000000000000000008316600482015260240161014e565b80513073ffffffffffffffffffffffffffffffffffffffff90911603610aeb576040517f6fafeb080000000000000000000000000000000000000000000000000000000081527fffffffff000000000000000000000000000000000000000000000000000000008316600482015260240161014e565b83610af581611486565b94505083816020015161ffff1614610c16576000856001018581548110610b1e57610b1e611164565b90600052602060002090600891828204019190066004029054906101000a900460e01b90508086600101836020015161ffff1681548110610b6157610b61611164565b600091825260208083206008830401805463ffffffff60079094166004026101000a938402191660e09590951c92909202939093179055838201517fffffffff00000000000000000000000000000000000000000000000000000000939093168152908790526040902080547fffffffffffffffffffff0000ffffffffffffffffffffffffffffffffffffffff167401000000000000000000000000000000000000000061ffff909316929092029190911790555b84600101805480610c2957610c296114bb565b6000828152602080822060087fffffffffffffffffffffffffffffffffffffffffffffffffffffffffffffffff90940193840401805463ffffffff600460078716026101000a0219169055919092557fffffffff00000000000000000000000000000000000000000000000000000000909316815291859052506040902080547fffffffffffffffffffff0000000000000000000000000000000000000000000016905580610cd7816111f1565b915050610976565b73ffffffffffffffffffffffffffffffffffffffff8216610cfe575050565b610d208260405180606001604052806028815260200161156260289139610dd8565b6000808373ffffffffffffffffffffffffffffffffffffffff1683604051610d4891906114ea565b600060405180830381855af49150503d8060008114610d83576040519150601f19603f3d011682016040523d82523d6000602084013e610d88565b606091505b5091509150816108c357805115610da25780518082602001fd5b83836040517f192105d700000000000000000000000000000000000000000000000000000000815260040161014e929190611506565b813b60008190036103435782826040517f919834b900000000000000000000000000000000000000000000000000000000815260040161014e929190611506565b803573ffffffffffffffffffffffffffffffffffffffff81168114610e3d57600080fd5b919050565b60008083601f840112610e5457600080fd5b50813567ffffffffffffffff811115610e6c57600080fd5b602083019150836020828501011115610e8457600080fd5b9250929050565b600080600080600060608688031215610ea357600080fd5b853567ffffffffffffffff80821115610ebb57600080fd5b818801915088601f830112610ecf57600080fd5b813581811115610ede57600080fd5b8960208260051b8501011115610ef357600080fd5b60208301975080965050610f0960208901610e19565b94506040880135915080821115610f1f57600080fd5b50610f2c88828901610e42565b969995985093965092949392505050565b7f4e487b7100000000000000000000000000000000000000000000000000000000600052604160045260246000fd5b6040516060810167ffffffffffffffff81118282101715610f8f57610f8f610f3d565b60405290565b604051601f82017fffffffffffffffffffffffffffffffffffffffffffffffffffffffffffffffe016810167ffffffffffffffff81118282101715610fdc57610fdc610f3d565b604052919050565b600067ffffffffffffffff821115610ffe57610ffe610f3d565b5060051b60200190565b600061101b61101684610fe4565b610f95565b83815260208082019190600586811b86013681111561103957600080fd5b865b8181101561115757803567ffffffffffffffff8082111561105c5760008081fd5b818a019150606082360312156110725760008081fd5b61107a610f6c565b61108383610e19565b815286830135600381106110975760008081fd5b81880152604083810135838111156110af5760008081fd5b939093019236601f8501126110c657600092508283fd5b833592506110d661101684610fe4565b83815292871b840188019288810190368511156110f35760008081fd5b948901945b848610156111405785357fffffffff00000000000000000000000000000000000000000000000000000000811681146111315760008081fd5b825294890194908901906110f8565b91830191909152508852505094830194830161103b565b5092979650505050505050565b7f4e487b7100000000000000000000000000000000000000000000000000000000600052603260045260246000fd5b7f4e487b7100000000000000000000000000000000000000000000000000000000600052602160045260246000fd5b7f4e487b7100000000000000000000000000000000000000000000000000000000600052601160045260246000fd5b60007fffffffffffffffffffffffffffffffffffffffffffffffffffffffffffffffff8203611222576112226111c2565b5060010190565b60005b8381101561124457818101518382015260200161122c565b50506000910152565b60008151808452611265816020860160208601611229565b601f017fffffffffffffffffffffffffffffffffffffffffffffffffffffffffffffffe0169290920160200192915050565b60006060808301818452808751808352608092508286019150828160051b8701016020808b0160005b848110156113c2577fffffffffffffffffffffffffffffffffffffffffffffffffffffffffffffff808a8503018652815188850173ffffffffffffffffffffffffffffffffffffffff82511686528482015160038110611349577f4e487b7100000000000000000000000000000000000000000000000000000000600052602160045260246000fd5b868601526040918201519186018a905281519081905290840190600090898701905b808310156113ad5783517fffffffff0000000000000000000000000000000000000000000000000000000016825292860192600192909201919086019061136b565b509785019795505050908201906001016112c0565b505073ffffffffffffffffffffffffffffffffffffffff8a169088015286810360408801526113f1818961124d565b9a9950505050505050505050565b6020808252825182820181905260009190848201906040850190845b818110156114595783517fffffffff00000000000000000000000000000000000000000000000000000000168352928401929184019160010161141b565b50909695505050505050565b600061ffff80831681810361147c5761147c6111c2565b6001019392505050565b600081611495576114956111c2565b507fffffffffffffffffffffffffffffffffffffffffffffffffffffffffffffffff0190565b7f4e487b7100000000000000000000000000000000000000000000000000000000600052603160045260246000fd5b600082516114fc818460208701611229565b9190910192915050565b73ffffffffffffffffffffffffffffffffffffffff83168152604060208201526000611535604083018461124d565b94935050505056fe4c69624469616d6f6e644375743a2041646420666163657420686173206e6f20636f64654c69624469616d6f6e644375743a205f696e6974206164647265737320686173206e6f20636f64654c69624469616d6f6e644375743a205265706c61636520666163657420686173206e6f20636f6465a2646970667358221220d5638c253eec1c6e24b7016603baa5f137dc405e8771527eca0ce1fb8a53a9ee64736f6c63430008140033",
  "libraries": {
    "LibDiamond": "0x0165878A594ca255338adfa4d48449f69242Eb8F"
  },
  "devdoc": {
    "kind": "dev",
    "methods": {
      "diamondCut((address,uint8,bytes4[])[],address,bytes)": {
        "params": {
          "_calldata": "A function call, including function selector and arguments                  _calldata is executed with delegatecall on _init",
          "_diamondCut": "Contains the facet addresses and function selectors",
          "_init": "The address of the contract or facet to execute _calldata"
        }
      }
    },
    "version": 1
  },
  "userdoc": {
    "kind": "user",
    "methods": {
      "diamondCut((address,uint8,bytes4[])[],address,bytes)": {
        "notice": "Add/replace/remove any number of functions and optionally execute         a function with delegatecall"
      }
    },
    "version": 1
  },
  "storageLayout": {
    "storage": [],
    "types": null
  }
}