{
  "address": "0x9A9f2CCfdE556A7E9Ff0848998Aa4a0CFD8863AE",
  "abi": [
    {
      "stateMutability": "payable",
      "type": "fallback"
    },
    {
      "inputs": [],
      "name": "accountPoint",
      "outputs": [
        {
          "internalType": "uint256",
          "name": "",
          "type": "uint256"
        }
      ],
      "stateMutability": "pure",
      "type": "function"
    },
    {
      "stateMutability": "payable",
      "type": "receive"
    }
  ],
  "transactionHash": "0x3f173495f0170a7474a1cfa600e19af22c03c452804b4257049497e244a9fbe5",
  "args": [],
  "numDeployments": 1,
  "solcInputHash": "ef557e009a96a26b2e7adda0196c7d42",
  "bytecode": "0x6080604052348015600f57600080fd5b50607b80601d6000396000f3fe608060405260043610601d5760003560e01c8063fd82eca414602557005b36602357005b005b348015603057600080fd5b50606460405190815260200160405180910390f3fea264697066735822122020f84da39eae36221ebe3f1b2744da2923b40a2bf8183ce167fdeb29cfe71c1764736f6c63430008140033",
  "libraries": {},
  "devdoc": {
    "kind": "dev",
    "methods": {},
    "version": 1
  },
  "userdoc": {
    "kind": "user",
    "methods": {},
    "version": 1
  },
  "storageLayout": {
    "storage": [],
    "types": null
  }
}